{"abi":[{"type":"function","name":"lastMessage","inputs":[],"outputs":[{"name":"","type":"uint256","internalType":"uint256"}],"stateMutability":"view"},{"type":"function","name":"messenger","inputs":[],"outputs":[{"name":"","type":"address","internalType":"contract ITeleporterMessenger"}],"stateMutability":"view"},{"type":"function","name":"receiveTeleporterMessage","inputs":[{"name":"","type":"bytes32","internalType":"bytes32"},{"name":"","type":"address","internalType":"address"},{"name":"message","type":"bytes","internalType":"bytes"}],"outputs":[],"stateMutability":"nonpayable"},{"type":"function","name":"sendMessage","inputs":[{"name":"destinationAddress","type":"address","internalType":"address"},{"name":"message","type":"uint256","internalType":"uint256"},{"name":"destinationBlockchainID","type":"bytes32","internalType":"bytes32"}],"outputs":[],"stateMutability":"nonpayable"}],"bytecode":{"object":"0x60a060405273253b2784c75e510dd0ff1da844684a1ac0aa5fcf73ffffffffffffffffffffffffffffffffffffffff1660809073ffffffffffffffffffffffffffffffffffffffff168152503480156055575f5ffd5b5060805161091861007a5f395f818160c90152818160ed015261019501526109185ff3fe608060405234801561000f575f5ffd5b506004361061004a575f3560e01c8063329707101461004e5780633cb747bf1461006c578063c868efaa1461008a578063cb3bdd3c146100a6575b5f5ffd5b6100566100c2565b6040516100639190610320565b60405180910390f35b6100746100c7565b60405161008191906103b3565b60405180910390f35b6100a4600480360381019061009f91906104a3565b6100eb565b005b6100c060048036038101906100bb919061053e565b610193565b005b5f5481565b7f000000000000000000000000000000000000000000000000000000000000000081565b7f000000000000000000000000000000000000000000000000000000000000000073ffffffffffffffffffffffffffffffffffffffff163373ffffffffffffffffffffffffffffffffffffffff1614610179576040517f08c379a00000000000000000000000000000000000000000000000000000000081526004016101709061060e565b60405180910390fd5b8181810190610188919061062c565b5f8190555050505050565b7f000000000000000000000000000000000000000000000000000000000000000073ffffffffffffffffffffffffffffffffffffffff1663624488506040518060c001604052808481526020018673ffffffffffffffffffffffffffffffffffffffff16815260200160405180604001604052805f73ffffffffffffffffffffffffffffffffffffffff1681526020015f8152508152602001620186a081526020015f67ffffffffffffffff81111561024f5761024e610657565b5b60405190808252806020026020018201604052801561027d5781602001602082028036833780820191505090505b508152602001856040516020016102949190610320565b6040516020818303038152906040528152506040518263ffffffff1660e01b81526004016102c29190610883565b6020604051808303815f875af11580156102de573d5f5f3e3d5ffd5b505050506040513d601f19601f8201168201806040525081019061030291906108b7565b50505050565b5f819050919050565b61031a81610308565b82525050565b5f6020820190506103335f830184610311565b92915050565b5f73ffffffffffffffffffffffffffffffffffffffff82169050919050565b5f819050919050565b5f61037b61037661037184610339565b610358565b610339565b9050919050565b5f61038c82610361565b9050919050565b5f61039d82610382565b9050919050565b6103ad81610393565b82525050565b5f6020820190506103c65f8301846103a4565b92915050565b5f5ffd5b5f5ffd5b5f819050919050565b6103e6816103d4565b81146103f0575f5ffd5b50565b5f81359050610401816103dd565b92915050565b5f61041182610339565b9050919050565b61042181610407565b811461042b575f5ffd5b50565b5f8135905061043c81610418565b92915050565b5f5ffd5b5f5ffd5b5f5ffd5b5f5f83601f84011261046357610462610442565b5b8235905067ffffffffffffffff8111156104805761047f610446565b5b60208301915083600182028301111561049c5761049b61044a565b5b9250929050565b5f5f5f5f606085870312156104bb576104ba6103cc565b5b5f6104c8878288016103f3565b94505060206104d98782880161042e565b935050604085013567ffffffffffffffff8111156104fa576104f96103d0565b5b6105068782880161044e565b925092505092959194509250565b61051d81610308565b8114610527575f5ffd5b50565b5f8135905061053881610514565b92915050565b5f5f5f60608486031215610555576105546103cc565b5b5f6105628682870161042e565b93505060206105738682870161052a565b9250506040610584868287016103f3565b9150509250925092565b5f82825260208201905092915050565b7f53656e64657252656365697665723a20756e617574686f72697a65642054656c5f8201527f65706f727465724d657373656e67657200000000000000000000000000000000602082015250565b5f6105f860308361058e565b91506106038261059e565b604082019050919050565b5f6020820190508181035f830152610625816105ec565b9050919050565b5f60208284031215610641576106406103cc565b5b5f61064e8482850161052a565b91505092915050565b7f4e487b71000000000000000000000000000000000000000000000000000000005f52604160045260245ffd5b61068d816103d4565b82525050565b61069c81610407565b82525050565b6106ab81610308565b82525050565b604082015f8201516106c55f850182610693565b5060208201516106d860208501826106a2565b50505050565b5f81519050919050565b5f82825260208201905092915050565b5f819050602082019050919050565b5f6107128383610693565b60208301905092915050565b5f602082019050919050565b5f610734826106de565b61073e81856106e8565b9350610749836106f8565b805f5b838110156107795781516107608882610707565b975061076b8361071e565b92505060018101905061074c565b5085935050505092915050565b5f81519050919050565b5f82825260208201905092915050565b8281835e5f83830152505050565b5f601f19601f8301169050919050565b5f6107c882610786565b6107d28185610790565b93506107e28185602086016107a0565b6107eb816107ae565b840191505092915050565b5f60e083015f83015161080b5f860182610684565b50602083015161081e6020860182610693565b50604083015161083160408601826106b1565b50606083015161084460808601826106a2565b50608083015184820360a086015261085c828261072a565b91505060a083015184820360c086015261087682826107be565b9150508091505092915050565b5f6020820190508181035f83015261089b81846107f6565b905092915050565b5f815190506108b1816103dd565b92915050565b5f602082840312156108cc576108cb6103cc565b5b5f6108d9848285016108a3565b9150509291505056fea26469706673582212202c8a3d39e96d3e1c0877478cc15d22364aae26aa0d84670cddc603982119f97964736f6c634300081c0033","linkReferences":{}},"methodIdentifiers":{"lastMessage()":"32970710","messenger()":"3cb747bf","receiveTeleporterMessage(bytes32,address,bytes)":"c868efaa","sendMessage(address,uint256,bytes32)":"cb3bdd3c"},"id":0}