{
    "abi": [
        {
            "type": "constructor",
            "inputs": [
                {
                    "name": "teleporterRegistryAddress",
                    "type": "address",
                    "internalType": "address"
                },
                {
                    "name": "teleporterManager",
                    "type": "address",
                    "internalType": "address"
                },
                {
                    "name": "minTeleporterVersion",
                    "type": "uint256",
                    "internalType": "uint256"
                },
                {
                    "name": "wrappedTokenAddress",
                    "type": "address",
                    "internalType": "address"
                }
            ],
            "stateMutability": "nonpayable"
        },
        {
            "type": "receive",
            "stateMutability": "payable"
        },
        {
            "type": "function",
            "name": "NATIVE_TOKEN_HOME_STORAGE_LOCATION",
            "inputs": [],
            "outputs": [
                {
                    "name": "",
                    "type": "bytes32",
                    "internalType": "bytes32"
                }
            ],
            "stateMutability": "view"
        },
        {
            "type": "function",
            "name": "TELEPORTER_REGISTRY_APP_STORAGE_LOCATION",
            "inputs": [],
            "outputs": [
                {
                    "name": "",
                    "type": "bytes32",
                    "internalType": "bytes32"
                }
            ],
            "stateMutability": "view"
        },
        {
            "type": "function",
            "name": "TOKEN_HOME_STORAGE_LOCATION",
            "inputs": [],
            "outputs": [
                {
                    "name": "",
                    "type": "bytes32",
                    "internalType": "bytes32"
                }
            ],
            "stateMutability": "view"
        },
        {
            "type": "function",
            "name": "addCollateral",
            "inputs": [
                {
                    "name": "remoteBlockchainID",
                    "type": "bytes32",
                    "internalType": "bytes32"
                },
                {
                    "name": "remoteTokenTransferrerAddress",
                    "type": "address",
                    "internalType": "address"
                }
            ],
            "outputs": [],
            "stateMutability": "payable"
        },
        {
            "type": "function",
            "name": "getBlockchainID",
            "inputs": [],
            "outputs": [
                {
                    "name": "",
                    "type": "bytes32",
                    "internalType": "bytes32"
                }
            ],
            "stateMutability": "view"
        },
        {
            "type": "function",
            "name": "getMinTeleporterVersion",
            "inputs": [],
            "outputs": [
                {
                    "name": "",
                    "type": "uint256",
                    "internalType": "uint256"
                }
            ],
            "stateMutability": "view"
        },
        {
            "type": "function",
            "name": "getRemoteTokenTransferrerSettings",
            "inputs": [
                {
                    "name": "remoteBlockchainID",
                    "type": "bytes32",
                    "internalType": "bytes32"
                },
                {
                    "name": "remoteTokenTransferrerAddress",
                    "type": "address",
                    "internalType": "address"
                }
            ],
            "outputs": [
                {
                    "name": "",
                    "type": "tuple",
                    "internalType": "struct RemoteTokenTransferrerSettings",
                    "components": [
                        {
                            "name": "registered",
                            "type": "bool",
                            "internalType": "bool"
                        },
                        {
                            "name": "collateralNeeded",
                            "type": "uint256",
                            "internalType": "uint256"
                        },
                        {
                            "name": "tokenMultiplier",
                            "type": "uint256",
                            "internalType": "uint256"
                        },
                        {
                            "name": "multiplyOnRemote",
                            "type": "bool",
                            "internalType": "bool"
                        }
                    ]
                }
            ],
            "stateMutability": "view"
        },
        {
            "type": "function",
            "name": "getTokenAddress",
            "inputs": [],
            "outputs": [
                {
                    "name": "",
                    "type": "address",
                    "internalType": "address"
                }
            ],
            "stateMutability": "view"
        },
        {
            "type": "function",
            "name": "getTransferredBalance",
            "inputs": [
                {
                    "name": "remoteBlockchainID",
                    "type": "bytes32",
                    "internalType": "bytes32"
                },
                {
                    "name": "remoteTokenTransferrerAddress",
                    "type": "address",
                    "internalType": "address"
                }
            ],
            "outputs": [
                {
                    "name": "",
                    "type": "uint256",
                    "internalType": "uint256"
                }
            ],
            "stateMutability": "view"
        },
        {
            "type": "function",
            "name": "initialize",
            "inputs": [
                {
                    "name": "teleporterRegistryAddress",
                    "type": "address",
                    "internalType": "address"
                },
                {
                    "name": "teleporterManager",
                    "type": "address",
                    "internalType": "address"
                },
                {
                    "name": "minTeleporterVersion",
                    "type": "uint256",
                    "internalType": "uint256"
                },
                {
                    "name": "wrappedTokenAddress",
                    "type": "address",
                    "internalType": "address"
                }
            ],
            "outputs": [],
            "stateMutability": "nonpayable"
        },
        {
            "type": "function",
            "name": "isTeleporterAddressPaused",
            "inputs": [
                {
                    "name": "teleporterAddress",
                    "type": "address",
                    "internalType": "address"
                }
            ],
            "outputs": [
                {
                    "name": "",
                    "type": "bool",
                    "internalType": "bool"
                }
            ],
            "stateMutability": "view"
        },
        {
            "type": "function",
            "name": "owner",
            "inputs": [],
            "outputs": [
                {
                    "name": "",
                    "type": "address",
                    "internalType": "address"
                }
            ],
            "stateMutability": "view"
        },
        {
            "type": "function",
            "name": "pauseTeleporterAddress",
            "inputs": [
                {
                    "name": "teleporterAddress",
                    "type": "address",
                    "internalType": "address"
                }
            ],
            "outputs": [],
            "stateMutability": "nonpayable"
        },
        {
            "type": "function",
            "name": "receiveTeleporterMessage",
            "inputs": [
                {
                    "name": "sourceBlockchainID",
                    "type": "bytes32",
                    "internalType": "bytes32"
                },
                {
                    "name": "originSenderAddress",
                    "type": "address",
                    "internalType": "address"
                },
                {
                    "name": "message",
                    "type": "bytes",
                    "internalType": "bytes"
                }
            ],
            "outputs": [],
            "stateMutability": "nonpayable"
        },
        {
            "type": "function",
            "name": "renounceOwnership",
            "inputs": [],
            "outputs": [],
            "stateMutability": "nonpayable"
        },
        {
            "type": "function",
            "name": "send",
            "inputs": [
                {
                    "name": "input",
                    "type": "tuple",
                    "internalType": "struct SendTokensInput",
                    "components": [
                        {
                            "name": "destinationBlockchainID",
                            "type": "bytes32",
                            "internalType": "bytes32"
                        },
                        {
                            "name": "destinationTokenTransferrerAddress",
                            "type": "address",
                            "internalType": "address"
                        },
                        {
                            "name": "recipient",
                            "type": "address",
                            "internalType": "address"
                        },
                        {
                            "name": "primaryFeeTokenAddress",
                            "type": "address",
                            "internalType": "address"
                        },
                        {
                            "name": "primaryFee",
                            "type": "uint256",
                            "internalType": "uint256"
                        },
                        {
                            "name": "secondaryFee",
                            "type": "uint256",
                            "internalType": "uint256"
                        },
                        {
                            "name": "requiredGasLimit",
                            "type": "uint256",
                            "internalType": "uint256"
                        },
                        {
                            "name": "multiHopFallback",
                            "type": "address",
                            "internalType": "address"
                        }
                    ]
                }
            ],
            "outputs": [],
            "stateMutability": "payable"
        },
        {
            "type": "function",
            "name": "sendAndCall",
            "inputs": [
                {
                    "name": "input",
                    "type": "tuple",
                    "internalType": "struct SendAndCallInput",
                    "components": [
                        {
                            "name": "destinationBlockchainID",
                            "type": "bytes32",
                            "internalType": "bytes32"
                        },
                        {
                            "name": "destinationTokenTransferrerAddress",
                            "type": "address",
                            "internalType": "address"
                        },
                        {
                            "name": "recipientContract",
                            "type": "address",
                            "internalType": "address"
                        },
                        {
                            "name": "recipientPayload",
                            "type": "bytes",
                            "internalType": "bytes"
                        },
                        {
                            "name": "requiredGasLimit",
                            "type": "uint256",
                            "internalType": "uint256"
                        },
                        {
                            "name": "recipientGasLimit",
                            "type": "uint256",
                            "internalType": "uint256"
                        },
                        {
                            "name": "multiHopFallback",
                            "type": "address",
                            "internalType": "address"
                        },
                        {
                            "name": "fallbackRecipient",
                            "type": "address",
                            "internalType": "address"
                        },
                        {
                            "name": "primaryFeeTokenAddress",
                            "type": "address",
                            "internalType": "address"
                        },
                        {
                            "name": "primaryFee",
                            "type": "uint256",
                            "internalType": "uint256"
                        },
                        {
                            "name": "secondaryFee",
                            "type": "uint256",
                            "internalType": "uint256"
                        }
                    ]
                }
            ],
            "outputs": [],
            "stateMutability": "payable"
        },
        {
            "type": "function",
            "name": "transferOwnership",
            "inputs": [
                {
                    "name": "newOwner",
                    "type": "address",
                    "internalType": "address"
                }
            ],
            "outputs": [],
            "stateMutability": "nonpayable"
        },
        {
            "type": "function",
            "name": "unpauseTeleporterAddress",
            "inputs": [
                {
                    "name": "teleporterAddress",
                    "type": "address",
                    "internalType": "address"
                }
            ],
            "outputs": [],
            "stateMutability": "nonpayable"
        },
        {
            "type": "function",
            "name": "updateMinTeleporterVersion",
            "inputs": [
                {
                    "name": "version",
                    "type": "uint256",
                    "internalType": "uint256"
                }
            ],
            "outputs": [],
            "stateMutability": "nonpayable"
        },
        {
            "type": "event",
            "name": "CallFailed",
            "inputs": [
                {
                    "name": "recipientContract",
                    "type": "address",
                    "indexed": true,
                    "internalType": "address"
                },
                {
                    "name": "amount",
                    "type": "uint256",
                    "indexed": false,
                    "internalType": "uint256"
                }
            ],
            "anonymous": false
        },
        {
            "type": "event",
            "name": "CallSucceeded",
            "inputs": [
                {
                    "name": "recipientContract",
                    "type": "address",
                    "indexed": true,
                    "internalType": "address"
                },
                {
                    "name": "amount",
                    "type": "uint256",
                    "indexed": false,
                    "internalType": "uint256"
                }
            ],
            "anonymous": false
        },
        {
            "type": "event",
            "name": "CollateralAdded",
            "inputs": [
                {
                    "name": "remoteBlockchainID",
                    "type": "bytes32",
                    "indexed": true,
                    "internalType": "bytes32"
                },
                {
                    "name": "remoteTokenTransferrerAddress",
                    "type": "address",
                    "indexed": true,
                    "internalType": "address"
                },
                {
                    "name": "amount",
                    "type": "uint256",
                    "indexed": false,
                    "internalType": "uint256"
                },
                {
                    "name": "remaining",
                    "type": "uint256",
                    "indexed": false,
                    "internalType": "uint256"
                }
            ],
            "anonymous": false
        },
        {
            "type": "event",
            "name": "Initialized",
            "inputs": [
                {
                    "name": "version",
                    "type": "uint64",
                    "indexed": false,
                    "internalType": "uint64"
                }
            ],
            "anonymous": false
        },
        {
            "type": "event",
            "name": "MinTeleporterVersionUpdated",
            "inputs": [
                {
                    "name": "oldMinTeleporterVersion",
                    "type": "uint256",
                    "indexed": true,
                    "internalType": "uint256"
                },
                {
                    "name": "newMinTeleporterVersion",
                    "type": "uint256",
                    "indexed": true,
                    "internalType": "uint256"
                }
            ],
            "anonymous": false
        },
        {
            "type": "event",
            "name": "OwnershipTransferred",
            "inputs": [
                {
                    "name": "previousOwner",
                    "type": "address",
                    "indexed": true,
                    "internalType": "address"
                },
                {
                    "name": "newOwner",
                    "type": "address",
                    "indexed": true,
                    "internalType": "address"
                }
            ],
            "anonymous": false
        },
        {
            "type": "event",
            "name": "RemoteRegistered",
            "inputs": [
                {
                    "name": "remoteBlockchainID",
                    "type": "bytes32",
                    "indexed": true,
                    "internalType": "bytes32"
                },
                {
                    "name": "remoteTokenTransferrerAddress",
                    "type": "address",
                    "indexed": true,
                    "internalType": "address"
                },
                {
                    "name": "initialCollateralNeeded",
                    "type": "uint256",
                    "indexed": false,
                    "internalType": "uint256"
                },
                {
                    "name": "tokenDecimals",
                    "type": "uint8",
                    "indexed": false,
                    "internalType": "uint8"
                }
            ],
            "anonymous": false
        },
        {
            "type": "event",
            "name": "TeleporterAddressPaused",
            "inputs": [
                {
                    "name": "teleporterAddress",
                    "type": "address",
                    "indexed": true,
                    "internalType": "address"
                }
            ],
            "anonymous": false
        },
        {
            "type": "event",
            "name": "TeleporterAddressUnpaused",
            "inputs": [
                {
                    "name": "teleporterAddress",
                    "type": "address",
                    "indexed": true,
                    "internalType": "address"
                }
            ],
            "anonymous": false
        },
        {
            "type": "event",
            "name": "TokensAndCallRouted",
            "inputs": [
                {
                    "name": "teleporterMessageID",
                    "type": "bytes32",
                    "indexed": true,
                    "internalType": "bytes32"
                },
                {
                    "name": "input",
                    "type": "tuple",
                    "indexed": false,
                    "internalType": "struct SendAndCallInput",
                    "components": [
                        {
                            "name": "destinationBlockchainID",
                            "type": "bytes32",
                            "internalType": "bytes32"
                        },
                        {
                            "name": "destinationTokenTransferrerAddress",
                            "type": "address",
                            "internalType": "address"
                        },
                        {
                            "name": "recipientContract",
                            "type": "address",
                            "internalType": "address"
                        },
                        {
                            "name": "recipientPayload",
                            "type": "bytes",
                            "internalType": "bytes"
                        },
                        {
                            "name": "requiredGasLimit",
                            "type": "uint256",
                            "internalType": "uint256"
                        },
                        {
                            "name": "recipientGasLimit",
                            "type": "uint256",
                            "internalType": "uint256"
                        },
                        {
                            "name": "multiHopFallback",
                            "type": "address",
                            "internalType": "address"
                        },
                        {
                            "name": "fallbackRecipient",
                            "type": "address",
                            "internalType": "address"
                        },
                        {
                            "name": "primaryFeeTokenAddress",
                            "type": "address",
                            "internalType": "address"
                        },
                        {
                            "name": "primaryFee",
                            "type": "uint256",
                            "internalType": "uint256"
                        },
                        {
                            "name": "secondaryFee",
                            "type": "uint256",
                            "internalType": "uint256"
                        }
                    ]
                },
                {
                    "name": "amount",
                    "type": "uint256",
                    "indexed": false,
                    "internalType": "uint256"
                }
            ],
            "anonymous": false
        },
        {
            "type": "event",
            "name": "TokensAndCallSent",
            "inputs": [
                {
                    "name": "teleporterMessageID",
                    "type": "bytes32",
                    "indexed": true,
                    "internalType": "bytes32"
                },
                {
                    "name": "sender",
                    "type": "address",
                    "indexed": true,
                    "internalType": "address"
                },
                {
                    "name": "input",
                    "type": "tuple",
                    "indexed": false,
                    "internalType": "struct SendAndCallInput",
                    "components": [
                        {
                            "name": "destinationBlockchainID",
                            "type": "bytes32",
                            "internalType": "bytes32"
                        },
                        {
                            "name": "destinationTokenTransferrerAddress",
                            "type": "address",
                            "internalType": "address"
                        },
                        {
                            "name": "recipientContract",
                            "type": "address",
                            "internalType": "address"
                        },
                        {
                            "name": "recipientPayload",
                            "type": "bytes",
                            "internalType": "bytes"
                        },
                        {
                            "name": "requiredGasLimit",
                            "type": "uint256",
                            "internalType": "uint256"
                        },
                        {
                            "name": "recipientGasLimit",
                            "type": "uint256",
                            "internalType": "uint256"
                        },
                        {
                            "name": "multiHopFallback",
                            "type": "address",
                            "internalType": "address"
                        },
                        {
                            "name": "fallbackRecipient",
                            "type": "address",
                            "internalType": "address"
                        },
                        {
                            "name": "primaryFeeTokenAddress",
                            "type": "address",
                            "internalType": "address"
                        },
                        {
                            "name": "primaryFee",
                            "type": "uint256",
                            "internalType": "uint256"
                        },
                        {
                            "name": "secondaryFee",
                            "type": "uint256",
                            "internalType": "uint256"
                        }
                    ]
                },
                {
                    "name": "amount",
                    "type": "uint256",
                    "indexed": false,
                    "internalType": "uint256"
                }
            ],
            "anonymous": false
        },
        {
            "type": "event",
            "name": "TokensRouted",
            "inputs": [
                {
                    "name": "teleporterMessageID",
                    "type": "bytes32",
                    "indexed": true,
                    "internalType": "bytes32"
                },
                {
                    "name": "input",
                    "type": "tuple",
                    "indexed": false,
                    "internalType": "struct SendTokensInput",
                    "components": [
                        {
                            "name": "destinationBlockchainID",
                            "type": "bytes32",
                            "internalType": "bytes32"
                        },
                        {
                            "name": "destinationTokenTransferrerAddress",
                            "type": "address",
                            "internalType": "address"
                        },
                        {
                            "name": "recipient",
                            "type": "address",
                            "internalType": "address"
                        },
                        {
                            "name": "primaryFeeTokenAddress",
                            "type": "address",
                            "internalType": "address"
                        },
                        {
                            "name": "primaryFee",
                            "type": "uint256",
                            "internalType": "uint256"
                        },
                        {
                            "name": "secondaryFee",
                            "type": "uint256",
                            "internalType": "uint256"
                        },
                        {
                            "name": "requiredGasLimit",
                            "type": "uint256",
                            "internalType": "uint256"
                        },
                        {
                            "name": "multiHopFallback",
                            "type": "address",
                            "internalType": "address"
                        }
                    ]
                },
                {
                    "name": "amount",
                    "type": "uint256",
                    "indexed": false,
                    "internalType": "uint256"
                }
            ],
            "anonymous": false
        },
        {
            "type": "event",
            "name": "TokensSent",
            "inputs": [
                {
                    "name": "teleporterMessageID",
                    "type": "bytes32",
                    "indexed": true,
                    "internalType": "bytes32"
                },
                {
                    "name": "sender",
                    "type": "address",
                    "indexed": true,
                    "internalType": "address"
                },
                {
                    "name": "input",
                    "type": "tuple",
                    "indexed": false,
                    "internalType": "struct SendTokensInput",
                    "components": [
                        {
                            "name": "destinationBlockchainID",
                            "type": "bytes32",
                            "internalType": "bytes32"
                        },
                        {
                            "name": "destinationTokenTransferrerAddress",
                            "type": "address",
                            "internalType": "address"
                        },
                        {
                            "name": "recipient",
                            "type": "address",
                            "internalType": "address"
                        },
                        {
                            "name": "primaryFeeTokenAddress",
                            "type": "address",
                            "internalType": "address"
                        },
                        {
                            "name": "primaryFee",
                            "type": "uint256",
                            "internalType": "uint256"
                        },
                        {
                            "name": "secondaryFee",
                            "type": "uint256",
                            "internalType": "uint256"
                        },
                        {
                            "name": "requiredGasLimit",
                            "type": "uint256",
                            "internalType": "uint256"
                        },
                        {
                            "name": "multiHopFallback",
                            "type": "address",
                            "internalType": "address"
                        }
                    ]
                },
                {
                    "name": "amount",
                    "type": "uint256",
                    "indexed": false,
                    "internalType": "uint256"
                }
            ],
            "anonymous": false
        },
        {
            "type": "event",
            "name": "TokensWithdrawn",
            "inputs": [
                {
                    "name": "recipient",
                    "type": "address",
                    "indexed": true,
                    "internalType": "address"
                },
                {
                    "name": "amount",
                    "type": "uint256",
                    "indexed": false,
                    "internalType": "uint256"
                }
            ],
            "anonymous": false
        },
        {
            "type": "error",
            "name": "AddressEmptyCode",
            "inputs": [
                {
                    "name": "target",
                    "type": "address",
                    "internalType": "address"
                }
            ]
        },
        {
            "type": "error",
            "name": "AddressInsufficientBalance",
            "inputs": [
                {
                    "name": "account",
                    "type": "address",
                    "internalType": "address"
                }
            ]
        },
        {
            "type": "error",
            "name": "FailedInnerCall",
            "inputs": []
        },
        {
            "type": "error",
            "name": "InvalidInitialization",
            "inputs": []
        },
        {
            "type": "error",
            "name": "NotInitializing",
            "inputs": []
        },
        {
            "type": "error",
            "name": "OwnableInvalidOwner",
            "inputs": [
                {
                    "name": "owner",
                    "type": "address",
                    "internalType": "address"
                }
            ]
        },
        {
            "type": "error",
            "name": "OwnableUnauthorizedAccount",
            "inputs": [
                {
                    "name": "account",
                    "type": "address",
                    "internalType": "address"
                }
            ]
        },
        {
            "type": "error",
            "name": "ReentrancyGuardReentrantCall",
            "inputs": []
        },
        {
            "type": "error",
            "name": "SafeERC20FailedOperation",
            "inputs": [
                {
                    "name": "token",
                    "type": "address",
                    "internalType": "address"
                }
            ]
        }
    ],
    "bytecode": {
        "object": "0x608060405234801561000f575f80fd5b5060405161528538038061528583398101604081905261002e91610890565b61003a84848484610046565b505050506108f1565b50565b7ff0c57e16840df040f15088dc2f81fe391c3923bec73e23a9662efc9c229c6a00805468010000000000000000810460ff1615906001600160401b03165f8115801561008f5750825b90505f826001600160401b031660011480156100aa5750303b155b9050811580156100b8575080155b156100d65760405163f92ee8a960e01b815260040160405180910390fd5b84546001600160401b0319166001178555831561010457845460ff60401b1916680100000000000000001785555b61011089898989610161565b831561015657845460ff60401b19168555604051600181527fc7f505b2f371ae2175ee4913f4499e1f2633a7b5936321eed1cdaeb6115181d29060200160405180910390a15b505050505050505050565b610169610186565b6101778484848460126101d6565b61018081610202565b50505050565b7ff0c57e16840df040f15088dc2f81fe391c3923bec73e23a9662efc9c229c6a005468010000000000000000900460ff166101d457604051631afcd79f60e31b815260040160405180910390fd5b565b6101de610186565b6101e985858561024b565b6101f161026b565b6101fb828261027b565b5050505050565b61020a610186565b7f3b5030f10c94fcbdaa3022348ff0b82dbd4c0c71339e41ff59d0bdc92179d60080546001600160a01b0319166001600160a01b0392909216919091179055565b610253610186565b61025d8382610407565b6102668261042d565b505050565b610273610186565b6101d461043e565b610283610186565b6001600160a01b0382166102de5760405162461bcd60e51b815260206004820152601d60248201527f546f6b656e486f6d653a207a65726f20746f6b656e206164647265737300000060448201526064015b60405180910390fd5b60128160ff16111561033d5760405162461bcd60e51b815260206004820152602260248201527f546f6b656e486f6d653a20746f6b656e20646563696d616c7320746f6f2068696044820152610ced60f31b60648201526084016102d5565b5f7f9316912b5a9db88acbe872c934fdd0a46c436c6dcba332d649c4d57c7bc9e60090507302000000000000000000000000000000000000056001600160a01b0316634213cf786040518163ffffffff1660e01b8152600401602060405180830381865afa1580156103b1573d5f803e3d5ffd5b505050506040513d601f19601f820116820180604052508101906103d591906108da565b8155600101805460ff909216600160a01b026001600160a81b03199092166001600160a01b0390931692909217179055565b61040f610186565b610417610468565b61041f610478565b6104298282610480565b5050565b610435610186565b61004381610604565b5f7fd2f1ed38b7d242bfb8b41862afb813a15193219a4bc717f2056607593e6c75005b6001905550565b610470610186565b6101d461063e565b6101d4610186565b610488610186565b6001600160a01b0382166105045760405162461bcd60e51b815260206004820152603760248201527f54656c65706f7274657252656769737472794170703a207a65726f2054656c6560448201527f706f72746572207265676973747279206164647265737300000000000000000060648201526084016102d5565b5f7fde77a4dc7391f6f8f2d9567915d687d3aee79e7a1fc7300392f2727e9a0f1d0090505f8390505f816001600160a01b031663c07f47d46040518163ffffffff1660e01b8152600401602060405180830381865afa158015610569573d5f803e3d5ffd5b505050506040513d601f19601f8201168201806040525081019061058d91906108da565b116105e25760405162461bcd60e51b815260206004820152603260248201525f80516020615265833981519152604482015271656c65706f7274657220726567697374727960701b60648201526084016102d5565b81546001600160a01b0319166001600160a01b0382161782556101808361066d565b61060c610186565b6001600160a01b03811661063557604051631e4fbdf760e01b81525f60048201526024016102d5565b61004381610805565b610646610186565b5f7f9b779b17422d0df92223018b32b4d1fa46e071723d6817e2486d003becc55f00610461565b7fde77a4dc7391f6f8f2d9567915d687d3aee79e7a1fc7300392f2727e9a0f1d0080546040805163301fd1f560e21b815290515f926001600160a01b03169163c07f47d49160048083019260209291908290030181865afa1580156106d4573d5f803e3d5ffd5b505050506040513d601f19601f820116820180604052508101906106f891906108da565b6002830154909150818411156107575760405162461bcd60e51b815260206004820152603160248201525f8051602061526583398151915260448201527032b632b837b93a32b9103b32b939b4b7b760791b60648201526084016102d5565b8084116107cc5760405162461bcd60e51b815260206004820152603f60248201527f54656c65706f7274657252656769737472794170703a206e6f7420677265617460448201527f6572207468616e2063757272656e74206d696e696d756d2076657273696f6e0060648201526084016102d5565b60028301849055604051849082907fa9a7ef57e41f05b4c15480842f5f0c27edfcbb553fed281f7c4068452cc1c02d905f90a350505050565b7f9016d09d72d40fdae2fd8ceac6b6234c7706214fd39c1cd1e609a0528c19930080546001600160a01b031981166001600160a01b03848116918217845560405192169182907f8be0079c531659141344cd1fd0a4f28419497f9722a3daafe3b4186f6b6457e0905f90a3505050565b80516001600160a01b038116811461088b575f80fd5b919050565b5f805f80608085870312156108a3575f80fd5b6108ac85610875565b93506108ba60208601610875565b9250604085015191506108cf60608601610875565b905092959194509250565b5f602082840312156108ea575f80fd5b5051919050565b614967806108fe5f395ff3fe60806040526004361061011e575f3560e01c80638da5cb5b1161009d578063c8511ada11610062578063c8511ada146103c2578063c868efaa146104a2578063d2cc7a70146104c1578063efb5b95e146104f4578063f2fde38b14610514575f80fd5b80638da5cb5b14610305578063909a6ac0146103415780639731429714610361578063b0b78b2614610390578063be203094146103a3575f80fd5b80635eb99514116100e35780635eb995141461028c57806362e3901b146102ab5780636e6eef8d146102cb578063715018a6146102de5780638bf2fa94146102f2575f80fd5b806310fe9ae8146101ac578063154d625a146102015780632b0d8f181461022e5780634213cf781461024d5780634511243e1461026d575f80fd5b366101a8575f805160206148db833981519152546001600160a01b031633146101a65760405162461bcd60e51b815260206004820152602f60248201527f4e6174697665546f6b656e486f6d653a20696e76616c6964207265636569766560448201526e103830bcb0b136329039b2b73232b960891b60648201526084015b60405180910390fd5b005b5f80fd5b3480156101b7575f80fd5b507f9316912b5a9db88acbe872c934fdd0a46c436c6dcba332d649c4d57c7bc9e601546001600160a01b03165b6040516001600160a01b0390911681526020015b60405180910390f35b34801561020c575f80fd5b5061022061021b3660046139b3565b610533565b6040519081526020016101f8565b348015610239575f80fd5b506101a66102483660046139e1565b61057b565b348015610258575f80fd5b505f805160206148bb83398151915254610220565b348015610278575f80fd5b506101a66102873660046139e1565b610674565b348015610297575f80fd5b506101a66102a63660046139fc565b610763565b3480156102b6575f80fd5b506102205f805160206148bb83398151915281565b6101a66102d9366004613a13565b610777565b3480156102e9575f80fd5b506101a66107a0565b6101a6610300366004613a4a565b6107b3565b348015610310575f80fd5b507f9016d09d72d40fdae2fd8ceac6b6234c7706214fd39c1cd1e609a0528c199300546001600160a01b03166101e4565b34801561034c575f80fd5b506102205f8051602061493b83398151915281565b34801561036c575f80fd5b5061038061037b3660046139e1565b6107cb565b60405190151581526020016101f8565b6101a661039e3660046139b3565b6107eb565b3480156103ae575f80fd5b506101a66103bd366004613a61565b6107fa565b3480156103cd575f80fd5b5061046b6103dc3660046139b3565b60408051608080820183525f808352602080840182905283850182905260609384018290529581525f805160206148fb83398151915286528381206001600160a01b039590951681529385529282902082519384018352805460ff9081161515855260018201549585019590955260028101549284019290925260039091015490921615159181019190915290565b6040516101f89190815115158152602080830151908201526040808301519082015260609182015115159181019190915260800190565b3480156104ad575f80fd5b506101a66104bc366004613ab1565b61090c565b3480156104cc575f80fd5b507fde77a4dc7391f6f8f2d9567915d687d3aee79e7a1fc7300392f2727e9a0f1d0254610220565b3480156104ff575f80fd5b506102205f805160206148db83398151915281565b34801561051f575f80fd5b506101a661052e3660046139e1565b610ac9565b5f8281527f9316912b5a9db88acbe872c934fdd0a46c436c6dcba332d649c4d57c7bc9e603602090815260408083206001600160a01b03851684529091529020545b92915050565b5f8051602061493b833981519152610591610b03565b6001600160a01b0382166105b75760405162461bcd60e51b815260040161019d90613b32565b6105c18183610b0b565b156106245760405162461bcd60e51b815260206004820152602d60248201527f54656c65706f7274657252656769737472794170703a2061646472657373206160448201526c1b1c9958591e481c185d5cd959609a1b606482015260840161019d565b6001600160a01b0382165f81815260018381016020526040808320805460ff1916909217909155517f933f93e57a222e6330362af8b376d0a8725b6901e9a2fb86d00f169702b28a4c9190a25050565b5f8051602061493b83398151915261068a610b03565b6001600160a01b0382166106b05760405162461bcd60e51b815260040161019d90613b32565b6106ba8183610b0b565b6107185760405162461bcd60e51b815260206004820152602960248201527f54656c65706f7274657252656769737472794170703a2061646472657373206e6044820152681bdd081c185d5cd95960ba1b606482015260840161019d565b6001600160a01b0382165f818152600183016020526040808220805460ff19169055517f844e2f3154214672229235858fd029d1dfd543901c6d05931f0bc2480a2d72c39190a25050565b61076b610b03565b61077481610b2c565b50565b61077461078f5f805160206148bb8339815191525490565b303361079a85613caa565b34610cc4565b6107a8610f27565b6107b15f610f82565b565b6107746107c536839003830183613d78565b34610ff2565b5f5f8051602061493b8339815191526107e48184610b0b565b9392505050565b6107f68282346111ac565b5050565b7ff0c57e16840df040f15088dc2f81fe391c3923bec73e23a9662efc9c229c6a008054600160401b810460ff1615906001600160401b03165f8115801561083e5750825b90505f826001600160401b031660011480156108595750303b155b905081158015610867575080155b156108855760405163f92ee8a960e01b815260040160405180910390fd5b845467ffffffffffffffff1916600117855583156108af57845460ff60401b1916600160401b1785555b6108bb8989898961139c565b831561090157845460ff60401b19168555604051600181527fc7f505b2f371ae2175ee4913f4499e1f2633a7b5936321eed1cdaeb6115181d29060200160405180910390a15b505050505050505050565b6109146113bb565b5f5f8051602061493b83398151915260028101548154919250906001600160a01b0316634c1f08ce336040516001600160e01b031960e084901b1681526001600160a01b039091166004820152602401602060405180830381865afa15801561097f573d5f803e3d5ffd5b505050506040513d601f19601f820116820180604052508101906109a39190613e02565b1015610a0a5760405162461bcd60e51b815260206004820152603060248201527f54656c65706f7274657252656769737472794170703a20696e76616c6964205460448201526f32b632b837b93a32b91039b2b73232b960811b606482015260840161019d565b610a148133610b0b565b15610a7a5760405162461bcd60e51b815260206004820152603060248201527f54656c65706f7274657252656769737472794170703a2054656c65706f72746560448201526f1c881859191c995cdcc81c185d5cd95960821b606482015260840161019d565b610aba858585858080601f0160208091040260200160405190810160405280939291908181526020018383808284375f9201919091525061140592505050565b50610ac36117f9565b50505050565b610ad1610f27565b6001600160a01b038116610afa57604051631e4fbdf760e01b81525f600482015260240161019d565b61077481610f82565b6107b1610f27565b6001600160a01b03165f908152600191909101602052604090205460ff1690565b5f8051602061493b83398151915280546040805163301fd1f560e21b815290515f926001600160a01b03169163c07f47d49160048083019260209291908290030181865afa158015610b80573d5f803e3d5ffd5b505050506040513d601f19601f82011682018060405250810190610ba49190613e02565b600283015490915081841115610c165760405162461bcd60e51b815260206004820152603160248201527f54656c65706f7274657252656769737472794170703a20696e76616c6964205460448201527032b632b837b93a32b9103b32b939b4b7b760791b606482015260840161019d565b808411610c8b5760405162461bcd60e51b815260206004820152603f60248201527f54656c65706f7274657252656769737472794170703a206e6f7420677265617460448201527f6572207468616e2063757272656e74206d696e696d756d2076657273696f6e00606482015260840161019d565b60028301849055604051849082907fa9a7ef57e41f05b4c15480842f5f0c27edfcbb553fed281f7c4068452cc1c02d905f90a350505050565b5f8051602061491b8339815191528054600114610cf35760405162461bcd60e51b815260040161019d90613e19565b60028155610d0083611823565b60c08301516001600160a01b031615610d2b5760405162461bcd60e51b815260040161019d90613e5d565b5f80610d4b855f0151866020015186886101000151896101200151611a08565b915091505f604051806040016040528060026004811115610d6e57610d6e613ea3565b81526020016040518061010001604052808c81526020018b6001600160a01b031681526020018a6001600160a01b0316815260200189604001516001600160a01b03168152602001868152602001896060015181526020018960a0015181526020018960e001516001600160a01b0316815250604051602001610df19190613f04565b60405160208183030381529060405281525090505f610ed16040518060c00160405280895f0151815260200189602001516001600160a01b0316815260200160405180604001604052808b61010001516001600160a01b03168152602001878152508152602001896080015181526020015f6001600160401b03811115610e7a57610e7a613b80565b604051908082528060200260200182016040528015610ea3578160200160208202803683370190505b50815260200184604051602001610eba9190613fa2565b604051602081830303815290604052815250611bcd565b9050876001600160a01b0316817f5d76dff81bf773b908b050fa113d39f7d8135bb4175398f313ea19cd3a1a0b168987604051610f0f929190613fe4565b60405180910390a35050600190925550505050505050565b33610f597f9016d09d72d40fdae2fd8ceac6b6234c7706214fd39c1cd1e609a0528c199300546001600160a01b031690565b6001600160a01b0316146107b15760405163118cdaa760e01b815233600482015260240161019d565b7f9016d09d72d40fdae2fd8ceac6b6234c7706214fd39c1cd1e609a0528c19930080546001600160a01b031981166001600160a01b03848116918217845560405192169182907f8be0079c531659141344cd1fd0a4f28419497f9722a3daafe3b4186f6b6457e0905f90a3505050565b5f8051602061491b83398151915280546001146110215760405162461bcd60e51b815260040161019d90613e19565b6002815561102e83611ce8565b60e08301516001600160a01b0316156110595760405162461bcd60e51b815260040161019d90613e5d565b5f80611077855f015186602001518688606001518960800151611a08565b915091505f60405180604001604052806001600481111561109a5761109a613ea3565b8152602001604051806040016040528089604001516001600160a01b03168152602001868152506040516020016110d191906140c6565b60405160208183030381529060405281525090505f6111596040518060c00160405280895f0151815260200189602001516001600160a01b0316815260200160405180604001604052808b606001516001600160a01b031681526020018781525081526020018960c0015181526020015f6001600160401b03811115610e7a57610e7a613b80565b9050336001600160a01b0316817f93f19bf1ec58a15dc643b37e7e18a1c13e85e06cd11929e283154691ace9fb5289876040516111979291906140e6565b60405180910390a35050600190925550505050565b5f8051602061491b83398151915280546001146111db5760405162461bcd60e51b815260040161019d90613e19565b60028082555f8581525f805160206148fb833981519152602090815260408083206001600160a01b03881684528252918290208251608081018452815460ff9081161515808352600184015494830194909452948201549381019390935260030154909216151560608201525f805160206148bb833981519152916112725760405162461bcd60e51b815260040161019d90614167565b5f8160200151116112cf5760405162461bcd60e51b815260206004820152602160248201527f546f6b656e486f6d653a207a65726f20636f6c6c61746572616c206e656564656044820152601960fa1b606482015260840161019d565b6112d884611d91565b93505f80826020015186106113075760208301515f92506112f990876141b0565b90508260200151955061131a565b85836020015161131791906141b0565b91505b5f88815260028501602090815260408083206001600160a01b038b168085529083529281902060010185905580518981529182018590528a917f6769a5f9bfc8b6e0db839ab981cbf9239274ae72d2d035081a9157d43bd33cb6910160405180910390a3801561138e5761138e3382611db7565b505060019092555050505050565b6113a4611e75565b6113b2848484846012611ebe565b610ac381611ee3565b7f9b779b17422d0df92223018b32b4d1fa46e071723d6817e2486d003becc55f008054600119016113ff57604051633ee5aeb560e01b815260040160405180910390fd5b60029055565b5f5f805160206148bb83398151915290505f8280602001905181019061142b9190614205565b905060018151600481111561144257611442613ea3565b0361148a575f8160200151806020019051810190611460919061428d565b90505f61147287878460200151611f19565b9050611481825f015182611db7565b50505050505050565b60028151600481111561149f5761149f613ea3565b036115b8575f81602001518060200190518101906114bd91906142c5565b90505f6114cf87878460800151611f19565b825190915087146115355760405162461bcd60e51b815260206004820152602a60248201527f546f6b656e486f6d653a206d69736d61746368656420736f7572636520626c6f60448201526918dad8da185a5b88125160b21b606482015260840161019d565b856001600160a01b031682602001516001600160a01b0316146115ae5760405162461bcd60e51b815260206004820152602b60248201527f546f6b656e486f6d653a206d69736d617463686564206f726967696e2073656e60448201526a646572206164647265737360a81b606482015260840161019d565b6114818282611fa4565b6003815160048111156115cd576115cd613ea3565b036116a1575f81602001518060200190518101906115eb919061438f565b90505f8061160388888560600151866080015161212a565b91509150611697604051806101000160405280855f0151815260200185602001516001600160a01b0316815260200185604001516001600160a01b03168152602001876001015f9054906101000a90046001600160a01b03166001600160a01b031681526020018381526020015f81526020018560a0015181526020018560c001516001600160a01b0316815250836121d5565b5050505050505050565b6004815160048111156116b6576116b6613ea3565b036117b1575f81602001518060200190518101906116d49190614428565b90505f806116ed8888856080015186610140015161212a565b915091506116978888855f01516040518061016001604052808860200151815260200188604001516001600160a01b0316815260200188606001516001600160a01b031681526020018860a00151815260200188610100015181526020018860c0015181526020018861012001516001600160a01b031681526020018860e001516001600160a01b031681526020018a6001015f9054906101000a90046001600160a01b03166001600160a01b031681526020018681526020015f81525086612360565b5f815160048111156117c5576117c5613ea3565b036117f2575f81602001518060200190518101906117e39190614530565b90506117f086868361253d565b505b5050505050565b5f7f9b779b17422d0df92223018b32b4d1fa46e071723d6817e2486d003becc55f005b6001905550565b60408101516001600160a01b03166118905760405162461bcd60e51b815260206004820152602a60248201527f546f6b656e486f6d653a207a65726f20726563697069656e7420636f6e7472616044820152696374206164647265737360b01b606482015260840161019d565b5f8160800151116118b35760405162461bcd60e51b815260040161019d90614592565b5f8160a00151116119125760405162461bcd60e51b815260206004820152602360248201527f546f6b656e486f6d653a207a65726f20726563697069656e7420676173206c696044820152621b5a5d60ea1b606482015260840161019d565b80608001518160a00151106119785760405162461bcd60e51b815260206004820152602660248201527f546f6b656e486f6d653a20696e76616c696420726563697069656e7420676173604482015265081b1a5b5a5d60d21b606482015260840161019d565b60e08101516001600160a01b03166119e55760405162461bcd60e51b815260206004820152602a60248201527f546f6b656e486f6d653a207a65726f2066616c6c6261636b20726563697069656044820152696e74206164647265737360b01b606482015260840161019d565b610140810151156107745760405162461bcd60e51b815260040161019d906145d4565b5f8581525f805160206148fb833981519152602090815260408083206001600160a01b038816845282528083208151608081018352815460ff90811615158083526001840154958301959095526002830154938201939093526003909101549091161515606082015282915f805160206148bb8339815191529190611a9f5760405162461bcd60e51b815260040161019d90614167565b602081015115611b015760405162461bcd60e51b815260206004820152602760248201527f546f6b656e486f6d653a20636f6c6c61746572616c206e656564656420666f726044820152662072656d6f746560c81b606482015260840161019d565b611b0a87611d91565b96508415611b2057611b1d863387612944565b94505b5f611b34826040015183606001518a612a9d565b90505f8111611b855760405162461bcd60e51b815260206004820152601d60248201527f546f6b656e486f6d653a207a65726f207363616c656420616d6f756e74000000604482015260640161019d565b5f8a815260038401602090815260408083206001600160a01b038d16845290915281208054839290611bb8908490614615565b90915550909a95995094975050505050505050565b5f80611bd7612ab3565b60408401516020015190915015611c7c576040830151516001600160a01b0316611c595760405162461bcd60e51b815260206004820152602d60248201527f54656c65706f7274657252656769737472794170703a207a65726f206665652060448201526c746f6b656e206164647265737360981b606482015260840161019d565b604083015160208101519051611c7c916001600160a01b03909116908390612ba3565b604051630624488560e41b81526001600160a01b03821690636244885090611ca8908690600401614628565b6020604051808303815f875af1158015611cc4573d5f803e3d5ffd5b505050506040513d601f19601f820116820180604052508101906107e49190613e02565b60408101516001600160a01b0316611d4c5760405162461bcd60e51b815260206004820152602160248201527f546f6b656e486f6d653a207a65726f20726563697069656e74206164647265736044820152607360f81b606482015260840161019d565b5f8160c0015111611d6f5760405162461bcd60e51b815260040161019d90614592565b60a0810151156107745760405162461bcd60e51b815260040161019d906145d4565b5f805160206148db83398151915280545f91906107e4906001600160a01b031684612c2a565b6040518181525f805160206148db833981519152906001600160a01b038416907f6352c5382c4a4578e712449ca65e83cdb392d045dfcf1cad9615189db2da244b9060200160405180910390a28054604051632e1a7d4d60e01b8152600481018490526001600160a01b0390911690632e1a7d4d906024015f604051808303815f87803b158015611e46575f80fd5b505af1158015611e58573d5f803e3d5ffd5b50611e70925050506001600160a01b03841683612dcf565b505050565b7ff0c57e16840df040f15088dc2f81fe391c3923bec73e23a9662efc9c229c6a0054600160401b900460ff166107b157604051631afcd79f60e31b815260040160405180910390fd5b611ec6611e75565b611ed1858585612e62565b611ed9612e7d565b6117f28282612e8d565b611eeb611e75565b5f805160206148db83398151915280546001600160a01b0319166001600160a01b0392909216919091179055565b5f8381525f805160206148fb833981519152602090815260408083206001600160a01b038616845282528083208151608081018352815460ff9081161515825260018301549482019490945260028201549281019290925260030154909116151560608201525f805160206148bb83398151915290611f9a81878787612ff4565b9695505050505050565b5f5f805160206148db8339815191528054604051632e1a7d4d60e01b8152600481018590529192506001600160a01b031690632e1a7d4d906024015f604051808303815f87803b158015611ff6575f80fd5b505af1158015612008573d5f803e3d5ffd5b50508451602086015160408088015160a089015191515f965061203195509091906024016146df565b60408051601f198184030181529190526020810180516001600160e01b031663161b12ff60e11b17905260c085015160608601519192505f9161207791908690856130e2565b905080156120cb5784606001516001600160a01b03167f104deb555f67e63782bb817bc26c39050894645f9b9f29c4be8ae68d0e8b7ff4856040516120be91815260200190565b60405180910390a26117f2565b84606001516001600160a01b03167fb9eaeae386d339f8115782f297a9e5f0e13fb587cd6b0d502f113cb8dd4d6cb08560405161210a91815260200190565b60405180910390a260e08501516117f2906001600160a01b031685612dcf565b5f8481525f805160206148fb833981519152602090815260408083206001600160a01b038716845282528083208151608081018352815460ff90811615158252600183015494820194909452600282015492810192909252600301549091161515606082015281905f805160206148bb83398151915290826121ae828a8a8a612ff4565b90505f6121c483604001518460600151896131b2565b919a91995090975050505050505050565b5f8051602061491b83398151915280546001146122045760405162461bcd60e51b815260040161019d90613e19565b6002815561221183611ce8565b5f612229845f015185602001518587608001516131bf565b9050805f03612246576122408460e0015184611db7565b50612358565b604080518082019091525f908060018152602001604051806040016040528088604001516001600160a01b031681526020018581525060405160200161228c91906140c6565b60405160208183030381529060405281525090505f6123186040518060c00160405280885f0151815260200188602001516001600160a01b0316815260200160405180604001604052808a606001516001600160a01b031681526020018a6080015181525081526020018860c0015181526020015f6001600160401b03811115610e7a57610e7a613b80565b9050807f825080857c76cef4a1629c0705a7f8b4ef0282ddcafde0b6715c4fb34b68aaf0878560405161234c9291906140e6565b60405180910390a25050505b600190555050565b5f8051602061491b833981519152805460011461238f5760405162461bcd60e51b815260040161019d90613e19565b6002815561239c83611823565b5f6123b5845f01518560200151858761012001516131bf565b9050805f036123d2576123cc8460c0015184611db7565b50612532565b604080518082019091525f9080600281526020016040518061010001604052808b81526020018a6001600160a01b03168152602001896001600160a01b0316815260200188604001516001600160a01b03168152602001858152602001886060015181526020018860a0015181526020018860e001516001600160a01b03168152506040516020016124649190613f04565b60405160208183030381529060405281525090505f6124f26040518060c00160405280885f0151815260200188602001516001600160a01b0316815260200160405180604001604052808a61010001516001600160a01b031681526020018a61012001518152508152602001886080015181526020015f6001600160401b03811115610e7a57610e7a613b80565b9050807f42eff9005856e3c586b096d67211a566dc926052119fd7cc08023c70937ecb308785604051612526929190613fe4565b60405180910390a25050505b600190555050505050565b5f805160206148bb833981519152836125a45760405162461bcd60e51b8152602060048201526024808201527f546f6b656e486f6d653a207a65726f2072656d6f746520626c6f636b636861696044820152631b88125160e21b606482015260840161019d565b8054840361260c5760405162461bcd60e51b815260206004820152602f60248201527f546f6b656e486f6d653a2063616e6e6f742072656769737465722072656d6f7460448201526e329037b71039b0b6b29031b430b4b760891b606482015260840161019d565b6001600160a01b03831661267b5760405162461bcd60e51b815260206004820152603060248201527f546f6b656e486f6d653a207a65726f2072656d6f746520746f6b656e2074726160448201526f6e73666572726572206164647265737360801b606482015260840161019d565b5f84815260028201602090815260408083206001600160a01b038716845290915290205460ff16156126fb5760405162461bcd60e51b8152602060048201526024808201527f546f6b656e486f6d653a2072656d6f746520616c726561647920726567697374604482015263195c995960e21b606482015260840161019d565b6012826040015160ff1611156127655760405162461bcd60e51b815260206004820152602960248201527f546f6b656e486f6d653a2072656d6f746520746f6b656e20646563696d616c73604482015268040e8dede40d0d2ced60bb1b606482015260840161019d565b6001810154602083015160ff908116600160a01b90920416146127d95760405162461bcd60e51b815260206004820152602660248201527f546f6b656e486f6d653a20696e76616c696420686f6d6520746f6b656e20646560448201526563696d616c7360d01b606482015260840161019d565b5f806127fa8360010160149054906101000a900460ff168560400151613330565b915091505f61280d8383875f01516131b2565b905081801561282757508451612824908490614724565b15155b1561283a57612837600182614615565b90505b6040518060800160405280600115158152602001828152602001848152602001831515815250846002015f8981526020019081526020015f205f886001600160a01b03166001600160a01b031681526020019081526020015f205f820151815f015f6101000a81548160ff02191690831515021790555060208201518160010155604082015181600201556060820151816003015f6101000a81548160ff021916908315150217905550905050856001600160a01b0316877ff229b02a51a4c8d5ef03a096ae0dd727d7b48b710d21b50ebebb560eef739b9083886040015160405161293392919091825260ff16602082015260400190565b60405180910390a350505050505050565b6040516370a0823160e01b81523060048201525f9081906001600160a01b038616906370a0823190602401602060405180830381865afa15801561298a573d5f803e3d5ffd5b505050506040513d601f19601f820116820180604052508101906129ae9190613e02565b90506129c56001600160a01b038616853086613378565b6040516370a0823160e01b81523060048201525f906001600160a01b038716906370a0823190602401602060405180830381865afa158015612a09573d5f803e3d5ffd5b505050506040513d601f19601f82011682018060405250810190612a2d9190613e02565b9050818111612a935760405162461bcd60e51b815260206004820152602c60248201527f5361666545524332305472616e7366657246726f6d3a2062616c616e6365206e60448201526b1bdd081a5b98dc99585cd95960a21b606482015260840161019d565b611f9a82826141b0565b5f612aab84848460016133df565b949350505050565b5f8051602061493b83398151915280546040805163d820e64f60e01b815290515f939284926001600160a01b039091169163d820e64f916004808201926020929091908290030181865afa158015612b0d573d5f803e3d5ffd5b505050506040513d601f19601f82011682018060405250810190612b319190614737565b9050612b3d8282610b0b565b156105755760405162461bcd60e51b815260206004820152603060248201527f54656c65706f7274657252656769737472794170703a2054656c65706f72746560448201526f1c881cd95b991a5b99c81c185d5cd95960821b606482015260840161019d565b604051636eb1769f60e11b81523060048201526001600160a01b0383811660248301525f919085169063dd62ed3e90604401602060405180830381865afa158015612bf0573d5f803e3d5ffd5b505050506040513d601f19601f82011682018060405250810190612c149190613e02565b9050610ac38484612c258585614615565b613406565b6040516370a0823160e01b81523060048201525f9081906001600160a01b038516906370a0823190602401602060405180830381865afa158015612c70573d5f803e3d5ffd5b505050506040513d601f19601f82011682018060405250810190612c949190613e02565b9050836001600160a01b031663d0e30db0846040518263ffffffff1660e01b81526004015f604051808303818588803b158015612ccf575f80fd5b505af1158015612ce1573d5f803e3d5ffd5b50506040516370a0823160e01b81523060048201525f93506001600160a01b03881692506370a082319150602401602060405180830381865afa158015612d2a573d5f803e3d5ffd5b505050506040513d601f19601f82011682018060405250810190612d4e9190613e02565b9050818111612dbc5760405162461bcd60e51b815260206004820152603460248201527f53616665577261707065644e6174697665546f6b656e4465706f7369743a2062604482015273185b185b98d9481b9bdd081a5b98dc99585cd95960621b606482015260840161019d565b612dc682826141b0565b95945050505050565b80471015612df25760405163cd78605960e01b815230600482015260240161019d565b5f826001600160a01b0316826040515f6040518083038185875af1925050503d805f8114612e3b576040519150601f19603f3d011682016040523d82523d5f602084013e612e40565b606091505b5050905080611e7057604051630a12f52160e11b815260040160405180910390fd5b612e6a611e75565b612e748382613495565b611e70826134b7565b612e85611e75565b6107b16134c8565b612e95611e75565b6001600160a01b038216612eeb5760405162461bcd60e51b815260206004820152601d60248201527f546f6b656e486f6d653a207a65726f20746f6b656e2061646472657373000000604482015260640161019d565b60128160ff161115612f4a5760405162461bcd60e51b815260206004820152602260248201527f546f6b656e486f6d653a20746f6b656e20646563696d616c7320746f6f2068696044820152610ced60f31b606482015260840161019d565b5f5f805160206148bb83398151915290506005600160991b016001600160a01b0316634213cf786040518163ffffffff1660e01b8152600401602060405180830381865afa158015612f9e573d5f803e3d5ffd5b505050506040513d601f19601f82011682018060405250810190612fc29190613e02565b8155600101805460ff909216600160a01b026001600160a81b03199092166001600160a01b0390931692909217179055565b83515f906130145760405162461bcd60e51b815260040161019d90614167565b6020850151156130725760405162461bcd60e51b8152602060048201526024808201527f546f6b656e486f6d653a2072656d6f7465206e6f7420636f6c6c61746572616c6044820152631a5e995960e21b606482015260840161019d565b61307d8484846134dc565b5f61309186604001518760600151856131b2565b90505f8111612dc65760405162461bcd60e51b815260206004820152601c60248201527f546f6b656e486f6d653a207a65726f20746f6b656e20616d6f756e7400000000604482015260640161019d565b5f845a10156131335760405162461bcd60e51b815260206004820152601b60248201527f43616c6c5574696c733a20696e73756666696369656e74206761730000000000604482015260640161019d565b834710156131835760405162461bcd60e51b815260206004820152601d60248201527f43616c6c5574696c733a20696e73756666696369656e742076616c7565000000604482015260640161019d565b826001600160a01b03163b5f0361319b57505f612aab565b5f805f84516020860188888bf19695505050505050565b5f612aab8484845f6133df565b5f8481525f805160206148fb833981519152602090815260408083206001600160a01b038716845282528083208151608081018352815460ff9081161580158352600184015495830195909552600283015493820193909352600390910154909116151560608201525f805160206148bb833981519152918061324557505f8160200151115b15613254575f92505050612aab565b8385116132b85760405162461bcd60e51b815260206004820152602c60248201527f546f6b656e486f6d653a20696e73756666696369656e7420616d6f756e74207460448201526b6f20636f766572206665657360a01b606482015260840161019d565b6132c284866141b0565b94505f6132d88260400151836060015188612a9d565b9050805f036132ec575f9350505050612aab565b5f88815260038401602090815260408083206001600160a01b038b1684529091528120805483929061331f908490614615565b909155509098975050505050505050565b5f8060ff8085169084161181816133535761334b8587614752565b60ff16613361565b61335d8686614752565b60ff165b61336c90600a61484b565b96919550909350505050565b6040516001600160a01b038481166024830152838116604483015260648201839052610ac39186918216906323b872dd906084015b604051602081830303815290604052915060e01b6020820180516001600160e01b0383818316178352505050506135c9565b5f811515841515036133fc576133f58584614856565b9050612aab565b612dc6858461486d565b604080516001600160a01b038416602482015260448082018490528251808303909101815260649091019091526020810180516001600160e01b031663095ea7b360e01b179052613457848261362a565b610ac3576040516001600160a01b0384811660248301525f604483015261348b91869182169063095ea7b3906064016133ad565b610ac384826135c9565b61349d611e75565b6134a56136c7565b6134ad6136d7565b6107f682826136df565b6134bf611e75565b61077481613863565b5f5f8051602061491b83398151915261181c565b5f8381527f9316912b5a9db88acbe872c934fdd0a46c436c6dcba332d649c4d57c7bc9e603602090815260408083206001600160a01b03861684529091529020545f805160206148bb83398151915290828110156135935760405162461bcd60e51b815260206004820152602e60248201527f546f6b656e486f6d653a20696e73756666696369656e7420746f6b656e20747260448201526d616e736665722062616c616e636560901b606482015260840161019d565b61359d83826141b0565b5f9586526003909201602090815260408087206001600160a01b03909616875294905250919092205550565b5f6135dd6001600160a01b0384168361386b565b905080515f141580156136015750808060200190518101906135ff9190614880565b155b15611e7057604051635274afe760e01b81526001600160a01b038416600482015260240161019d565b5f805f846001600160a01b031684604051613645919061489f565b5f604051808303815f865af19150503d805f811461367e576040519150601f19603f3d011682016040523d82523d5f602084013e613683565b606091505b50915091508180156136ad5750805115806136ad5750808060200190518101906136ad9190614880565b8015612dc65750505050506001600160a01b03163b151590565b6136cf611e75565b6107b1613878565b6107b1611e75565b6136e7611e75565b6001600160a01b0382166137635760405162461bcd60e51b815260206004820152603760248201527f54656c65706f7274657252656769737472794170703a207a65726f2054656c6560448201527f706f727465722072656769737472792061646472657373000000000000000000606482015260840161019d565b5f5f8051602061493b83398151915290505f8390505f816001600160a01b031663c07f47d46040518163ffffffff1660e01b8152600401602060405180830381865afa1580156137b5573d5f803e3d5ffd5b505050506040513d601f19601f820116820180604052508101906137d99190613e02565b116138415760405162461bcd60e51b815260206004820152603260248201527f54656c65706f7274657252656769737472794170703a20696e76616c69642054604482015271656c65706f7274657220726567697374727960701b606482015260840161019d565b81546001600160a01b0319166001600160a01b038216178255610ac383610b2c565b610ad1611e75565b60606107e483835f613880565b6117f9611e75565b6060814710156138a55760405163cd78605960e01b815230600482015260240161019d565b5f80856001600160a01b031684866040516138c0919061489f565b5f6040518083038185875af1925050503d805f81146138fa576040519150601f19603f3d011682016040523d82523d5f602084013e6138ff565b606091505b5091509150611f9a86838360608261391f5761391a82613966565b6107e4565b815115801561393657506001600160a01b0384163b155b1561395f57604051639996b31560e01b81526001600160a01b038516600482015260240161019d565b50806107e4565b8051156139765780518082602001fd5b604051630a12f52160e11b815260040160405180910390fd5b6001600160a01b0381168114610774575f80fd5b80356139ae8161398f565b919050565b5f80604083850312156139c4575f80fd5b8235915060208301356139d68161398f565b809150509250929050565b5f602082840312156139f1575f80fd5b81356107e48161398f565b5f60208284031215613a0c575f80fd5b5035919050565b5f60208284031215613a23575f80fd5b81356001600160401b03811115613a38575f80fd5b820161016081850312156107e4575f80fd5b5f6101008284031215613a5b575f80fd5b50919050565b5f805f8060808587031215613a74575f80fd5b8435613a7f8161398f565b93506020850135613a8f8161398f565b9250604085013591506060850135613aa68161398f565b939692955090935050565b5f805f8060608587031215613ac4575f80fd5b843593506020850135613ad68161398f565b925060408501356001600160401b0380821115613af1575f80fd5b818701915087601f830112613b04575f80fd5b813581811115613b12575f80fd5b886020828501011115613b23575f80fd5b95989497505060200194505050565b6020808252602e908201527f54656c65706f7274657252656769737472794170703a207a65726f2054656c6560408201526d706f72746572206164647265737360901b606082015260800190565b634e487b7160e01b5f52604160045260245ffd5b60405161016081016001600160401b0381118282101715613bb757613bb7613b80565b60405290565b60405161010081016001600160401b0381118282101715613bb757613bb7613b80565b604080519081016001600160401b0381118282101715613bb757613bb7613b80565b604051601f8201601f191681016001600160401b0381118282101715613c2a57613c2a613b80565b604052919050565b5f6001600160401b03821115613c4a57613c4a613b80565b50601f01601f191660200190565b5f82601f830112613c67575f80fd5b8135613c7a613c7582613c32565b613c02565b818152846020838601011115613c8e575f80fd5b816020850160208301375f918101602001919091529392505050565b5f6101608236031215613cbb575f80fd5b613cc3613b94565b82358152613cd3602084016139a3565b6020820152613ce4604084016139a3565b604082015260608301356001600160401b03811115613d01575f80fd5b613d0d36828601613c58565b6060830152506080830135608082015260a083013560a0820152613d3360c084016139a3565b60c0820152613d4460e084016139a3565b60e0820152610100613d578185016139a3565b90820152610120838101359082015261014092830135928101929092525090565b5f6101008284031215613d89575f80fd5b613d91613bbd565b823581526020830135613da38161398f565b60208201526040830135613db68161398f565b6040820152613dc7606084016139a3565b60608201526080830135608082015260a083013560a082015260c083013560c0820152613df660e084016139a3565b60e08201529392505050565b5f60208284031215613e12575f80fd5b5051919050565b60208082526024908201527f53656e645265656e7472616e637947756172643a2073656e64207265656e7472604082015263616e637960e01b606082015260800190565b60208082526026908201527f546f6b656e486f6d653a206e6f6e2d7a65726f206d756c74692d686f702066616040820152656c6c6261636b60d01b606082015260800190565b634e487b7160e01b5f52602160045260245ffd5b5f5b83811015613ed1578181015183820152602001613eb9565b50505f910152565b5f8151808452613ef0816020860160208601613eb7565b601f01601f19169290920160200192915050565b60208152815160208201525f602083015160018060a01b03808216604085015280604086015116606085015250506060830151613f4c60808401826001600160a01b03169052565b50608083015160a083015260a08301516101008060c0850152613f73610120850183613ed9565b915060c085015160e085015260e0850151613f98828601826001600160a01b03169052565b5090949350505050565b602081525f825160058110613fc557634e487b7160e01b5f52602160045260245ffd5b806020840152506020830151604080840152612aab6060840182613ed9565b60408152825160408201525f602084015161400a60608401826001600160a01b03169052565b5060408401516001600160a01b03166080830152606084015161016060a0840181905261403b6101a0850183613ed9565b9150608086015160c085015260a086015160e085015260c086015161010061406d818701836001600160a01b03169052565b60e0880151915061012061408b818801846001600160a01b03169052565b908801519150610140906140a9878301846001600160a01b03169052565b880151928601929092525090940151610180830152506020015290565b81516001600160a01b031681526020808301519082015260408101610575565b5f6101208201905083518252602084015160018060a01b03808216602085015280604087015116604085015280606087015116606085015250506080840151608083015260a084015160a083015260c084015160c083015260e084015161415860e08401826001600160a01b03169052565b50826101008301529392505050565b6020808252818101527f546f6b656e486f6d653a2072656d6f7465206e6f742072656769737465726564604082015260600190565b634e487b7160e01b5f52601160045260245ffd5b818103818111156105755761057561419c565b5f82601f8301126141d2575f80fd5b81516141e0613c7582613c32565b8181528460208386010111156141f4575f80fd5b612aab826020830160208701613eb7565b5f60208284031215614215575f80fd5b81516001600160401b038082111561422b575f80fd5b908301906040828603121561423e575f80fd5b614246613be0565b825160058110614254575f80fd5b8152602083015182811115614267575f80fd5b614273878286016141c3565b60208301525095945050505050565b80516139ae8161398f565b5f6040828403121561429d575f80fd5b6142a5613be0565b82516142b08161398f565b81526020928301519281019290925250919050565b5f602082840312156142d5575f80fd5b81516001600160401b03808211156142eb575f80fd5b9083019061010082860312156142ff575f80fd5b614307613bbd565b8251815261431760208401614282565b602082015261432860408401614282565b604082015261433960608401614282565b60608201526080830151608082015260a083015182811115614359575f80fd5b614365878286016141c3565b60a08301525060c083015160c082015261438160e08401614282565b60e082015295945050505050565b5f60e0828403121561439f575f80fd5b60405160e081018181106001600160401b03821117156143c1576143c1613b80565b6040528251815260208301516143d68161398f565b602082015260408301516143e98161398f565b80604083015250606083015160608201526080830151608082015260a083015160a082015260c083015161441c8161398f565b60c08201529392505050565b5f60208284031215614438575f80fd5b81516001600160401b038082111561444e575f80fd5b908301906101608286031215614462575f80fd5b61446a613b94565b61447383614282565b81526020830151602082015261448b60408401614282565b604082015261449c60608401614282565b60608201526080830151608082015260a0830151828111156144bc575f80fd5b6144c8878286016141c3565b60a08301525060c083015160c08201526144e460e08401614282565b60e082015261010083810151908201526101209150614504828401614282565b9181019190915261014091820151918101919091529392505050565b805160ff811681146139ae575f80fd5b5f60608284031215614540575f80fd5b604051606081018181106001600160401b038211171561456257614562613b80565b6040528251815261457560208401614520565b602082015261458660408401614520565b60408201529392505050565b60208082526022908201527f546f6b656e486f6d653a207a65726f20726571756972656420676173206c696d6040820152611a5d60f21b606082015260800190565b60208082526021908201527f546f6b656e486f6d653a206e6f6e2d7a65726f207365636f6e646172792066656040820152606560f81b606082015260800190565b808201808211156105755761057561419c565b6020808252825182820152828101516001600160a01b039081166040808501919091528401518051821660608501528083015160808501525f929161010085019190606087015160a0870152608087015160e060c08801528051938490528401925f92506101208701905b808410156146b557845183168252938501936001939093019290850190614693565b5060a0880151878203601f190160e089015294506146d38186613ed9565b98975050505050505050565b8481526001600160a01b038481166020830152831660408201526080606082018190525f90611f9a90830184613ed9565b634e487b7160e01b5f52601260045260245ffd5b5f8261473257614732614710565b500690565b5f60208284031215614747575f80fd5b81516107e48161398f565b60ff82811682821603908111156105755761057561419c565b600181815b808511156147a557815f190482111561478b5761478b61419c565b8085161561479857918102915b93841c9390800290614770565b509250929050565b5f826147bb57506001610575565b816147c757505f610575565b81600181146147dd57600281146147e757614803565b6001915050610575565b60ff8411156147f8576147f861419c565b50506001821b610575565b5060208310610133831016604e8410600b8410161715614826575081810a610575565b614830838361476b565b805f19048211156148435761484361419c565b029392505050565b5f6107e483836147ad565b80820281158282048414176105755761057561419c565b5f8261487b5761487b614710565b500490565b5f60208284031215614890575f80fd5b815180151581146107e4575f80fd5b5f82516148b0818460208701613eb7565b919091019291505056fe9316912b5a9db88acbe872c934fdd0a46c436c6dcba332d649c4d57c7bc9e6003b5030f10c94fcbdaa3022348ff0b82dbd4c0c71339e41ff59d0bdc92179d6009316912b5a9db88acbe872c934fdd0a46c436c6dcba332d649c4d57c7bc9e602d2f1ed38b7d242bfb8b41862afb813a15193219a4bc717f2056607593e6c7500de77a4dc7391f6f8f2d9567915d687d3aee79e7a1fc7300392f2727e9a0f1d00a164736f6c6343000819000a54656c65706f7274657252656769737472794170703a20696e76616c69642054",
        "linkReferences": {}
    },
    "methodIdentifiers": {
        "NATIVE_TOKEN_HOME_STORAGE_LOCATION()": "efb5b95e",
        "TELEPORTER_REGISTRY_APP_STORAGE_LOCATION()": "909a6ac0",
        "TOKEN_HOME_STORAGE_LOCATION()": "62e3901b",
        "addCollateral(bytes32,address)": "b0b78b26",
        "getBlockchainID()": "4213cf78",
        "getMinTeleporterVersion()": "d2cc7a70",
        "getRemoteTokenTransferrerSettings(bytes32,address)": "c8511ada",
        "getTokenAddress()": "10fe9ae8",
        "getTransferredBalance(bytes32,address)": "154d625a",
        "initialize(address,address,uint256,address)": "be203094",
        "isTeleporterAddressPaused(address)": "97314297",
        "owner()": "8da5cb5b",
        "pauseTeleporterAddress(address)": "2b0d8f18",
        "receiveTeleporterMessage(bytes32,address,bytes)": "c868efaa",
        "renounceOwnership()": "715018a6",
        "send((bytes32,address,address,address,uint256,uint256,uint256,address))": "8bf2fa94",
        "sendAndCall((bytes32,address,address,bytes,uint256,uint256,address,address,address,uint256,uint256))": "6e6eef8d",
        "transferOwnership(address)": "f2fde38b",
        "unpauseTeleporterAddress(address)": "4511243e",
        "updateMinTeleporterVersion(uint256)": "5eb99514"
    },
    "id": 4
}