{
  "abi": [
    {
      "type": "function",
      "name": "WARP_MESSENGER",
      "inputs": [],
      "outputs": [
        {
          "name": "",
          "type": "address",
          "internalType": "contract IWarpMessenger"
        }
      ],
      "stateMutability": "view"
    },
    {
      "type": "function",
      "name": "addFeeAmount",
      "inputs": [
        {
          "name": "messageID",
          "type": "bytes32",
          "internalType": "bytes32"
        },
        {
          "name": "feeTokenAddress",
          "type": "address",
          "internalType": "address"
        },
        {
          "name": "additionalFeeAmount",
          "type": "uint256",
          "internalType": "uint256"
        }
      ],
      "outputs": [],
      "stateMutability": "nonpayable"
    },
    {
      "type": "function",
      "name": "blockchainID",
      "inputs": [],
      "outputs": [
        {
          "name": "",
          "type": "bytes32",
          "internalType": "bytes32"
        }
      ],
      "stateMutability": "view"
    },
    {
      "type": "function",
      "name": "calculateMessageID",
      "inputs": [
        {
          "name": "sourceBlockchainID",
          "type": "bytes32",
          "internalType": "bytes32"
        },
        {
          "name": "destinationBlockchainID",
          "type": "bytes32",
          "internalType": "bytes32"
        },
        {
          "name": "nonce",
          "type": "uint256",
          "internalType": "uint256"
        }
      ],
      "outputs": [
        {
          "name": "",
          "type": "bytes32",
          "internalType": "bytes32"
        }
      ],
      "stateMutability": "view"
    },
    {
      "type": "function",
      "name": "checkRelayerRewardAmount",
      "inputs": [
        {
          "name": "relayer",
          "type": "address",
          "internalType": "address"
        },
        {
          "name": "feeAsset",
          "type": "address",
          "internalType": "address"
        }
      ],
      "outputs": [
        {
          "name": "",
          "type": "uint256",
          "internalType": "uint256"
        }
      ],
      "stateMutability": "view"
    },
    {
      "type": "function",
      "name": "getFeeInfo",
      "inputs": [
        {
          "name": "messageID",
          "type": "bytes32",
          "internalType": "bytes32"
        }
      ],
      "outputs": [
        {
          "name": "",
          "type": "address",
          "internalType": "address"
        },
        {
          "name": "",
          "type": "uint256",
          "internalType": "uint256"
        }
      ],
      "stateMutability": "view"
    },
    {
      "type": "function",
      "name": "getMessageHash",
      "inputs": [
        {
          "name": "messageID",
          "type": "bytes32",
          "internalType": "bytes32"
        }
      ],
      "outputs": [
        {
          "name": "",
          "type": "bytes32",
          "internalType": "bytes32"
        }
      ],
      "stateMutability": "view"
    },
    {
      "type": "function",
      "name": "getNextMessageID",
      "inputs": [
        {
          "name": "destinationBlockchainID",
          "type": "bytes32",
          "internalType": "bytes32"
        }
      ],
      "outputs": [
        {
          "name": "",
          "type": "bytes32",
          "internalType": "bytes32"
        }
      ],
      "stateMutability": "view"
    },
    {
      "type": "function",
      "name": "getReceiptAtIndex",
      "inputs": [
        {
          "name": "sourceBlockchainID",
          "type": "bytes32",
          "internalType": "bytes32"
        },
        {
          "name": "index",
          "type": "uint256",
          "internalType": "uint256"
        }
      ],
      "outputs": [
        {
          "name": "",
          "type": "tuple",
          "internalType": "struct TeleporterMessageReceipt",
          "components": [
            {
              "name": "receivedMessageNonce",
              "type": "uint256",
              "internalType": "uint256"
            },
            {
              "name": "relayerRewardAddress",
              "type": "address",
              "internalType": "address"
            }
          ]
        }
      ],
      "stateMutability": "view"
    },
    {
      "type": "function",
      "name": "getReceiptQueueSize",
      "inputs": [
        {
          "name": "sourceBlockchainID",
          "type": "bytes32",
          "internalType": "bytes32"
        }
      ],
      "outputs": [
        {
          "name": "",
          "type": "uint256",
          "internalType": "uint256"
        }
      ],
      "stateMutability": "view"
    },
    {
      "type": "function",
      "name": "getRelayerRewardAddress",
      "inputs": [
        {
          "name": "messageID",
          "type": "bytes32",
          "internalType": "bytes32"
        }
      ],
      "outputs": [
        {
          "name": "",
          "type": "address",
          "internalType": "address"
        }
      ],
      "stateMutability": "view"
    },
    {
      "type": "function",
      "name": "initializeBlockchainID",
      "inputs": [],
      "outputs": [
        {
          "name": "",
          "type": "bytes32",
          "internalType": "bytes32"
        }
      ],
      "stateMutability": "nonpayable"
    },
    {
      "type": "function",
      "name": "messageNonce",
      "inputs": [],
      "outputs": [
        {
          "name": "",
          "type": "uint256",
          "internalType": "uint256"
        }
      ],
      "stateMutability": "view"
    },
    {
      "type": "function",
      "name": "messageReceived",
      "inputs": [
        {
          "name": "messageID",
          "type": "bytes32",
          "internalType": "bytes32"
        }
      ],
      "outputs": [
        {
          "name": "",
          "type": "bool",
          "internalType": "bool"
        }
      ],
      "stateMutability": "view"
    },
    {
      "type": "function",
      "name": "receiptQueues",
      "inputs": [
        {
          "name": "sourceBlockchainID",
          "type": "bytes32",
          "internalType": "bytes32"
        }
      ],
      "outputs": [
        {
          "name": "first",
          "type": "uint256",
          "internalType": "uint256"
        },
        {
          "name": "last",
          "type": "uint256",
          "internalType": "uint256"
        }
      ],
      "stateMutability": "view"
    },
    {
      "type": "function",
      "name": "receiveCrossChainMessage",
      "inputs": [
        {
          "name": "messageIndex",
          "type": "uint32",
          "internalType": "uint32"
        },
        {
          "name": "relayerRewardAddress",
          "type": "address",
          "internalType": "address"
        }
      ],
      "outputs": [],
      "stateMutability": "nonpayable"
    },
    {
      "type": "function",
      "name": "receivedFailedMessageHashes",
      "inputs": [
        {
          "name": "messageID",
          "type": "bytes32",
          "internalType": "bytes32"
        }
      ],
      "outputs": [
        {
          "name": "messageHash",
          "type": "bytes32",
          "internalType": "bytes32"
        }
      ],
      "stateMutability": "view"
    },
    {
      "type": "function",
      "name": "redeemRelayerRewards",
      "inputs": [
        {
          "name": "feeAsset",
          "type": "address",
          "internalType": "address"
        }
      ],
      "outputs": [],
      "stateMutability": "nonpayable"
    },
    {
      "type": "function",
      "name": "retryMessageExecution",
      "inputs": [
        {
          "name": "sourceBlockchainID",
          "type": "bytes32",
          "internalType": "bytes32"
        },
        {
          "name": "message",
          "type": "tuple",
          "internalType": "struct TeleporterMessage",
          "components": [
            {
              "name": "messageNonce",
              "type": "uint256",
              "internalType": "uint256"
            },
            {
              "name": "originSenderAddress",
              "type": "address",
              "internalType": "address"
            },
            {
              "name": "destinationBlockchainID",
              "type": "bytes32",
              "internalType": "bytes32"
            },
            {
              "name": "destinationAddress",
              "type": "address",
              "internalType": "address"
            },
            {
              "name": "requiredGasLimit",
              "type": "uint256",
              "internalType": "uint256"
            },
            {
              "name": "allowedRelayerAddresses",
              "type": "address[]",
              "internalType": "address[]"
            },
            {
              "name": "receipts",
              "type": "tuple[]",
              "internalType": "struct TeleporterMessageReceipt[]",
              "components": [
                {
                  "name": "receivedMessageNonce",
                  "type": "uint256",
                  "internalType": "uint256"
                },
                {
                  "name": "relayerRewardAddress",
                  "type": "address",
                  "internalType": "address"
                }
              ]
            },
            {
              "name": "message",
              "type": "bytes",
              "internalType": "bytes"
            }
          ]
        }
      ],
      "outputs": [],
      "stateMutability": "nonpayable"
    },
    {
      "type": "function",
      "name": "retrySendCrossChainMessage",
      "inputs": [
        {
          "name": "message",
          "type": "tuple",
          "internalType": "struct TeleporterMessage",
          "components": [
            {
              "name": "messageNonce",
              "type": "uint256",
              "internalType": "uint256"
            },
            {
              "name": "originSenderAddress",
              "type": "address",
              "internalType": "address"
            },
            {
              "name": "destinationBlockchainID",
              "type": "bytes32",
              "internalType": "bytes32"
            },
            {
              "name": "destinationAddress",
              "type": "address",
              "internalType": "address"
            },
            {
              "name": "requiredGasLimit",
              "type": "uint256",
              "internalType": "uint256"
            },
            {
              "name": "allowedRelayerAddresses",
              "type": "address[]",
              "internalType": "address[]"
            },
            {
              "name": "receipts",
              "type": "tuple[]",
              "internalType": "struct TeleporterMessageReceipt[]",
              "components": [
                {
                  "name": "receivedMessageNonce",
                  "type": "uint256",
                  "internalType": "uint256"
                },
                {
                  "name": "relayerRewardAddress",
                  "type": "address",
                  "internalType": "address"
                }
              ]
            },
            {
              "name": "message",
              "type": "bytes",
              "internalType": "bytes"
            }
          ]
        }
      ],
      "outputs": [],
      "stateMutability": "nonpayable"
    },
    {
      "type": "function",
      "name": "sendCrossChainMessage",
      "inputs": [
        {
          "name": "messageInput",
          "type": "tuple",
          "internalType": "struct TeleporterMessageInput",
          "components": [
            {
              "name": "destinationBlockchainID",
              "type": "bytes32",
              "internalType": "bytes32"
            },
            {
              "name": "destinationAddress",
              "type": "address",
              "internalType": "address"
            },
            {
              "name": "feeInfo",
              "type": "tuple",
              "internalType": "struct TeleporterFeeInfo",
              "components": [
                {
                  "name": "feeTokenAddress",
                  "type": "address",
                  "internalType": "address"
                },
                {
                  "name": "amount",
                  "type": "uint256",
                  "internalType": "uint256"
                }
              ]
            },
            {
              "name": "requiredGasLimit",
              "type": "uint256",
              "internalType": "uint256"
            },
            {
              "name": "allowedRelayerAddresses",
              "type": "address[]",
              "internalType": "address[]"
            },
            {
              "name": "message",
              "type": "bytes",
              "internalType": "bytes"
            }
          ]
        }
      ],
      "outputs": [
        {
          "name": "",
          "type": "bytes32",
          "internalType": "bytes32"
        }
      ],
      "stateMutability": "nonpayable"
    },
    {
      "type": "function",
      "name": "sendSpecifiedReceipts",
      "inputs": [
        {
          "name": "sourceBlockchainID",
          "type": "bytes32",
          "internalType": "bytes32"
        },
        {
          "name": "messageIDs",
          "type": "bytes32[]",
          "internalType": "bytes32[]"
        },
        {
          "name": "feeInfo",
          "type": "tuple",
          "internalType": "struct TeleporterFeeInfo",
          "components": [
            {
              "name": "feeTokenAddress",
              "type": "address",
              "internalType": "address"
            },
            {
              "name": "amount",
              "type": "uint256",
              "internalType": "uint256"
            }
          ]
        },
        {
          "name": "allowedRelayerAddresses",
          "type": "address[]",
          "internalType": "address[]"
        }
      ],
      "outputs": [
        {
          "name": "",
          "type": "bytes32",
          "internalType": "bytes32"
        }
      ],
      "stateMutability": "nonpayable"
    },
    {
      "type": "function",
      "name": "sentMessageInfo",
      "inputs": [
        {
          "name": "messageID",
          "type": "bytes32",
          "internalType": "bytes32"
        }
      ],
      "outputs": [
        {
          "name": "messageHash",
          "type": "bytes32",
          "internalType": "bytes32"
        },
        {
          "name": "feeInfo",
          "type": "tuple",
          "internalType": "struct TeleporterFeeInfo",
          "components": [
            {
              "name": "feeTokenAddress",
              "type": "address",
              "internalType": "address"
            },
            {
              "name": "amount",
              "type": "uint256",
              "internalType": "uint256"
            }
          ]
        }
      ],
      "stateMutability": "view"
    },
    {
      "type": "event",
      "name": "AddFeeAmount",
      "inputs": [
        {
          "name": "messageID",
          "type": "bytes32",
          "indexed": true,
          "internalType": "bytes32"
        },
        {
          "name": "updatedFeeInfo",
          "type": "tuple",
          "indexed": false,
          "internalType": "struct TeleporterFeeInfo",
          "components": [
            {
              "name": "feeTokenAddress",
              "type": "address",
              "internalType": "address"
            },
            {
              "name": "amount",
              "type": "uint256",
              "internalType": "uint256"
            }
          ]
        }
      ],
      "anonymous": false
    },
    {
      "type": "event",
      "name": "BlockchainIDInitialized",
      "inputs": [
        {
          "name": "blockchainID",
          "type": "bytes32",
          "indexed": true,
          "internalType": "bytes32"
        }
      ],
      "anonymous": false
    },
    {
      "type": "event",
      "name": "MessageExecuted",
      "inputs": [
        {
          "name": "messageID",
          "type": "bytes32",
          "indexed": true,
          "internalType": "bytes32"
        },
        {
          "name": "sourceBlockchainID",
          "type": "bytes32",
          "indexed": true,
          "internalType": "bytes32"
        }
      ],
      "anonymous": false
    },
    {
      "type": "event",
      "name": "MessageExecutionFailed",
      "inputs": [
        {
          "name": "messageID",
          "type": "bytes32",
          "indexed": true,
          "internalType": "bytes32"
        },
        {
          "name": "sourceBlockchainID",
          "type": "bytes32",
          "indexed": true,
          "internalType": "bytes32"
        },
        {
          "name": "message",
          "type": "tuple",
          "indexed": false,
          "internalType": "struct TeleporterMessage",
          "components": [
            {
              "name": "messageNonce",
              "type": "uint256",
              "internalType": "uint256"
            },
            {
              "name": "originSenderAddress",
              "type": "address",
              "internalType": "address"
            },
            {
              "name": "destinationBlockchainID",
              "type": "bytes32",
              "internalType": "bytes32"
            },
            {
              "name": "destinationAddress",
              "type": "address",
              "internalType": "address"
            },
            {
              "name": "requiredGasLimit",
              "type": "uint256",
              "internalType": "uint256"
            },
            {
              "name": "allowedRelayerAddresses",
              "type": "address[]",
              "internalType": "address[]"
            },
            {
              "name": "receipts",
              "type": "tuple[]",
              "internalType": "struct TeleporterMessageReceipt[]",
              "components": [
                {
                  "name": "receivedMessageNonce",
                  "type": "uint256",
                  "internalType": "uint256"
                },
                {
                  "name": "relayerRewardAddress",
                  "type": "address",
                  "internalType": "address"
                }
              ]
            },
            {
              "name": "message",
              "type": "bytes",
              "internalType": "bytes"
            }
          ]
        }
      ],
      "anonymous": false
    },
    {
      "type": "event",
      "name": "ReceiptReceived",
      "inputs": [
        {
          "name": "messageID",
          "type": "bytes32",
          "indexed": true,
          "internalType": "bytes32"
        },
        {
          "name": "destinationBlockchainID",
          "type": "bytes32",
          "indexed": true,
          "internalType": "bytes32"
        },
        {
          "name": "relayerRewardAddress",
          "type": "address",
          "indexed": true,
          "internalType": "address"
        },
        {
          "name": "feeInfo",
          "type": "tuple",
          "indexed": false,
          "internalType": "struct TeleporterFeeInfo",
          "components": [
            {
              "name": "feeTokenAddress",
              "type": "address",
              "internalType": "address"
            },
            {
              "name": "amount",
              "type": "uint256",
              "internalType": "uint256"
            }
          ]
        }
      ],
      "anonymous": false
    },
    {
      "type": "event",
      "name": "ReceiveCrossChainMessage",
      "inputs": [
        {
          "name": "messageID",
          "type": "bytes32",
          "indexed": true,
          "internalType": "bytes32"
        },
        {
          "name": "sourceBlockchainID",
          "type": "bytes32",
          "indexed": true,
          "internalType": "bytes32"
        },
        {
          "name": "deliverer",
          "type": "address",
          "indexed": true,
          "internalType": "address"
        },
        {
          "name": "rewardRedeemer",
          "type": "address",
          "indexed": false,
          "internalType": "address"
        },
        {
          "name": "message",
          "type": "tuple",
          "indexed": false,
          "internalType": "struct TeleporterMessage",
          "components": [
            {
              "name": "messageNonce",
              "type": "uint256",
              "internalType": "uint256"
            },
            {
              "name": "originSenderAddress",
              "type": "address",
              "internalType": "address"
            },
            {
              "name": "destinationBlockchainID",
              "type": "bytes32",
              "internalType": "bytes32"
            },
            {
              "name": "destinationAddress",
              "type": "address",
              "internalType": "address"
            },
            {
              "name": "requiredGasLimit",
              "type": "uint256",
              "internalType": "uint256"
            },
            {
              "name": "allowedRelayerAddresses",
              "type": "address[]",
              "internalType": "address[]"
            },
            {
              "name": "receipts",
              "type": "tuple[]",
              "internalType": "struct TeleporterMessageReceipt[]",
              "components": [
                {
                  "name": "receivedMessageNonce",
                  "type": "uint256",
                  "internalType": "uint256"
                },
                {
                  "name": "relayerRewardAddress",
                  "type": "address",
                  "internalType": "address"
                }
              ]
            },
            {
              "name": "message",
              "type": "bytes",
              "internalType": "bytes"
            }
          ]
        }
      ],
      "anonymous": false
    },
    {
      "type": "event",
      "name": "RelayerRewardsRedeemed",
      "inputs": [
        {
          "name": "redeemer",
          "type": "address",
          "indexed": true,
          "internalType": "address"
        },
        {
          "name": "asset",
          "type": "address",
          "indexed": true,
          "internalType": "address"
        },
        {
          "name": "amount",
          "type": "uint256",
          "indexed": false,
          "internalType": "uint256"
        }
      ],
      "anonymous": false
    },
    {
      "type": "event",
      "name": "SendCrossChainMessage",
      "inputs": [
        {
          "name": "messageID",
          "type": "bytes32",
          "indexed": true,
          "internalType": "bytes32"
        },
        {
          "name": "destinationBlockchainID",
          "type": "bytes32",
          "indexed": true,
          "internalType": "bytes32"
        },
        {
          "name": "message",
          "type": "tuple",
          "indexed": false,
          "internalType": "struct TeleporterMessage",
          "components": [
            {
              "name": "messageNonce",
              "type": "uint256",
              "internalType": "uint256"
            },
            {
              "name": "originSenderAddress",
              "type": "address",
              "internalType": "address"
            },
            {
              "name": "destinationBlockchainID",
              "type": "bytes32",
              "internalType": "bytes32"
            },
            {
              "name": "destinationAddress",
              "type": "address",
              "internalType": "address"
            },
            {
              "name": "requiredGasLimit",
              "type": "uint256",
              "internalType": "uint256"
            },
            {
              "name": "allowedRelayerAddresses",
              "type": "address[]",
              "internalType": "address[]"
            },
            {
              "name": "receipts",
              "type": "tuple[]",
              "internalType": "struct TeleporterMessageReceipt[]",
              "components": [
                {
                  "name": "receivedMessageNonce",
                  "type": "uint256",
                  "internalType": "uint256"
                },
                {
                  "name": "relayerRewardAddress",
                  "type": "address",
                  "internalType": "address"
                }
              ]
            },
            {
              "name": "message",
              "type": "bytes",
              "internalType": "bytes"
            }
          ]
        },
        {
          "name": "feeInfo",
          "type": "tuple",
          "indexed": false,
          "internalType": "struct TeleporterFeeInfo",
          "components": [
            {
              "name": "feeTokenAddress",
              "type": "address",
              "internalType": "address"
            },
            {
              "name": "amount",
              "type": "uint256",
              "internalType": "uint256"
            }
          ]
        }
      ],
      "anonymous": false
    },
    {
      "type": "error",
      "name": "AddressEmptyCode",
      "inputs": [
        {
          "name": "target",
          "type": "address",
          "internalType": "address"
        }
      ]
    },
    {
      "type": "error",
      "name": "AddressInsufficientBalance",
      "inputs": [
        {
          "name": "account",
          "type": "address",
          "internalType": "address"
        }
      ]
    },
    {
      "type": "error",
      "name": "FailedInnerCall",
      "inputs": []
    },
    {
      "type": "error",
      "name": "SafeERC20FailedOperation",
      "inputs": [
        {
          "name": "token",
          "type": "address",
          "internalType": "address"
        }
      ]
    }
  ],
  "bytecode": {
    "object": "0x6080604052348015600e575f80fd5b5060015f8190558055613119806100245f395ff3fe608060405234801561000f575f80fd5b5060043610610148575f3560e01c8063a8898181116100bf578063df20e8bc11610079578063df20e8bc14610331578063e69d606a14610344578063e6e67bd5146103ab578063ebc3b1ba146103e6578063ecc7042814610409578063fc2d619714610412575f80fd5b8063a8898181146102a9578063a9a85614146102bc578063b771b3bc146102cf578063c473eef8146102dd578063ccb5f80914610315578063d127dc9b14610328575f80fd5b8063399b77da11610110578063399b77da1461021257806362448850146102315780638245a1b014610244578063860a3b0614610257578063892bf412146102765780638ac0fd0414610296575f80fd5b80630af5b4ff1461014c57806322296c3a146101675780632bc8b0bf1461017c5780632ca40f551461018f5780632e27c223146101e7575b5f80fd5b610154610425565b6040519081526020015b60405180910390f35b61017a610175366004612138565b6104f3565b005b61015461018a366004612153565b6105e6565b6101d961019d366004612153565b600560209081525f9182526040918290208054835180850190945260018201546001600160a01b03168452600290910154918301919091529082565b60405161015e92919061216a565b6101fa6101f5366004612153565b610602565b6040516001600160a01b03909116815260200161015e565b610154610220366004612153565b5f9081526005602052604090205490565b61015461023f366004612191565b610689565b61017a6102523660046121de565b6106e2565b610154610265366004612153565b60066020525f908152604090205481565b61028961028436600461220f565b610885565b60405161015e919061222f565b61017a6102a436600461224f565b6108b6565b6101546102b7366004612284565b610aed565b6101546102ca3660046122f4565b610b2f565b6101fa6005600160991b0181565b6101546102eb366004612385565b6001600160a01b039182165f90815260096020908152604080832093909416825291909152205490565b61017a6103233660046123bc565b610dc1565b61015460025481565b61015461033f366004612153565b6111e3565b61038c610352366004612153565b5f90815260056020908152604091829020825180840190935260018101546001600160a01b03168084526002909101549290910182905291565b604080516001600160a01b03909316835260208301919091520161015e565b6103d16103b9366004612153565b60046020525f90815260409020805460019091015482565b6040805192835260208301919091520161015e565b6103f96103f4366004612153565b61122a565b604051901515815260200161015e565b61015460035481565b61017a6104203660046123e0565b61123f565b6002545f90806104ee576005600160991b016001600160a01b0316634213cf786040518163ffffffff1660e01b8152600401602060405180830381865afa158015610472573d5f803e3d5ffd5b505050506040513d601f19601f820116820180604052508101906104969190612423565b9050806104be5760405162461bcd60e51b81526004016104b59061243a565b60405180910390fd5b600281905560405181907f1eac640109dc937d2a9f42735a05f794b39a5e3759d681951d671aabbce4b104905f90a25b919050565b335f9081526009602090815260408083206001600160a01b0385168452909152902054806105745760405162461bcd60e51b815260206004820152602860248201527f54656c65706f727465724d657373656e6765723a206e6f2072657761726420746044820152676f2072656465656d60c01b60648201526084016104b5565b335f8181526009602090815260408083206001600160a01b03871680855290835281842093909355518481529192917f3294c84e5b0f29d9803655319087207bc94f4db29f7927846944822773780b88910160405180910390a36105e26001600160a01b0383163383611494565b5050565b5f8181526004602052604081206105fc906114f8565b92915050565b5f8181526007602052604081205461066e5760405162461bcd60e51b815260206004820152602960248201527f54656c65706f727465724d657373656e6765723a206d657373616765206e6f74604482015268081c9958d95a5d995960ba1b60648201526084016104b5565b505f908152600860205260409020546001600160a01b031690565b5f60015f54146106ab5760405162461bcd60e51b81526004016104b590612481565b60025f556106d86106bb836126b8565b83355f9081526004602052604090206106d39061150a565b611604565b60015f5592915050565b60015f54146107035760405162461bcd60e51b81526004016104b590612481565b60025f818155905461071b9060408401358435610aed565b5f818152600560209081526040918290208251808401845281548152835180850190945260018201546001600160a01b0316845260029091015483830152908101919091528051919250906107825760405162461bcd60e51b81526004016104b590612757565b5f8360405160200161079491906129d6565b60408051601f19818403018152919052825181516020830120919250146107cd5760405162461bcd60e51b81526004016104b5906129e8565b8360400135837f2a211ad4a59ab9d003852404f9c57c690704ee755f3c79d2c2812ad32da99df8868560200151604051610808929190612a31565b60405180910390a360405163ee5b48eb60e01b81526005600160991b019063ee5b48eb9061083a908490600401612ab2565b6020604051808303815f875af1158015610856573d5f803e3d5ffd5b505050506040513d601f19601f8201168201806040525081019061087a9190612423565b505060015f55505050565b604080518082019091525f80825260208201525f8381526004602052604090206108af9083611837565b9392505050565b60015f54146108d75760405162461bcd60e51b81526004016104b590612481565b60025f5560018054146108fc5760405162461bcd60e51b81526004016104b590612ac4565b6002600155806109665760405162461bcd60e51b815260206004820152602f60248201527f54656c65706f727465724d657373656e6765723a207a65726f2061646469746960448201526e1bdb985b0819995948185b5bdd5b9d608a1b60648201526084016104b5565b6001600160a01b03821661098c5760405162461bcd60e51b81526004016104b590612b09565b5f838152600560205260409020546109b65760405162461bcd60e51b81526004016104b590612757565b5f838152600560205260409020600101546001600160a01b03838116911614610a475760405162461bcd60e51b815260206004820152603760248201527f54656c65706f727465724d657373656e6765723a20696e76616c69642066656560448201527f20617373657420636f6e7472616374206164647265737300000000000000000060648201526084016104b5565b5f610a5283836118f8565b5f85815260056020526040812060020180549293508392909190610a77908490612b71565b90915550505f8481526005602052604090819020905185917fc1bfd1f1208927dfbd414041dcb5256e6c9ad90dd61aec3249facbd34ff7b3e191610ad8916001019081546001600160a01b0316815260019190910154602082015260400190565b60405180910390a2505060018080555f555050565b6040805130602082015290810184905260608101839052608081018290525f9060a0016040516020818303038152906040528051906020012090509392505050565b5f60015f5414610b515760405162461bcd60e51b81526004016104b590612481565b60025f818155905490866001600160401b03811115610b7257610b726124c4565b604051908082528060200260200182016040528015610bb657816020015b604080518082019091525f8082526020820152815260200190600190039081610b905790505b509050865f5b81811015610d2e575f8a8a83818110610bd757610bd7612b84565b9050602002013590505f60075f8381526020019081526020015f20549050805f03610c535760405162461bcd60e51b815260206004820152602660248201527f54656c65706f727465724d657373656e6765723a2072656365697074206e6f7460448201526508199bdd5b9960d21b60648201526084016104b5565b610c5e8d8783610aed565b8214610cd25760405162461bcd60e51b815260206004820152603a60248201527f54656c65706f727465724d657373656e6765723a206d6573736167652049442060448201527f6e6f742066726f6d20736f7572636520626c6f636b636861696e00000000000060648201526084016104b5565b5f828152600860209081526040918290205482518084019093528383526001600160a01b03169082018190528651909190879086908110610d1557610d15612b84565b6020026020010181905250505050806001019050610bbc565b506040805160c0810182528b81525f6020820152610daf918101610d57368b90038b018b612b98565b81526020015f81526020018888808060200260200160405190810160405280939291908181526020018383602002808284375f9201829052509385525050604080519283526020808401909152909201525083611604565b60015f559a9950505050505050505050565b6001805414610de25760405162461bcd60e51b81526004016104b590612ac4565b60026001556040516306f8253560e41b815263ffffffff831660048201525f9081906005600160991b0190636f825350906024015f60405180830381865afa158015610e30573d5f803e3d5ffd5b505050506040513d5f823e601f3d908101601f19168201604052610e579190810190612c0e565b9150915080610eba5760405162461bcd60e51b815260206004820152602960248201527f54656c65706f727465724d657373656e6765723a20696e76616c69642077617260448201526870206d65737361676560b81b60648201526084016104b5565b60208201516001600160a01b03163014610f315760405162461bcd60e51b815260206004820152603260248201527f54656c65706f727465724d657373656e6765723a20696e76616c6964206f726960448201527167696e2073656e646572206164647265737360701b60648201526084016104b5565b5f8260400151806020019051810190610f4a9190612da2565b90505f610f55610425565b905080826040015114610fc45760405162461bcd60e51b815260206004820152603160248201527f54656c65706f727465724d657373656e6765723a20696e76616c6964206465736044820152701d1a5b985d1a5bdb8818da185a5b881251607a1b60648201526084016104b5565b835182515f91610fd5918490610aed565b5f81815260076020526040902054909150156110495760405162461bcd60e51b815260206004820152602d60248201527f54656c65706f727465724d657373656e6765723a206d65737361676520616c7260448201526c1958591e481c9958d95a5d9959609a1b60648201526084016104b5565b611057338460a00151611904565b6110b55760405162461bcd60e51b815260206004820152602960248201527f54656c65706f727465724d657373656e6765723a20756e617574686f72697a6560448201526832103932b630bcb2b960b91b60648201526084016104b5565b6110c281845f0151611970565b6001600160a01b038616156110f8575f81815260086020526040902080546001600160a01b0319166001600160a01b0388161790555b60c0830151515f5b8181101561113b5761113384885f01518760c00151848151811061112657611126612b84565b60200260200101516119e0565b600101611100565b50604080518082018252855181526001600160a01b03891660208083019190915288515f90815260049091529190912061117491611b04565b336001600160a01b0316865f0151837f292ee90bbaf70b5d4936025e09d56ba08f3e421156b6a568cf3c2840d9343e348a886040516111b4929190612fb1565b60405180910390a460e084015151156111d5576111d582875f015186611b5e565b505060018055505050505050565b6002545f90806112055760405162461bcd60e51b81526004016104b59061243a565b5f60035460016112159190612b71565b9050611222828583610aed565b949350505050565b5f8181526007602052604081205415156105fc565b60018054146112605760405162461bcd60e51b81526004016104b590612ac4565b60026001819055545f906112779084908435610aed565b5f81815260066020526040902054909150806112a55760405162461bcd60e51b81526004016104b590612757565b80836040516020016112b791906129d6565b60405160208183030381529060405280519060200120146112ea5760405162461bcd60e51b81526004016104b5906129e8565b5f6112fb6080850160608601612138565b6001600160a01b03163b1161136f5760405162461bcd60e51b815260206004820152603460248201527f54656c65706f727465724d657373656e6765723a2064657374696e6174696f6e604482015273206164647265737320686173206e6f20636f646560601b60648201526084016104b5565b604051849083907f34795cc6b122b9a0ae684946319f1e14a577b4e8f9b3dda9ac94c21a54d3188c905f90a35f82815260066020908152604080832083905586916113be918701908701612138565b6113cb60e0870187612fd4565b6040516024016113de9493929190613016565b60408051601f198184030181529190526020810180516001600160e01b031663643477d560e11b17905290505f61142561141e6080870160608801612138565b5a84611c8d565b9050806114885760405162461bcd60e51b815260206004820152602b60248201527f54656c65706f727465724d657373656e6765723a20726574727920657865637560448201526a1d1a5bdb8819985a5b195960aa1b60648201526084016104b5565b50506001805550505050565b6040516001600160a01b038381166024830152604482018390526114f391859182169063a9059cbb906064015b604051602081830303815290604052915060e01b6020820180516001600160e01b038381831617835250505050611ca4565b505050565b805460018201545f916105fc91613040565b60605f611520600561151b856114f8565b611d05565b9050805f0361156c57604080515f8082526020820190925290611564565b604080518082019091525f808252602082015281526020019060019003908161153e5790505b509392505050565b5f816001600160401b03811115611585576115856124c4565b6040519080825280602002602001820160405280156115c957816020015b604080518082019091525f80825260208201528152602001906001900390816115a35790505b5090505f5b82811015611564576115df85611d1a565b8282815181106115f1576115f1612b84565b60209081029190910101526001016115ce565b5f8061160e610425565b90505f60035f815461161f90613053565b91905081905590505f61163683875f015184610aed565b90505f604051806101000160405280848152602001336001600160a01b03168152602001885f0151815260200188602001516001600160a01b0316815260200188606001518152602001886080015181526020018781526020018860a0015181525090505f816040516020016116ac919061306b565b60405160208183030381529060405290505f808960400151602001511115611713576040890151516001600160a01b03166116f95760405162461bcd60e51b81526004016104b590612b09565b6040890151805160209091015161171091906118f8565b90505b6040805180820182528a820151516001600160a01b03908116825260208083018590528351808501855286518783012081528082018481525f8a815260058452869020915182555180516001830180546001600160a01b03191691909516179093559101516002909101558a51915190919086907f2a211ad4a59ab9d003852404f9c57c690704ee755f3c79d2c2812ad32da99df8906117b6908890869061307d565b60405180910390a360405163ee5b48eb60e01b81526005600160991b019063ee5b48eb906117e8908690600401612ab2565b6020604051808303815f875af1158015611804573d5f803e3d5ffd5b505050506040513d601f19601f820116820180604052508101906118289190612423565b50939998505050505050505050565b604080518082019091525f8082526020820152611853836114f8565b82106118ab5760405162461bcd60e51b815260206004820152602160248201527f5265636569707451756575653a20696e646578206f7574206f6620626f756e646044820152607360f81b60648201526084016104b5565b826002015f83855f01546118bf9190612b71565b815260208082019290925260409081015f20815180830190925280548252600101546001600160a01b0316918101919091529392505050565b5f6108af833384611de4565b5f81515f03611915575060016105fc565b81515f5b8181101561196657846001600160a01b031684828151811061193d5761193d612b84565b60200260200101516001600160a01b03160361195e576001925050506105fc565b600101611919565b505f949350505050565b805f036119cf5760405162461bcd60e51b815260206004820152602760248201527f54656c65706f727465724d657373656e6765723a207a65726f206d657373616760448201526665206e6f6e636560c81b60648201526084016104b5565b5f9182526007602052604090912055565b5f6119ef8484845f0151610aed565b5f818152600560209081526040918290208251808401845281548152835180850190945260018201546001600160a01b031684526002909101548383015290810191909152805191925090611a45575050505050565b5f8281526005602090815260408083208381556001810180546001600160a01b03191690556002018390558382018051830151878401516001600160a01b0390811686526009855283862092515116855292528220805491929091611aab908490612b71565b9250508190555082602001516001600160a01b031684837fd13a7935f29af029349bed0a2097455b91fd06190a30478c575db3f31e00bf578460200151604051611af5919061308f565b60405180910390a45050505050565b600182018054829160028501915f9182611b1d83613053565b9091555081526020808201929092526040015f2082518155910151600190910180546001600160a01b0319166001600160a01b039092169190911790555050565b80608001515a1015611bc05760405162461bcd60e51b815260206004820152602560248201527f54656c65706f727465724d657373656e6765723a20696e73756666696369656e604482015264742067617360d81b60648201526084016104b5565b80606001516001600160a01b03163b5f03611be0576114f3838383611f47565b602081015160e08201516040515f92611bfd9286926024016130af565b60408051601f198184030181529190526020810180516001600160e01b031663643477d560e11b179052606083015160808401519192505f91611c41919084611c8d565b905080611c5a57611c53858585611f47565b5050505050565b604051849086907f34795cc6b122b9a0ae684946319f1e14a577b4e8f9b3dda9ac94c21a54d3188c905f90a35050505050565b5f805f808451602086015f8989f195945050505050565b5f611cb86001600160a01b03841683611fbb565b905080515f14158015611cdc575080806020019051810190611cda91906130d8565b155b156114f357604051635274afe760e01b81526001600160a01b03841660048201526024016104b5565b5f818310611d1357816108af565b5090919050565b604080518082019091525f808252602082015281546001830154819003611d835760405162461bcd60e51b815260206004820152601960248201527f5265636569707451756575653a20656d7074792071756575650000000000000060448201526064016104b5565b5f8181526002840160208181526040808420815180830190925280548252600180820180546001600160a01b03811685870152888852959094529490556001600160a01b0319909216905590611dda908390612b71565b9093555090919050565b6040516370a0823160e01b81523060048201525f9081906001600160a01b038616906370a0823190602401602060405180830381865afa158015611e2a573d5f803e3d5ffd5b505050506040513d601f19601f82011682018060405250810190611e4e9190612423565b9050611e656001600160a01b038616853086611fc8565b6040516370a0823160e01b81523060048201525f906001600160a01b038716906370a0823190602401602060405180830381865afa158015611ea9573d5f803e3d5ffd5b505050506040513d601f19601f82011682018060405250810190611ecd9190612423565b9050818111611f335760405162461bcd60e51b815260206004820152602c60248201527f5361666545524332305472616e7366657246726f6d3a2062616c616e6365206e60448201526b1bdd081a5b98dc99585cd95960a21b60648201526084016104b5565b611f3d8282613040565b9695505050505050565b80604051602001611f58919061306b565b60408051601f1981840301815282825280516020918201205f878152600690925291902055829084907f4619adc1017b82e02eaefac01a43d50d6d8de4460774bc370c3ff0210d40c98590611fae90859061306b565b60405180910390a3505050565b60606108af83835f612007565b6040516001600160a01b0384811660248301528381166044830152606482018390526120019186918216906323b872dd906084016114c1565b50505050565b60608147101561202c5760405163cd78605960e01b81523060048201526024016104b5565b5f80856001600160a01b0316848660405161204791906130f1565b5f6040518083038185875af1925050503d805f8114612081576040519150601f19603f3d011682016040523d82523d5f602084013e612086565b606091505b5091509150611f3d8683836060826120a6576120a1826120ed565b6108af565b81511580156120bd57506001600160a01b0384163b155b156120e657604051639996b31560e01b81526001600160a01b03851660048201526024016104b5565b50806108af565b8051156120fd5780518082602001fd5b604051630a12f52160e11b815260040160405180910390fd5b50565b6001600160a01b0381168114612116575f80fd5b80356104ee81612119565b5f60208284031215612148575f80fd5b81356108af81612119565b5f60208284031215612163575f80fd5b5035919050565b828152606081016108af602083018480516001600160a01b03168252602090810151910152565b5f602082840312156121a1575f80fd5b81356001600160401b038111156121b6575f80fd5b820160e081850312156108af575f80fd5b5f61010082840312156121d8575f80fd5b50919050565b5f602082840312156121ee575f80fd5b81356001600160401b03811115612203575f80fd5b611222848285016121c7565b5f8060408385031215612220575f80fd5b50508035926020909101359150565b815181526020808301516001600160a01b031690820152604081016105fc565b5f805f60608486031215612261575f80fd5b83359250602084013561227381612119565b929592945050506040919091013590565b5f805f60608486031215612296575f80fd5b505081359360208301359350604090920135919050565b5f8083601f8401126122bd575f80fd5b5081356001600160401b038111156122d3575f80fd5b6020830191508360208260051b85010111156122ed575f80fd5b9250929050565b5f805f805f8086880360a081121561230a575f80fd5b8735965060208801356001600160401b0380821115612327575f80fd5b6123338b838c016122ad565b90985096508691506040603f198401121561234c575f80fd5b60408a01955060808a0135925080831115612365575f80fd5b505061237389828a016122ad565b979a9699509497509295939492505050565b5f8060408385031215612396575f80fd5b82356123a181612119565b915060208301356123b181612119565b809150509250929050565b5f80604083850312156123cd575f80fd5b823563ffffffff811681146123a1575f80fd5b5f80604083850312156123f1575f80fd5b8235915060208301356001600160401b0381111561240d575f80fd5b612419858286016121c7565b9150509250929050565b5f60208284031215612433575f80fd5b5051919050565b60208082526027908201527f54656c65706f727465724d657373656e6765723a207a65726f20626c6f636b636040820152661a185a5b88125160ca1b606082015260800190565b60208082526023908201527f5265656e7472616e63794775617264733a2073656e646572207265656e7472616040820152626e637960e81b606082015260800190565b634e487b7160e01b5f52604160045260245ffd5b604080519081016001600160401b03811182821017156124fa576124fa6124c4565b60405290565b60405160c081016001600160401b03811182821017156124fa576124fa6124c4565b60405161010081016001600160401b03811182821017156124fa576124fa6124c4565b604051601f8201601f191681016001600160401b038111828210171561256d5761256d6124c4565b604052919050565b5f60408284031215612585575f80fd5b61258d6124d8565b9050813561259a81612119565b808252506020820135602082015292915050565b5f6001600160401b038211156125c6576125c66124c4565b5060051b60200190565b5f82601f8301126125df575f80fd5b813560206125f46125ef836125ae565b612545565b8083825260208201915060208460051b870101935086841115612615575f80fd5b602086015b8481101561263a57803561262d81612119565b835291830191830161261a565b509695505050505050565b5f6001600160401b0382111561265d5761265d6124c4565b50601f01601f191660200190565b5f82601f83011261267a575f80fd5b81356126886125ef82612645565b81815284602083860101111561269c575f80fd5b816020850160208301375f918101602001919091529392505050565b5f60e082360312156126c8575f80fd5b6126d0612500565b823581526126e06020840161212d565b60208201526126f23660408501612575565b60408201526080830135606082015260a08301356001600160401b038082111561271a575f80fd5b612726368387016125d0565b608084015260c085013591508082111561273e575f80fd5b5061274b3682860161266b565b60a08301525092915050565b60208082526026908201527f54656c65706f727465724d657373656e6765723a206d657373616765206e6f7460408201526508199bdd5b9960d21b606082015260800190565b5f808335601e198436030181126127b2575f80fd5b83016020810192503590506001600160401b038111156127d0575f80fd5b8060051b36038213156122ed575f80fd5b8183525f60208085019450825f5b8581101561281d57813561280281612119565b6001600160a01b0316875295820195908201906001016127ef565b509495945050505050565b5f808335601e1984360301811261283d575f80fd5b83016020810192503590506001600160401b0381111561285b575f80fd5b8060061b36038213156122ed575f80fd5b8183525f60208085019450825f5b8581101561281d57813587528282013561289381612119565b6001600160a01b031687840152604096870196919091019060010161287a565b5f808335601e198436030181126128c8575f80fd5b83016020810192503590506001600160401b038111156128e6575f80fd5b8036038213156122ed575f80fd5b81835281816020850137505f828201602090810191909152601f909101601f19169091010190565b5f61010082358452602083013561293281612119565b6001600160a01b03166020850152604083810135908501526129566060840161212d565b6001600160a01b031660608501526080838101359085015261297b60a084018461279d565b8260a087015261298e83870182846127e1565b9250505061299f60c0840184612828565b85830360c08701526129b283828461286c565b925050506129c360e08401846128b3565b85830360e0870152611f3d8382846128f4565b602081525f6108af602083018461291c565b60208082526029908201527f54656c65706f727465724d657373656e6765723a20696e76616c6964206d65736040820152680e6c2ceca40d0c2e6d60bb1b606082015260800190565b606081525f612a43606083018561291c565b90506108af602083018480516001600160a01b03168252602090810151910152565b5f5b83811015612a7f578181015183820152602001612a67565b50505f910152565b5f8151808452612a9e816020860160208601612a65565b601f01601f19169290920160200192915050565b602081525f6108af6020830184612a87565b60208082526025908201527f5265656e7472616e63794775617264733a207265636569766572207265656e7460408201526472616e637960d81b606082015260800190565b60208082526034908201527f54656c65706f727465724d657373656e6765723a207a65726f2066656520617360408201527373657420636f6e7472616374206164647265737360601b606082015260800190565b634e487b7160e01b5f52601160045260245ffd5b808201808211156105fc576105fc612b5d565b634e487b7160e01b5f52603260045260245ffd5b5f60408284031215612ba8575f80fd5b6108af8383612575565b80516104ee81612119565b5f82601f830112612bcc575f80fd5b8151612bda6125ef82612645565b818152846020838601011115612bee575f80fd5b611222826020830160208701612a65565b805180151581146104ee575f80fd5b5f8060408385031215612c1f575f80fd5b82516001600160401b0380821115612c35575f80fd5b9084019060608287031215612c48575f80fd5b604051606081018181108382111715612c6357612c636124c4565b604052825181526020830151612c7881612119565b6020820152604083015182811115612c8e575f80fd5b612c9a88828601612bbd565b6040830152509350612cb191505060208401612bff565b90509250929050565b5f82601f830112612cc9575f80fd5b81516020612cd96125ef836125ae565b8083825260208201915060208460051b870101935086841115612cfa575f80fd5b602086015b8481101561263a578051612d1281612119565b8352918301918301612cff565b5f82601f830112612d2e575f80fd5b81516020612d3e6125ef836125ae565b82815260069290921b84018101918181019086841115612d5c575f80fd5b8286015b8481101561263a5760408189031215612d77575f80fd5b612d7f6124d8565b8151815284820151612d9081612119565b81860152835291830191604001612d60565b5f60208284031215612db2575f80fd5b81516001600160401b0380821115612dc8575f80fd5b908301906101008286031215612ddc575f80fd5b612de4612522565b82518152612df460208401612bb2565b602082015260408301516040820152612e0f60608401612bb2565b60608201526080830151608082015260a083015182811115612e2f575f80fd5b612e3b87828601612cba565b60a08301525060c083015182811115612e52575f80fd5b612e5e87828601612d1f565b60c08301525060e083015182811115612e75575f80fd5b612e8187828601612bbd565b60e08301525095945050505050565b5f815180845260208085019450602084015f5b8381101561281d5781516001600160a01b031687529582019590820190600101612ea3565b5f815180845260208085019450602084015f5b8381101561281d57612f01878351805182526020908101516001600160a01b0316910152565b6040969096019590820190600101612edb565b5f6101008251845260018060a01b036020840151166020850152604083015160408501526060830151612f5260608601826001600160a01b03169052565b506080830151608085015260a08301518160a0860152612f7482860182612e90565b91505060c083015184820360c0860152612f8e8282612ec8565b91505060e083015184820360e0860152612fa88282612a87565b95945050505050565b6001600160a01b03831681526040602082018190525f9061122290830184612f14565b5f808335601e19843603018112612fe9575f80fd5b8301803591506001600160401b03821115613002575f80fd5b6020019150368190038213156122ed575f80fd5b8481526001600160a01b03841660208201526060604082018190525f90611f3d90830184866128f4565b818103818111156105fc576105fc612b5d565b5f6001820161306457613064612b5d565b5060010190565b602081525f6108af6020830184612f14565b606081525f612a436060830185612f14565b81516001600160a01b0316815260208083015190820152604081016105fc565b8381526001600160a01b03831660208201526060604082018190525f90612fa890830184612a87565b5f602082840312156130e8575f80fd5b6108af82612bff565b5f8251613102818460208701612a65565b919091019291505056fea164736f6c6343000819000a",
    "linkReferences": {}
  },
  "methodIdentifiers": {
    "WARP_MESSENGER()": "b771b3bc",
    "addFeeAmount(bytes32,address,uint256)": "8ac0fd04",
    "blockchainID()": "d127dc9b",
    "calculateMessageID(bytes32,bytes32,uint256)": "a8898181",
    "checkRelayerRewardAmount(address,address)": "c473eef8",
    "getFeeInfo(bytes32)": "e69d606a",
    "getMessageHash(bytes32)": "399b77da",
    "getNextMessageID(bytes32)": "df20e8bc",
    "getReceiptAtIndex(bytes32,uint256)": "892bf412",
    "getReceiptQueueSize(bytes32)": "2bc8b0bf",
    "getRelayerRewardAddress(bytes32)": "2e27c223",
    "initializeBlockchainID()": "0af5b4ff",
    "messageNonce()": "ecc70428",
    "messageReceived(bytes32)": "ebc3b1ba",
    "receiptQueues(bytes32)": "e6e67bd5",
    "receiveCrossChainMessage(uint32,address)": "ccb5f809",
    "receivedFailedMessageHashes(bytes32)": "860a3b06",
    "redeemRelayerRewards(address)": "22296c3a",
    "retryMessageExecution(bytes32,(uint256,address,bytes32,address,uint256,address[],(uint256,address)[],bytes))": "fc2d6197",
    "retrySendCrossChainMessage((uint256,address,bytes32,address,uint256,address[],(uint256,address)[],bytes))": "8245a1b0",
    "sendCrossChainMessage((bytes32,address,(address,uint256),uint256,address[],bytes))": "62448850",
    "sendSpecifiedReceipts(bytes32,bytes32[],(address,uint256),address[])": "a9a85614",
    "sentMessageInfo(bytes32)": "2ca40f55"
  },
  "id": 45
}