{
  "abi": [
    {
      "type": "constructor",
      "inputs": [
        {
          "name": "init",
          "type": "uint8",
          "internalType": "enum ICMInitializable"
        }
      ],
      "stateMutability": "nonpayable"
    },
    {
      "type": "function",
      "name": "BLS_PUBLIC_KEY_LENGTH",
      "inputs": [],
      "outputs": [
        {
          "name": "",
          "type": "uint8",
          "internalType": "uint8"
        }
      ],
      "stateMutability": "view"
    },
    {
      "type": "function",
      "name": "MAXIMUM_CHURN_PERCENTAGE_LIMIT",
      "inputs": [],
      "outputs": [
        {
          "name": "",
          "type": "uint8",
          "internalType": "uint8"
        }
      ],
      "stateMutability": "view"
    },
    {
      "type": "function",
      "name": "MAXIMUM_CHURN_PERIOD_LENGTH",
      "inputs": [],
      "outputs": [
        {
          "name": "",
          "type": "uint64",
          "internalType": "uint64"
        }
      ],
      "stateMutability": "view"
    },
    {
      "type": "function",
      "name": "NODE_ID_LENGTH",
      "inputs": [],
      "outputs": [
        {
          "name": "",
          "type": "uint32",
          "internalType": "uint32"
        }
      ],
      "stateMutability": "view"
    },
    {
      "type": "function",
      "name": "P_CHAIN_BLOCKCHAIN_ID",
      "inputs": [],
      "outputs": [
        {
          "name": "",
          "type": "bytes32",
          "internalType": "bytes32"
        }
      ],
      "stateMutability": "view"
    },
    {
      "type": "function",
      "name": "REGISTRATION_EXPIRY_LENGTH",
      "inputs": [],
      "outputs": [
        {
          "name": "",
          "type": "uint64",
          "internalType": "uint64"
        }
      ],
      "stateMutability": "view"
    },
    {
      "type": "function",
      "name": "VALIDATOR_MANAGER_STORAGE_LOCATION",
      "inputs": [],
      "outputs": [
        {
          "name": "",
          "type": "bytes32",
          "internalType": "bytes32"
        }
      ],
      "stateMutability": "view"
    },
    {
      "type": "function",
      "name": "WARP_MESSENGER",
      "inputs": [],
      "outputs": [
        {
          "name": "",
          "type": "address",
          "internalType": "contract IWarpMessenger"
        }
      ],
      "stateMutability": "view"
    },
    {
      "type": "function",
      "name": "completeValidatorRegistration",
      "inputs": [
        {
          "name": "messageIndex",
          "type": "uint32",
          "internalType": "uint32"
        }
      ],
      "outputs": [
        {
          "name": "",
          "type": "bytes32",
          "internalType": "bytes32"
        }
      ],
      "stateMutability": "nonpayable"
    },
    {
      "type": "function",
      "name": "completeValidatorRemoval",
      "inputs": [
        {
          "name": "messageIndex",
          "type": "uint32",
          "internalType": "uint32"
        }
      ],
      "outputs": [
        {
          "name": "",
          "type": "bytes32",
          "internalType": "bytes32"
        }
      ],
      "stateMutability": "nonpayable"
    },
    {
      "type": "function",
      "name": "completeValidatorWeightUpdate",
      "inputs": [
        {
          "name": "messageIndex",
          "type": "uint32",
          "internalType": "uint32"
        }
      ],
      "outputs": [
        {
          "name": "",
          "type": "bytes32",
          "internalType": "bytes32"
        },
        {
          "name": "",
          "type": "uint64",
          "internalType": "uint64"
        }
      ],
      "stateMutability": "nonpayable"
    },
    {
      "type": "function",
      "name": "getChurnPeriodSeconds",
      "inputs": [],
      "outputs": [
        {
          "name": "",
          "type": "uint64",
          "internalType": "uint64"
        }
      ],
      "stateMutability": "view"
    },
    {
      "type": "function",
      "name": "getChurnTracker",
      "inputs": [],
      "outputs": [
        {
          "name": "",
          "type": "uint64",
          "internalType": "uint64"
        },
        {
          "name": "",
          "type": "uint8",
          "internalType": "uint8"
        },
        {
          "name": "",
          "type": "tuple",
          "internalType": "struct ValidatorChurnPeriod",
          "components": [
            {
              "name": "startTime",
              "type": "uint256",
              "internalType": "uint256"
            },
            {
              "name": "initialWeight",
              "type": "uint64",
              "internalType": "uint64"
            },
            {
              "name": "totalWeight",
              "type": "uint64",
              "internalType": "uint64"
            },
            {
              "name": "churnAmount",
              "type": "uint64",
              "internalType": "uint64"
            }
          ]
        }
      ],
      "stateMutability": "view"
    },
    {
      "type": "function",
      "name": "getNodeValidationID",
      "inputs": [
        {
          "name": "nodeID",
          "type": "bytes",
          "internalType": "bytes"
        }
      ],
      "outputs": [
        {
          "name": "",
          "type": "bytes32",
          "internalType": "bytes32"
        }
      ],
      "stateMutability": "view"
    },
    {
      "type": "function",
      "name": "getValidator",
      "inputs": [
        {
          "name": "validationID",
          "type": "bytes32",
          "internalType": "bytes32"
        }
      ],
      "outputs": [
        {
          "name": "",
          "type": "tuple",
          "internalType": "struct Validator",
          "components": [
            {
              "name": "status",
              "type": "uint8",
              "internalType": "enum ValidatorStatus"
            },
            {
              "name": "nodeID",
              "type": "bytes",
              "internalType": "bytes"
            },
            {
              "name": "startingWeight",
              "type": "uint64",
              "internalType": "uint64"
            },
            {
              "name": "sentNonce",
              "type": "uint64",
              "internalType": "uint64"
            },
            {
              "name": "receivedNonce",
              "type": "uint64",
              "internalType": "uint64"
            },
            {
              "name": "weight",
              "type": "uint64",
              "internalType": "uint64"
            },
            {
              "name": "startTime",
              "type": "uint64",
              "internalType": "uint64"
            },
            {
              "name": "endTime",
              "type": "uint64",
              "internalType": "uint64"
            }
          ]
        }
      ],
      "stateMutability": "view"
    },
    {
      "type": "function",
      "name": "initialize",
      "inputs": [
        {
          "name": "settings",
          "type": "tuple",
          "internalType": "struct ValidatorManagerSettings",
          "components": [
            {
              "name": "admin",
              "type": "address",
              "internalType": "address"
            },
            {
              "name": "subnetID",
              "type": "bytes32",
              "internalType": "bytes32"
            },
            {
              "name": "churnPeriodSeconds",
              "type": "uint64",
              "internalType": "uint64"
            },
            {
              "name": "maximumChurnPercentage",
              "type": "uint8",
              "internalType": "uint8"
            }
          ]
        }
      ],
      "outputs": [],
      "stateMutability": "nonpayable"
    },
    {
      "type": "function",
      "name": "initializeValidatorSet",
      "inputs": [
        {
          "name": "conversionData",
          "type": "tuple",
          "internalType": "struct ConversionData",
          "components": [
            {
              "name": "subnetID",
              "type": "bytes32",
              "internalType": "bytes32"
            },
            {
              "name": "validatorManagerBlockchainID",
              "type": "bytes32",
              "internalType": "bytes32"
            },
            {
              "name": "validatorManagerAddress",
              "type": "address",
              "internalType": "address"
            },
            {
              "name": "initialValidators",
              "type": "tuple[]",
              "internalType": "struct InitialValidator[]",
              "components": [
                {
                  "name": "nodeID",
                  "type": "bytes",
                  "internalType": "bytes"
                },
                {
                  "name": "blsPublicKey",
                  "type": "bytes",
                  "internalType": "bytes"
                },
                {
                  "name": "weight",
                  "type": "uint64",
                  "internalType": "uint64"
                }
              ]
            }
          ]
        },
        {
          "name": "messageIndex",
          "type": "uint32",
          "internalType": "uint32"
        }
      ],
      "outputs": [],
      "stateMutability": "nonpayable"
    },
    {
      "type": "function",
      "name": "initiateValidatorRegistration",
      "inputs": [
        {
          "name": "nodeID",
          "type": "bytes",
          "internalType": "bytes"
        },
        {
          "name": "blsPublicKey",
          "type": "bytes",
          "internalType": "bytes"
        },
        {
          "name": "remainingBalanceOwner",
          "type": "tuple",
          "internalType": "struct PChainOwner",
          "components": [
            {
              "name": "threshold",
              "type": "uint32",
              "internalType": "uint32"
            },
            {
              "name": "addresses",
              "type": "address[]",
              "internalType": "address[]"
            }
          ]
        },
        {
          "name": "disableOwner",
          "type": "tuple",
          "internalType": "struct PChainOwner",
          "components": [
            {
              "name": "threshold",
              "type": "uint32",
              "internalType": "uint32"
            },
            {
              "name": "addresses",
              "type": "address[]",
              "internalType": "address[]"
            }
          ]
        },
        {
          "name": "weight",
          "type": "uint64",
          "internalType": "uint64"
        }
      ],
      "outputs": [
        {
          "name": "",
          "type": "bytes32",
          "internalType": "bytes32"
        }
      ],
      "stateMutability": "nonpayable"
    },
    {
      "type": "function",
      "name": "initiateValidatorRemoval",
      "inputs": [
        {
          "name": "validationID",
          "type": "bytes32",
          "internalType": "bytes32"
        }
      ],
      "outputs": [],
      "stateMutability": "nonpayable"
    },
    {
      "type": "function",
      "name": "initiateValidatorWeightUpdate",
      "inputs": [
        {
          "name": "validationID",
          "type": "bytes32",
          "internalType": "bytes32"
        },
        {
          "name": "newWeight",
          "type": "uint64",
          "internalType": "uint64"
        }
      ],
      "outputs": [
        {
          "name": "",
          "type": "uint64",
          "internalType": "uint64"
        },
        {
          "name": "",
          "type": "bytes32",
          "internalType": "bytes32"
        }
      ],
      "stateMutability": "nonpayable"
    },
    {
      "type": "function",
      "name": "isValidatorSetInitialized",
      "inputs": [],
      "outputs": [
        {
          "name": "",
          "type": "bool",
          "internalType": "bool"
        }
      ],
      "stateMutability": "view"
    },
    {
      "type": "function",
      "name": "l1TotalWeight",
      "inputs": [],
      "outputs": [
        {
          "name": "",
          "type": "uint64",
          "internalType": "uint64"
        }
      ],
      "stateMutability": "view"
    },
    {
      "type": "function",
      "name": "migrateFromV1",
      "inputs": [
        {
          "name": "validationID",
          "type": "bytes32",
          "internalType": "bytes32"
        },
        {
          "name": "receivedNonce",
          "type": "uint32",
          "internalType": "uint32"
        }
      ],
      "outputs": [],
      "stateMutability": "nonpayable"
    },
    {
      "type": "function",
      "name": "owner",
      "inputs": [],
      "outputs": [
        {
          "name": "",
          "type": "address",
          "internalType": "address"
        }
      ],
      "stateMutability": "view"
    },
    {
      "type": "function",
      "name": "renounceOwnership",
      "inputs": [],
      "outputs": [],
      "stateMutability": "nonpayable"
    },
    {
      "type": "function",
      "name": "resendRegisterValidatorMessage",
      "inputs": [
        {
          "name": "validationID",
          "type": "bytes32",
          "internalType": "bytes32"
        }
      ],
      "outputs": [],
      "stateMutability": "nonpayable"
    },
    {
      "type": "function",
      "name": "resendValidatorRemovalMessage",
      "inputs": [
        {
          "name": "validationID",
          "type": "bytes32",
          "internalType": "bytes32"
        }
      ],
      "outputs": [],
      "stateMutability": "nonpayable"
    },
    {
      "type": "function",
      "name": "subnetID",
      "inputs": [],
      "outputs": [
        {
          "name": "",
          "type": "bytes32",
          "internalType": "bytes32"
        }
      ],
      "stateMutability": "view"
    },
    {
      "type": "function",
      "name": "transferOwnership",
      "inputs": [
        {
          "name": "newOwner",
          "type": "address",
          "internalType": "address"
        }
      ],
      "outputs": [],
      "stateMutability": "nonpayable"
    },
    {
      "type": "event",
      "name": "CompletedValidatorRegistration",
      "inputs": [
        {
          "name": "validationID",
          "type": "bytes32",
          "indexed": true,
          "internalType": "bytes32"
        },
        {
          "name": "weight",
          "type": "uint64",
          "indexed": false,
          "internalType": "uint64"
        }
      ],
      "anonymous": false
    },
    {
      "type": "event",
      "name": "CompletedValidatorRemoval",
      "inputs": [
        {
          "name": "validationID",
          "type": "bytes32",
          "indexed": true,
          "internalType": "bytes32"
        }
      ],
      "anonymous": false
    },
    {
      "type": "event",
      "name": "CompletedValidatorWeightUpdate",
      "inputs": [
        {
          "name": "validationID",
          "type": "bytes32",
          "indexed": true,
          "internalType": "bytes32"
        },
        {
          "name": "nonce",
          "type": "uint64",
          "indexed": false,
          "internalType": "uint64"
        },
        {
          "name": "weight",
          "type": "uint64",
          "indexed": false,
          "internalType": "uint64"
        }
      ],
      "anonymous": false
    },
    {
      "type": "event",
      "name": "Initialized",
      "inputs": [
        {
          "name": "version",
          "type": "uint64",
          "indexed": false,
          "internalType": "uint64"
        }
      ],
      "anonymous": false
    },
    {
      "type": "event",
      "name": "InitiatedValidatorRegistration",
      "inputs": [
        {
          "name": "validationID",
          "type": "bytes32",
          "indexed": true,
          "internalType": "bytes32"
        },
        {
          "name": "nodeID",
          "type": "bytes20",
          "indexed": true,
          "internalType": "bytes20"
        },
        {
          "name": "registrationMessageID",
          "type": "bytes32",
          "indexed": false,
          "internalType": "bytes32"
        },
        {
          "name": "registrationExpiry",
          "type": "uint64",
          "indexed": false,
          "internalType": "uint64"
        },
        {
          "name": "weight",
          "type": "uint64",
          "indexed": false,
          "internalType": "uint64"
        }
      ],
      "anonymous": false
    },
    {
      "type": "event",
      "name": "InitiatedValidatorRemoval",
      "inputs": [
        {
          "name": "validationID",
          "type": "bytes32",
          "indexed": true,
          "internalType": "bytes32"
        },
        {
          "name": "validatorWeightMessageID",
          "type": "bytes32",
          "indexed": false,
          "internalType": "bytes32"
        },
        {
          "name": "weight",
          "type": "uint64",
          "indexed": false,
          "internalType": "uint64"
        },
        {
          "name": "endTime",
          "type": "uint64",
          "indexed": false,
          "internalType": "uint64"
        }
      ],
      "anonymous": false
    },
    {
      "type": "event",
      "name": "InitiatedValidatorWeightUpdate",
      "inputs": [
        {
          "name": "validationID",
          "type": "bytes32",
          "indexed": true,
          "internalType": "bytes32"
        },
        {
          "name": "nonce",
          "type": "uint64",
          "indexed": false,
          "internalType": "uint64"
        },
        {
          "name": "weightUpdateMessageID",
          "type": "bytes32",
          "indexed": false,
          "internalType": "bytes32"
        },
        {
          "name": "weight",
          "type": "uint64",
          "indexed": false,
          "internalType": "uint64"
        }
      ],
      "anonymous": false
    },
    {
      "type": "event",
      "name": "OwnershipTransferred",
      "inputs": [
        {
          "name": "previousOwner",
          "type": "address",
          "indexed": true,
          "internalType": "address"
        },
        {
          "name": "newOwner",
          "type": "address",
          "indexed": true,
          "internalType": "address"
        }
      ],
      "anonymous": false
    },
    {
      "type": "event",
      "name": "RegisteredInitialValidator",
      "inputs": [
        {
          "name": "validationID",
          "type": "bytes32",
          "indexed": true,
          "internalType": "bytes32"
        },
        {
          "name": "nodeID",
          "type": "bytes20",
          "indexed": true,
          "internalType": "bytes20"
        },
        {
          "name": "subnetID",
          "type": "bytes32",
          "indexed": true,
          "internalType": "bytes32"
        },
        {
          "name": "weight",
          "type": "uint64",
          "indexed": false,
          "internalType": "uint64"
        }
      ],
      "anonymous": false
    },
    {
      "type": "error",
      "name": "InvalidBLSKeyLength",
      "inputs": [
        {
          "name": "length",
          "type": "uint256",
          "internalType": "uint256"
        }
      ]
    },
    {
      "type": "error",
      "name": "InvalidChurnPeriodLength",
      "inputs": [
        {
          "name": "churnPeriodLength",
          "type": "uint64",
          "internalType": "uint64"
        }
      ]
    },
    {
      "type": "error",
      "name": "InvalidConversionID",
      "inputs": [
        {
          "name": "encodedConversionID",
          "type": "bytes32",
          "internalType": "bytes32"
        },
        {
          "name": "expectedConversionID",
          "type": "bytes32",
          "internalType": "bytes32"
        }
      ]
    },
    {
      "type": "error",
      "name": "InvalidInitialization",
      "inputs": []
    },
    {
      "type": "error",
      "name": "InvalidInitializationStatus",
      "inputs": []
    },
    {
      "type": "error",
      "name": "InvalidMaximumChurnPercentage",
      "inputs": [
        {
          "name": "maximumChurnPercentage",
          "type": "uint8",
          "internalType": "uint8"
        }
      ]
    },
    {
      "type": "error",
      "name": "InvalidNodeID",
      "inputs": [
        {
          "name": "nodeID",
          "type": "bytes",
          "internalType": "bytes"
        }
      ]
    },
    {
      "type": "error",
      "name": "InvalidNonce",
      "inputs": [
        {
          "name": "nonce",
          "type": "uint64",
          "internalType": "uint64"
        }
      ]
    },
    {
      "type": "error",
      "name": "InvalidPChainOwnerAddresses",
      "inputs": []
    },
    {
      "type": "error",
      "name": "InvalidPChainOwnerThreshold",
      "inputs": [
        {
          "name": "threshold",
          "type": "uint256",
          "internalType": "uint256"
        },
        {
          "name": "addressesLength",
          "type": "uint256",
          "internalType": "uint256"
        }
      ]
    },
    {
      "type": "error",
      "name": "InvalidTotalWeight",
      "inputs": [
        {
          "name": "weight",
          "type": "uint64",
          "internalType": "uint64"
        }
      ]
    },
    {
      "type": "error",
      "name": "InvalidValidationID",
      "inputs": [
        {
          "name": "validationID",
          "type": "bytes32",
          "internalType": "bytes32"
        }
      ]
    },
    {
      "type": "error",
      "name": "InvalidValidatorManagerAddress",
      "inputs": [
        {
          "name": "validatorManagerAddress",
          "type": "address",
          "internalType": "address"
        }
      ]
    },
    {
      "type": "error",
      "name": "InvalidValidatorManagerBlockchainID",
      "inputs": [
        {
          "name": "blockchainID",
          "type": "bytes32",
          "internalType": "bytes32"
        }
      ]
    },
    {
      "type": "error",
      "name": "InvalidValidatorStatus",
      "inputs": [
        {
          "name": "status",
          "type": "uint8",
          "internalType": "enum ValidatorStatus"
        }
      ]
    },
    {
      "type": "error",
      "name": "InvalidWarpMessage",
      "inputs": []
    },
    {
      "type": "error",
      "name": "InvalidWarpOriginSenderAddress",
      "inputs": [
        {
          "name": "senderAddress",
          "type": "address",
          "internalType": "address"
        }
      ]
    },
    {
      "type": "error",
      "name": "InvalidWarpSourceChainID",
      "inputs": [
        {
          "name": "sourceChainID",
          "type": "bytes32",
          "internalType": "bytes32"
        }
      ]
    },
    {
      "type": "error",
      "name": "MaxChurnRateExceeded",
      "inputs": [
        {
          "name": "churnAmount",
          "type": "uint64",
          "internalType": "uint64"
        }
      ]
    },
    {
      "type": "error",
      "name": "NodeAlreadyRegistered",
      "inputs": [
        {
          "name": "nodeID",
          "type": "bytes",
          "internalType": "bytes"
        }
      ]
    },
    {
      "type": "error",
      "name": "NotInitializing",
      "inputs": []
    },
    {
      "type": "error",
      "name": "OwnableInvalidOwner",
      "inputs": [
        {
          "name": "owner",
          "type": "address",
          "internalType": "address"
        }
      ]
    },
    {
      "type": "error",
      "name": "OwnableUnauthorizedAccount",
      "inputs": [
        {
          "name": "account",
          "type": "address",
          "internalType": "address"
        }
      ]
    },
    {
      "type": "error",
      "name": "UnexpectedRegistrationStatus",
      "inputs": [
        {
          "name": "validRegistration",
          "type": "bool",
          "internalType": "bool"
        }
      ]
    },
    {
      "type": "error",
      "name": "ZeroAddress",
      "inputs": []
    }
  ],
  "bytecode": {
    "object": "0x608060405234801561000f575f80fd5b50604051613da8380380613da883398101604081905261002e91610107565b60018160018111156100425761004261012c565b0361004f5761004f610055565b50610140565b7ff0c57e16840df040f15088dc2f81fe391c3923bec73e23a9662efc9c229c6a00805468010000000000000000900460ff16156100a55760405163f92ee8a960e01b815260040160405180910390fd5b80546001600160401b03908116146101045780546001600160401b0319166001600160401b0390811782556040519081527fc7f505b2f371ae2175ee4913f4499e1f2633a7b5936321eed1cdaeb6115181d29060200160405180910390a15b50565b5f60208284031215610117575f80fd5b815160028110610125575f80fd5b9392505050565b634e487b7160e01b5f52602160045260245ffd5b613c5b8061014d5f395ff3fe608060405234801561000f575f80fd5b50600436106101c6575f3560e01c80639681d940116100fe578063bc5fbfec1161009e578063d47a948b1161006e578063d47a948b1461045d578063d5f20ff614610470578063efc008fb146103b8578063f2fde38b14610490575f80fd5b8063bc5fbfec146103eb578063bee0a03f14610412578063c974d1b614610425578063ce161f141461042d575f80fd5b8063b6c2fd41116100d9578063b6c2fd41146103b8578063b6e6a2ca146103c2578063b771b3bc146103d5578063bb0b1938146103e3575f80fd5b80639681d9401461037f5780639cb7624e14610392578063a3a65e48146103a5575f80fd5b80636610966911610169578063732214f811610144578063732214f814610307578063736c87be1461030e5780638280a25a146103215780638da5cb5b1461033b575f80fd5b806366109669146102ba57806366edba73146102ec578063715018a6146102ff575f80fd5b80634d693536116101a45780634d693536146102175780635bd93e881461026f5780635dc1f5351461028757806363e2ca971461029d575f80fd5b806309c1df66146101ca57806320d91b7a146101ef57806330ffe4d714610204575b5f80fd5b6101d26104a3565b6040516001600160401b0390911681526020015b60405180910390f35b6102026101fd366004612e38565b6104be565b005b610202610212366004612e82565b610a7f565b61021f610d2a565b604080516001600160401b03948516815260ff90931660208085019190915282518483015282015184166060808501919091529082015184166080840152015190911660a082015260c0016101e6565b610277610db5565b60405190151581526020016101e6565b61028f610dcc565b6040519081526020016101e6565b6102a5601481565b60405163ffffffff90911681526020016101e6565b6102cd6102c8366004612eb7565b610ddb565b604080516001600160401b0390931683526020830191909152016101e6565b6102026102fa366004612ee5565b610e60565b6102026110ea565b61028f5f81565b61020261031c366004612efc565b6110fd565b610329603081565b60405160ff90911681526020016101e6565b7f9016d09d72d40fdae2fd8ceac6b6234c7706214fd39c1cd1e609a0528c199300546001600160a01b03165b6040516001600160a01b0390911681526020016101e6565b61028f61038d366004612f1d565b611209565b61028f6103a0366004613119565b611604565b61028f6103b3366004612f1d565b611624565b6101d26201518081565b6102026103d0366004612ee5565b61181a565b6103676005600160991b0181565b6101d261182e565b61028f7fe92546d698950ddd38910d2e15ed1d923cd0a7b3dde9e2a6a3f380565559cb0081565b610202610420366004612ee5565b611850565b610329601481565b61044061043b366004612f1d565b611970565b604080519283526001600160401b039091166020830152016101e6565b61028f61046b3660046131d2565b611afb565b61048361047e366004612ee5565b611b34565b6040516101e691906132be565b61020261049e366004613374565b611cb9565b5f6104ac611cf3565b600101546001600160401b0316919050565b5f6104c7611cf3565b600781015490915060ff16156104f057604051637fab81e560e01b815260040160405180910390fd5b6005600160991b016001600160a01b0316634213cf786040518163ffffffff1660e01b8152600401602060405180830381865afa158015610533573d5f803e3d5ffd5b505050506040513d601f19601f82011682018060405250810190610557919061338f565b836020013514610585576040516372b0a7e760e11b8152602084013560048201526024015b60405180910390fd5b306105966060850160408601613374565b6001600160a01b0316146105d9576105b46060840160408501613374565b604051632f88120d60e21b81526001600160a01b03909116600482015260240161057c565b5f73__$fd0c147b4031eef6079b0498cbafa865f0$__634d8478846105fd85611d17565b604001516040518263ffffffff1660e01b815260040161061d91906133a6565b602060405180830381865af4158015610638573d5f803e3d5ffd5b505050506040513d601f19601f8201168201806040525081019061065c919061338f565b90505f73__$fd0c147b4031eef6079b0498cbafa865f0$__6387418b8e866040518263ffffffff1660e01b815260040161069691906134e3565b5f60405180830381865af41580156106b0573d5f803e3d5ffd5b505050506040513d5f823e601f3d908101601f191682016040526106d791908101906135c1565b90505f6002826040516106ea91906135f2565b602060405180830381855afa158015610705573d5f803e3d5ffd5b5050506040513d601f19601f82011682018060405250810190610728919061338f565b90508281146107545760405163baaea89d60e01b8152600481018290526024810184905260440161057c565b5f610762606088018861360d565b905090505f805b828163ffffffff1610156109eb575f61078560608b018b61360d565b8363ffffffff1681811061079b5761079b613652565b90506020028101906107ad9190613666565b6107b69061367a565b80516040519192505f9160068b01916107ce916135f2565b908152602001604051809103902054146107fe57805160405163a41f772f60e01b815261057c91906004016133a6565b805151601414610824578051604051633e08a12560e11b815261057c91906004016133a6565b5f60028b5f01358460405160200161085392919091825260e01b6001600160e01b031916602082015260240190565b60408051601f198184030181529082905261086d916135f2565b602060405180830381855afa158015610888573d5f803e3d5ffd5b5050506040513d601f19601f820116820180604052508101906108ab919061338f565b90508089600601835f01516040516108c391906135f2565b90815260408051918290036020908101909220929092555f83815260088c0190915220805460ff1916600217815582516001909101906109039082613772565b50604082810180515f84815260088d016020529290922060028101805492516001600160401b0394851667ffffffffffffffff60801b90941693909317600160c01b858516021790556003018054429093166001600160801b0319909316929092179091556109729085613841565b8251602001519094508b35906bffffffffffffffffffffffff1916827f070e0f6540afd612d613b71036a6d45f8c5fa97770a7e2d55663d75474ce0c0d85604001516040516109d091906001600160401b0391909116815260200190565b60405180910390a45050806109e490613861565b9050610769565b506003860180546fffffffffffffffff00000000000000001916600160401b6001600160401b0384168102919091179091556001870154606491610a33910460ff1683613883565b6001600160401b03161015610a6657604051633e1a785160e01b81526001600160401b038216600482015260240161057c565b5050506007909201805460ff1916600117905550505050565b5f610a88611cf3565b5f8481526005820160205260408120919250815460ff166005811115610ab057610ab061323d565b03610ad15760405163089938b360e11b81526004810185905260240161057c565b6002810154600160401b90046001600160401b031663ffffffff84161115610b1457604051632e19bc2d60e11b815263ffffffff8416600482015260240161057c565b6040805161010081019091528154819060ff166005811115610b3857610b3861323d565b8152602001826001018054610b4c906136f5565b80601f0160208091040260200160405190810160405280929190818152602001828054610b78906136f5565b8015610bc35780601f10610b9a57610100808354040283529160200191610bc3565b820191905f5260205f20905b815481529060010190602001808311610ba657829003601f168201915b505050918352505060028301546001600160401b03808216602080850191909152600160401b8304821660408086019190915263ffffffff89166060860152600160801b840483166080860152600160c01b909304821660a0850152600386015490911660c0909301929092525f87815260088601909252902081518154829060ff19166001836005811115610c5b57610c5b61323d565b021790555060208201516001820190610c749082613772565b506040828101516002830180546060860151608087015160a08801516001600160401b039586166001600160801b031994851617600160401b9387168402176001600160801b0316600160801b928716929092026001600160c01b031691909117600160c01b918616919091021790925560c08601516003909501805460e09097015195841696909116959095179390911602919091179091555f94855260059290920160205250909120805460ff1916905550565b604080516080810182525f808252602082018190529181018290526060810182905281905f610d57611cf3565b600181015460408051608081018252600284015481526003909301546001600160401b038082166020860152600160401b808304821693860193909352600160801b90910481166060850152821697910460ff169550909350915050565b5f80610dbf611cf3565b6007015460ff1692915050565b5f610dd5611cf3565b54919050565b5f80610de5611e2d565b5f610dee611cf3565b905060025f86815260088301602052604090205460ff166005811115610e1657610e1661323d565b14610e49575f8581526008820160205260409081902054905163170cc93360e21b815261057c9160ff16906004016138ae565b610e538585611e88565b92509250505b9250929050565b5f610e69611cf3565b5f8381526008820160205260408082208151610100810190925280549394509192909190829060ff166005811115610ea357610ea361323d565b6005811115610eb457610eb461323d565b8152602001600182018054610ec8906136f5565b80601f0160208091040260200160405190810160405280929190818152602001828054610ef4906136f5565b8015610f3f5780601f10610f1657610100808354040283529160200191610f3f565b820191905f5260205f20905b815481529060010190602001808311610f2257829003601f168201915b505050918352505060028201546001600160401b038082166020840152600160401b80830482166040850152600160801b830482166060850152600160c01b9092048116608084015260039384015480821660a0850152919091041660c09091015290915081516005811115610fb757610fb761323d565b14610fea575f8381526008830160205260409081902054905163170cc93360e21b815261057c9160ff16906004016138ae565b606081015160405163854a893f60e01b8152600481018590526001600160401b0390911660248201525f60448201526005600160991b019063ee5b48eb9073__$fd0c147b4031eef6079b0498cbafa865f0$__9063854a893f906064015f60405180830381865af4158015611061573d5f803e3d5ffd5b505050506040513d5f823e601f3d908101601f1916820160405261108891908101906135c1565b6040518263ffffffff1660e01b81526004016110a491906133a6565b6020604051808303815f875af11580156110c0573d5f803e3d5ffd5b505050506040513d601f19601f820116820180604052508101906110e4919061338f565b50505050565b6110f2611e2d565b6110fb5f612050565b565b7ff0c57e16840df040f15088dc2f81fe391c3923bec73e23a9662efc9c229c6a008054600160401b810460ff1615906001600160401b03165f811580156111415750825b90505f826001600160401b0316600114801561115c5750303b155b90508115801561116a575080155b156111885760405163f92ee8a960e01b815260040160405180910390fd5b845467ffffffffffffffff1916600117855583156111b257845460ff60401b1916600160401b1785555b6111bb866120c0565b831561120157845460ff60401b19168555604051600181527fc7f505b2f371ae2175ee4913f4499e1f2633a7b5936321eed1cdaeb6115181d29060200160405180910390a15b505050505050565b5f611212611e2d565b5f61121b611cf3565b90505f8073__$fd0c147b4031eef6079b0498cbafa865f0$__63021de88f61124287611d17565b604001516040518263ffffffff1660e01b815260040161126291906133a6565b6040805180830381865af415801561127c573d5f803e3d5ffd5b505050506040513d601f19601f820116820180604052508101906112a091906138cb565b9150915080156112c757604051632d07135360e01b8152811515600482015260240161057c565b5f828152600884016020526040808220815161010081019092528054829060ff1660058111156112f9576112f961323d565b600581111561130a5761130a61323d565b815260200160018201805461131e906136f5565b80601f016020809104026020016040519081016040528092919081815260200182805461134a906136f5565b80156113955780601f1061136c57610100808354040283529160200191611395565b820191905f5260205f20905b81548152906001019060200180831161137857829003601f168201915b505050918352505060028201546001600160401b038082166020840152600160401b80830482166040850152600160801b830482166060850152600160c01b9092048116608084015260039384015480821660a0850152919091041660c0909101529091508151600581111561140d5761140d61323d565b1415801561142e575060018151600581111561142b5761142b61323d565b14155b1561144f57805160405163170cc93360e21b815261057c91906004016138ae565b6003815160058111156114645761146461323d565b0361147257600481526114c3565b60a081015160038501805460089061149b908490600160401b90046001600160401b03166138ec565b82546001600160401b039182166101009390930a928302919092021990911617905550600581525b8360060181602001516040516114d991906135f2565b90815260408051602092819003830190205f908190558581526008870190925290208151815483929190829060ff1916600183600581111561151d5761151d61323d565b0217905550602082015160018201906115369082613772565b506040828101516002830180546060860151608087015160a08801516001600160401b039586166001600160801b031994851617600160401b9387168402176001600160801b0316600160801b928716929092026001600160c01b031691909117600160c01b918616919091021790925560c08601516003909501805460e09097015195841696909116959095179390911602919091179091555183907fafaccef7080649a725bc30a35359a257a4a27225be352875c80bdf6b5f04080c905f90a25090925050505b919050565b5f61160d611e2d565b61161a86868686866120e6565b9695505050505050565b5f61162d611e2d565b5f611636611cf3565b90505f8073__$fd0c147b4031eef6079b0498cbafa865f0$__63021de88f61165d87611d17565b604001516040518263ffffffff1660e01b815260040161167d91906133a6565b6040805180830381865af4158015611697573d5f803e3d5ffd5b505050506040513d601f19601f820116820180604052508101906116bb91906138cb565b91509150806116e157604051632d07135360e01b8152811515600482015260240161057c565b5f828152600484016020526040902080546116fb906136f5565b90505f0361171f5760405163089938b360e11b81526004810183905260240161057c565b60015f83815260088501602052604090205460ff1660058111156117455761174561323d565b14611778575f8281526008840160205260409081902054905163170cc93360e21b815261057c9160ff16906004016138ae565b5f828152600484016020526040812061179091612dc5565b5f828152600884016020908152604091829020805460ff1916600290811782556003820180546001600160401b0342811667ffffffffffffffff19909216919091179091559101549251600160c01b90930416825283917f967ae87813a3b5f201dd9bcba778d457176eafe6f41facee1c718091d3952d06910160405180910390a2509392505050565b611822611e2d565b61182b816124e3565b50565b5f611837611cf3565b60030154600160401b90046001600160401b0316919050565b5f611859611cf3565b5f8381526004820160205260409020805491925090611877906136f5565b90505f0361189b5760405163089938b360e11b81526004810183905260240161057c565b60015f83815260088301602052604090205460ff1660058111156118c1576118c161323d565b146118f4575f8281526008820160205260409081902054905163170cc93360e21b815261057c9160ff16906004016138ae565b5f8281526004808301602052604091829020915163ee5b48eb60e01b81526005600160991b019263ee5b48eb9261192b920161390c565b6020604051808303815f875af1158015611947573d5f803e3d5ffd5b505050506040513d601f19601f8201168201806040525081019061196b919061338f565b505050565b5f8061197a611e2d565b5f61198484611d17565b90505f805f73__$fd0c147b4031eef6079b0498cbafa865f0$__6350782b0f85604001516040518263ffffffff1660e01b81526004016119c491906133a6565b606060405180830381865af41580156119df573d5f803e3d5ffd5b505050506040513d601f19601f82011682018060405250810190611a039190613996565b9250925092505f611a12611cf3565b5f8581526008820160205260409020600201549091506001600160401b03808516600160401b909204161015611a6657604051632e19bc2d60e11b81526001600160401b038416600482015260240161057c565b5f8481526008820160205260409081902060020180546001600160401b038616600160801b0267ffffffffffffffff60801b199091161790555184907fc917996591802ecedcfced71321d4bb5320f7dfbacf5477dffe1dbf8b8839ff990611ae690869086906001600160401b0392831681529116602082015260400190565b60405180910390a25091945092505050915091565b5f80611b05611cf3565b9050806006018484604051611b1b9291906139d6565b9081526020016040518091039020549150505b92915050565b60408051610100810182525f8082526060602083018190529282018190529181018290526080810182905260a0810182905260c0810182905260e0810182905290611b7d611cf3565b5f848152600882016020526040908190208151610100810190925280549293509091829060ff166005811115611bb557611bb561323d565b6005811115611bc657611bc661323d565b8152602001600182018054611bda906136f5565b80601f0160208091040260200160405190810160405280929190818152602001828054611c06906136f5565b8015611c515780601f10611c2857610100808354040283529160200191611c51565b820191905f5260205f20905b815481529060010190602001808311611c3457829003601f168201915b505050918352505060028201546001600160401b038082166020840152600160401b80830482166040850152600160801b830482166060850152600160c01b9092048116608084015260039093015480841660a08401520490911660c0909101529392505050565b611cc1611e2d565b6001600160a01b038116611cea57604051631e4fbdf760e01b81525f600482015260240161057c565b61182b81612050565b7fe92546d698950ddd38910d2e15ed1d923cd0a7b3dde9e2a6a3f380565559cb0090565b60408051606080820183525f8083526020830152918101919091526040516306f8253560e41b815263ffffffff831660048201525f9081906005600160991b0190636f825350906024015f60405180830381865afa158015611d7b573d5f803e3d5ffd5b505050506040513d5f823e601f3d908101601f19168201604052611da291908101906139e5565b9150915080611dc457604051636b2f19e960e01b815260040160405180910390fd5b815115611dea578151604051636ba589a560e01b8152600481019190915260240161057c565b60208201516001600160a01b031615611e26576020820151604051624de75d60e31b81526001600160a01b03909116600482015260240161057c565b5092915050565b33611e5f7f9016d09d72d40fdae2fd8ceac6b6234c7706214fd39c1cd1e609a0528c199300546001600160a01b031690565b6001600160a01b0316146110fb5760405163118cdaa760e01b815233600482015260240161057c565b5f805f611e93611cf3565b5f868152600882016020526040902060020154909150600160c01b90046001600160401b0316611ec385826127cd565b5f611ecd87612a3a565b5f88815260088501602052604080822060020180546001600160c01b0316600160c01b6001600160401b038c811691820292909217909255915163854a893f60e01b8152600481018c905291841660248301526044820152919250906005600160991b019063ee5b48eb9073__$fd0c147b4031eef6079b0498cbafa865f0$__9063854a893f906064015f60405180830381865af4158015611f71573d5f803e3d5ffd5b505050506040513d5f823e601f3d908101601f19168201604052611f9891908101906135c1565b6040518263ffffffff1660e01b8152600401611fb491906133a6565b6020604051808303815f875af1158015611fd0573d5f803e3d5ffd5b505050506040513d601f19601f82011682018060405250810190611ff4919061338f565b604080516001600160401b038581168252602082018490528a1681830152905191925089917f6e350dd49b060d87f297206fd309234ed43156d890ced0f139ecf704310481d39181900360600190a29097909650945050505050565b7f9016d09d72d40fdae2fd8ceac6b6234c7706214fd39c1cd1e609a0528c19930080546001600160a01b031981166001600160a01b03848116918217845560405192169182907f8be0079c531659141344cd1fd0a4f28419497f9722a3daafe3b4186f6b6457e0905f90a3505050565b6120c8612aa2565b6120dd6120d86020830183613374565b612aeb565b61182b81612afc565b5f6120ef611cf3565b6007015460ff1661211357604051637fab81e560e01b815260040160405180910390fd5b5f61211c611cf3565b60038101549091506001600160401b039061214290600160401b90048216858316613a72565b111561216c57604051633e1a785160e01b81526001600160401b038416600482015260240161057c565b61217585612c3b565b61217e84612c3b565b85516030146121a55785516040516326475b2f60e11b815260040161057c91815260200190565b86516014146121c95786604051633e08a12560e11b815260040161057c91906133a6565b5f801b81600601886040516121de91906135f2565b9081526020016040518091039020541461220d578660405163a41f772f60e01b815260040161057c91906133a6565b612217835f6127cd565b5f6122256201518042613841565b90505f8073__$fd0c147b4031eef6079b0498cbafa865f0$__63eb97ce516040518060e00160405280875f015481526020018d81526020018c8152602001866001600160401b031681526020018b81526020018a8152602001896001600160401b03168152506040518263ffffffff1660e01b81526004016122a79190613aeb565b5f60405180830381865af41580156122c1573d5f803e3d5ffd5b505050506040513d5f823e601f3d908101601f191682016040526122e89190810190613ba2565b90925090505f8083815260088601602052604090205460ff1660058111156123125761231261323d565b14612345575f8281526008850160205260409081902054905163170cc93360e21b815261057c9160ff16906004016138ae565b5f828152600485016020526040902061235e8282613772565b5081846006018b60405161237291906135f2565b9081526040519081900360200181209190915563ee5b48eb60e01b81525f906005600160991b019063ee5b48eb906123ae9085906004016133a6565b6020604051808303815f875af11580156123ca573d5f803e3d5ffd5b505050506040513d601f19601f820116820180604052508101906123ee919061338f565b5f8481526008870160205260409020805460ff191660019081178255919250016124188c82613772565b505f8381526008860160205260409020600281018054600160c01b6001600160401b038b1690810267ffffffffffffffff60801b9092161717905560030180546001600160801b031916905561246f8b6020015190565b6bffffffffffffffffffffffff1916837f5881be437bdcb008bfa5f20e32d3e335ccf8ab90ef2818852a251625260af35d83878b6040516124cc939291909283526001600160401b03918216602084015216604082015260600190565b60405180910390a350909998505050505050505050565b5f6124ec611cf3565b5f8381526008820160205260408082208151610100810190925280549394509192909190829060ff1660058111156125265761252661323d565b60058111156125375761253761323d565b815260200160018201805461254b906136f5565b80601f0160208091040260200160405190810160405280929190818152602001828054612577906136f5565b80156125c25780601f10612599576101008083540402835291602001916125c2565b820191905f5260205f20905b8154815290600101906020018083116125a557829003601f168201915b50505091835250506002828101546001600160401b038082166020850152600160401b80830482166040860152600160801b830482166060860152600160c01b9092048116608085015260039094015480851660a08501520490921660c0909101529091508151600581111561263a5761263a61323d565b1461266d575f8381526008830160205260409081902054905163170cc93360e21b815261057c9160ff16906004016138ae565b60038152426001600160401b031660e08201525f83815260088301602052604090208151815483929190829060ff191660018360058111156126b1576126b161323d565b0217905550602082015160018201906126ca9082613772565b5060408201516002820180546060850151608086015160a08701516001600160401b039586166001600160801b031994851617600160401b9387168402176001600160801b0316600160801b928716929092026001600160c01b031691909117600160c01b918616919091021790925560c08501516003909401805460e090960151948416959091169490941792909116021790555f61276a8482611e88565b915050837fbae388a94e7f18411fe57098f12f418b8e1a8273e0532a90188a3a059b897273828460a00151426040516127bf939291909283526001600160401b03918216602084015216604082015260600190565b60405180910390a250505050565b5f6127d6611cf3565b90505f826001600160401b0316846001600160401b03161115612804576127fd83856138ec565b9050612811565b61280e84846138ec565b90505b60408051608081018252600284015480825260038501546001600160401b038082166020850152600160401b8204811694840194909452600160801b900490921660608201524291158061287e57506001840154815161287a916001600160401b031690613a72565b8210155b156128a6576001600160401b03808416606083015282825260408201511660208201526128c5565b82816060018181516128b89190613841565b6001600160401b03169052505b60608101516128d5906064613883565b602082015160018601546001600160401b0392909216916129009190600160401b900460ff16613883565b6001600160401b0316101561293957606081015160405163dfae880160e01b81526001600160401b03909116600482015260240161057c565b858160400181815161294b9190613841565b6001600160401b031690525060408101805186919061296b9083906138ec565b6001600160401b03169052506001840154604082015160649161299991600160401b90910460ff1690613883565b6001600160401b031610156129d2576040808201519051633e1a785160e01b81526001600160401b03909116600482015260240161057c565b8051600285015560208101516003909401805460408301516060909301516001600160401b03908116600160801b0267ffffffffffffffff60801b19948216600160401b026001600160801b0319909316919097161717919091169390931790925550505050565b5f80612a44611cf3565b5f84815260088281016020526040909120600201805492935091612a7790600160401b90046001600160401b0316613be5565b91906101000a8154816001600160401b0302191690836001600160401b031602179055915050919050565b7ff0c57e16840df040f15088dc2f81fe391c3923bec73e23a9662efc9c229c6a0054600160401b900460ff166110fb57604051631afcd79f60e31b815260040160405180910390fd5b612af3612aa2565b61182b81612dbd565b612b04612aa2565b5f612b0d611cf3565b6020830135815590506014612b286080840160608501613c00565b60ff161180612b475750612b426080830160608401613c00565b60ff16155b15612b7b57612b5c6080830160608401613c00565b604051634a59bbff60e11b815260ff909116600482015260240161057c565b62015180612b8f6060840160408501613c20565b6001600160401b03161115612bd357612bae6060830160408401613c20565b6040516301f2f3ff60e51b81526001600160401b03909116600482015260240161057c565b612be36080830160608401613c00565b60018201805460ff92909216600160401b0260ff60401b19909216919091179055612c146060830160408401613c20565b600191909101805467ffffffffffffffff19166001600160401b0390921691909117905550565b805163ffffffff16158015612c54575060208101515115155b15612c8857805160208201515160405163c08a0f1d60e01b815263ffffffff9092166004830152602482015260440161057c565b602081015151815163ffffffff161115612ccb57805160208201515160405163c08a0f1d60e01b815263ffffffff9092166004830152602482015260440161057c565b5f816020015151118015612d0d57505f6001600160a01b031681602001515f81518110612cfa57612cfa613652565b60200260200101516001600160a01b0316145b15612d2b5760405163d92e233d60e01b815260040160405180910390fd5b60015b816020015151811015612db9576020820151612d4b600183613c3b565b81518110612d5b57612d5b613652565b60200260200101516001600160a01b031682602001518281518110612d8257612d82613652565b60200260200101516001600160a01b031611612db157604051637882c48760e01b815260040160405180910390fd5b600101612d2e565b5050565b611cc1612aa2565b508054612dd1906136f5565b5f825580601f10612de0575050565b601f0160209004905f5260205f209081019061182b91905b80821115612e0b575f8155600101612df8565b5090565b5f60808284031215612e1f575f80fd5b50919050565b803563ffffffff811681146115ff575f80fd5b5f8060408385031215612e49575f80fd5b82356001600160401b03811115612e5e575f80fd5b612e6a85828601612e0f565b925050612e7960208401612e25565b90509250929050565b5f8060408385031215612e93575f80fd5b82359150612e7960208401612e25565b6001600160401b038116811461182b575f80fd5b5f8060408385031215612ec8575f80fd5b823591506020830135612eda81612ea3565b809150509250929050565b5f60208284031215612ef5575f80fd5b5035919050565b5f60808284031215612f0c575f80fd5b612f168383612e0f565b9392505050565b5f60208284031215612f2d575f80fd5b612f1682612e25565b634e487b7160e01b5f52604160045260245ffd5b604080519081016001600160401b0381118282101715612f6c57612f6c612f36565b60405290565b604051606081016001600160401b0381118282101715612f6c57612f6c612f36565b604051601f8201601f191681016001600160401b0381118282101715612fbc57612fbc612f36565b604052919050565b5f6001600160401b03821115612fdc57612fdc612f36565b50601f01601f191660200190565b5f82601f830112612ff9575f80fd5b813561300c61300782612fc4565b612f94565b818152846020838601011115613020575f80fd5b816020850160208301375f918101602001919091529392505050565b6001600160a01b038116811461182b575f80fd5b5f60408284031215613060575f80fd5b613068612f4a565b905061307382612e25565b81526020808301356001600160401b038082111561308f575f80fd5b818501915085601f8301126130a2575f80fd5b8135818111156130b4576130b4612f36565b8060051b91506130c5848301612f94565b81815291830184019184810190888411156130de575f80fd5b938501935b8385101561310857843592506130f88361303c565b82825293850193908501906130e3565b808688015250505050505092915050565b5f805f805f60a0868803121561312d575f80fd5b85356001600160401b0380821115613143575f80fd5b61314f89838a01612fea565b96506020880135915080821115613164575f80fd5b61317089838a01612fea565b95506040880135915080821115613185575f80fd5b61319189838a01613050565b945060608801359150808211156131a6575f80fd5b506131b388828901613050565b92505060808601356131c481612ea3565b809150509295509295909350565b5f80602083850312156131e3575f80fd5b82356001600160401b03808211156131f9575f80fd5b818501915085601f83011261320c575f80fd5b81358181111561321a575f80fd5b86602082850101111561322b575f80fd5b60209290920196919550909350505050565b634e487b7160e01b5f52602160045260245ffd5b6006811061326d57634e487b7160e01b5f52602160045260245ffd5b9052565b5f5b8381101561328b578181015183820152602001613273565b50505f910152565b5f81518084526132aa816020860160208601613271565b601f01601f19169290920160200192915050565b602081526132d0602082018351613251565b5f60208301516101008060408501526132ed610120850183613293565b915060408501516001600160401b0380821660608701528060608801511660808701525050608085015161332c60a08601826001600160401b03169052565b5060a08501516001600160401b03811660c08601525060c08501516001600160401b03811660e08601525060e08501516001600160401b038116858301525090949350505050565b5f60208284031215613384575f80fd5b8135612f168161303c565b5f6020828403121561339f575f80fd5b5051919050565b602081525f612f166020830184613293565b5f808335601e198436030181126133cd575f80fd5b83016020810192503590506001600160401b038111156133eb575f80fd5b803603821315610e59575f80fd5b81835281816020850137505f828201602090810191909152601f909101601f19169091010190565b5f8383855260208086019550808560051b830101845f5b878110156134d657848303601f19018952813536889003605e1901811261345d575f80fd5b8701606061346b82806133b8565b82875261347b83880182846133f9565b9250505061348b868301836133b8565b8683038888015261349d8382846133f9565b9250505060408083013592506134b283612ea3565b6001600160401b039290921694909101939093529783019790830190600101613438565b5090979650505050505050565b6020815281356020820152602082013560408201525f60408301356135078161303c565b6001600160a01b031660608381019190915283013536849003601e1901811261352e575f80fd5b83016020810190356001600160401b03811115613549575f80fd5b8060051b360382131561355a575f80fd5b60808085015261356e60a085018284613421565b95945050505050565b5f82601f830112613586575f80fd5b815161359461300782612fc4565b8181528460208386010111156135a8575f80fd5b6135b9826020830160208701613271565b949350505050565b5f602082840312156135d1575f80fd5b81516001600160401b038111156135e6575f80fd5b6135b984828501613577565b5f8251613603818460208701613271565b9190910192915050565b5f808335601e19843603018112613622575f80fd5b8301803591506001600160401b0382111561363b575f80fd5b6020019150600581901b3603821315610e59575f80fd5b634e487b7160e01b5f52603260045260245ffd5b5f8235605e19833603018112613603575f80fd5b5f6060823603121561368a575f80fd5b613692612f72565b82356001600160401b03808211156136a8575f80fd5b6136b436838701612fea565b835260208501359150808211156136c9575f80fd5b506136d636828601612fea565b60208301525060408301356136ea81612ea3565b604082015292915050565b600181811c9082168061370957607f821691505b602082108103612e1f57634e487b7160e01b5f52602260045260245ffd5b601f82111561196b57805f5260205f20601f840160051c8101602085101561374c5750805b601f840160051c820191505b8181101561376b575f8155600101613758565b5050505050565b81516001600160401b0381111561378b5761378b612f36565b61379f8161379984546136f5565b84613727565b602080601f8311600181146137d2575f84156137bb5750858301515b5f19600386901b1c1916600185901b178555611201565b5f85815260208120601f198616915b82811015613800578886015182559484019460019091019084016137e1565b508582101561381d57878501515f19600388901b60f8161c191681555b5050505050600190811b01905550565b634e487b7160e01b5f52601160045260245ffd5b6001600160401b03818116838216019080821115611e2657611e2661382d565b5f63ffffffff8083168181036138795761387961382d565b6001019392505050565b6001600160401b038181168382160280821691908281146138a6576138a661382d565b505092915050565b60208101611b2e8284613251565b805180151581146115ff575f80fd5b5f80604083850312156138dc575f80fd5b82519150612e79602084016138bc565b6001600160401b03828116828216039080821115611e2657611e2661382d565b5f60208083525f845461391e816136f5565b806020870152604060018084165f811461393f576001811461395b57613988565b60ff19851660408a0152604084151560051b8a01019550613988565b895f5260205f205f5b8581101561397f5781548b8201860152908301908801613964565b8a016040019650505b509398975050505050505050565b5f805f606084860312156139a8575f80fd5b8351925060208401516139ba81612ea3565b60408501519092506139cb81612ea3565b809150509250925092565b818382375f9101908152919050565b5f80604083850312156139f6575f80fd5b82516001600160401b0380821115613a0c575f80fd5b9084019060608287031215613a1f575f80fd5b613a27612f72565b825181526020830151613a398161303c565b6020820152604083015182811115613a4f575f80fd5b613a5b88828601613577565b6040830152509350612e79915050602084016138bc565b80820180821115611b2e57611b2e61382d565b5f6040830163ffffffff8351168452602080840151604060208701528281518085526060880191506020830194505f92505b80831015613ae05784516001600160a01b03168252938301936001929092019190830190613ab7565b509695505050505050565b60208152815160208201525f602083015160e06040840152613b11610100840182613293565b90506040840151601f1980858403016060860152613b2f8383613293565b92506001600160401b03606087015116608086015260808601519150808584030160a0860152613b5f8383613a85565b925060a08601519150808584030160c086015250613b7d8282613a85565b91505060c0840151613b9a60e08501826001600160401b03169052565b509392505050565b5f8060408385031215613bb3575f80fd5b8251915060208301516001600160401b03811115613bcf575f80fd5b613bdb85828601613577565b9150509250929050565b5f6001600160401b038083168181036138795761387961382d565b5f60208284031215613c10575f80fd5b813560ff81168114612f16575f80fd5b5f60208284031215613c30575f80fd5b8135612f1681612ea3565b81810381811115611b2e57611b2e61382d56fea164736f6c6343000819000a",
    "linkReferences": {
      "contracts/validator-manager/ValidatorMessages.sol": {
        "ValidatorMessages": [
          {
            "start": 1833,
            "length": 20
          },
          {
            "start": 1966,
            "length": 20
          },
          {
            "start": 4471,
            "length": 20
          },
          {
            "start": 4974,
            "length": 20
          },
          {
            "start": 6025,
            "length": 20
          },
          {
            "start": 6872,
            "length": 20
          },
          {
            "start": 8327,
            "length": 20
          },
          {
            "start": 9080,
            "length": 20
          }
        ]
      }
    }
  },
  "methodIdentifiers": {
    "BLS_PUBLIC_KEY_LENGTH()": "8280a25a",
    "MAXIMUM_CHURN_PERCENTAGE_LIMIT()": "c974d1b6",
    "MAXIMUM_CHURN_PERIOD_LENGTH()": "b6c2fd41",
    "NODE_ID_LENGTH()": "63e2ca97",
    "P_CHAIN_BLOCKCHAIN_ID()": "732214f8",
    "REGISTRATION_EXPIRY_LENGTH()": "efc008fb",
    "VALIDATOR_MANAGER_STORAGE_LOCATION()": "bc5fbfec",
    "WARP_MESSENGER()": "b771b3bc",
    "completeValidatorRegistration(uint32)": "a3a65e48",
    "completeValidatorRemoval(uint32)": "9681d940",
    "completeValidatorWeightUpdate(uint32)": "ce161f14",
    "getChurnPeriodSeconds()": "09c1df66",
    "getChurnTracker()": "4d693536",
    "getNodeValidationID(bytes)": "d47a948b",
    "getValidator(bytes32)": "d5f20ff6",
    "initialize((address,bytes32,uint64,uint8))": "736c87be",
    "initializeValidatorSet((bytes32,bytes32,address,(bytes,bytes,uint64)[]),uint32)": "20d91b7a",
    "initiateValidatorRegistration(bytes,bytes,(uint32,address[]),(uint32,address[]),uint64)": "9cb7624e",
    "initiateValidatorRemoval(bytes32)": "b6e6a2ca",
    "initiateValidatorWeightUpdate(bytes32,uint64)": "66109669",
    "isValidatorSetInitialized()": "5bd93e88",
    "l1TotalWeight()": "bb0b1938",
    "migrateFromV1(bytes32,uint32)": "30ffe4d7",
    "owner()": "8da5cb5b",
    "renounceOwnership()": "715018a6",
    "resendRegisterValidatorMessage(bytes32)": "bee0a03f",
    "resendValidatorRemovalMessage(bytes32)": "66edba73",
    "subnetID()": "5dc1f535",
    "transferOwnership(address)": "f2fde38b"
  },
  "id": 97
}