{
  "abi": [
    {
      "type": "constructor",
      "inputs": [
        {
          "name": "init",
          "type": "uint8",
          "internalType": "enum ICMInitializable"
        }
      ],
      "stateMutability": "nonpayable"
    },
    {
      "type": "function",
      "name": "BLS_PUBLIC_KEY_LENGTH",
      "inputs": [],
      "outputs": [
        {
          "name": "",
          "type": "uint8",
          "internalType": "uint8"
        }
      ],
      "stateMutability": "view"
    },
    {
      "type": "function",
      "name": "MAXIMUM_CHURN_PERCENTAGE_LIMIT",
      "inputs": [],
      "outputs": [
        {
          "name": "",
          "type": "uint8",
          "internalType": "uint8"
        }
      ],
      "stateMutability": "view"
    },
    {
      "type": "function",
      "name": "MAXIMUM_CHURN_PERIOD_LENGTH",
      "inputs": [],
      "outputs": [
        {
          "name": "",
          "type": "uint64",
          "internalType": "uint64"
        }
      ],
      "stateMutability": "view"
    },
    {
      "type": "function",
      "name": "NODE_ID_LENGTH",
      "inputs": [],
      "outputs": [
        {
          "name": "",
          "type": "uint32",
          "internalType": "uint32"
        }
      ],
      "stateMutability": "view"
    },
    {
      "type": "function",
      "name": "P_CHAIN_BLOCKCHAIN_ID",
      "inputs": [],
      "outputs": [
        {
          "name": "",
          "type": "bytes32",
          "internalType": "bytes32"
        }
      ],
      "stateMutability": "view"
    },
    {
      "type": "function",
      "name": "REGISTRATION_EXPIRY_LENGTH",
      "inputs": [],
      "outputs": [
        {
          "name": "",
          "type": "uint64",
          "internalType": "uint64"
        }
      ],
      "stateMutability": "view"
    },
    {
      "type": "function",
      "name": "VALIDATOR_MANAGER_STORAGE_LOCATION",
      "inputs": [],
      "outputs": [
        {
          "name": "",
          "type": "bytes32",
          "internalType": "bytes32"
        }
      ],
      "stateMutability": "view"
    },
    {
      "type": "function",
      "name": "WARP_MESSENGER",
      "inputs": [],
      "outputs": [
        {
          "name": "",
          "type": "address",
          "internalType": "contract IWarpMessenger"
        }
      ],
      "stateMutability": "view"
    },
    {
      "type": "function",
      "name": "completeValidatorRegistration",
      "inputs": [
        {
          "name": "messageIndex",
          "type": "uint32",
          "internalType": "uint32"
        }
      ],
      "outputs": [
        {
          "name": "",
          "type": "bytes32",
          "internalType": "bytes32"
        }
      ],
      "stateMutability": "nonpayable"
    },
    {
      "type": "function",
      "name": "completeValidatorRemoval",
      "inputs": [
        {
          "name": "messageIndex",
          "type": "uint32",
          "internalType": "uint32"
        }
      ],
      "outputs": [
        {
          "name": "",
          "type": "bytes32",
          "internalType": "bytes32"
        }
      ],
      "stateMutability": "nonpayable"
    },
    {
      "type": "function",
      "name": "completeValidatorWeightUpdate",
      "inputs": [
        {
          "name": "messageIndex",
          "type": "uint32",
          "internalType": "uint32"
        }
      ],
      "outputs": [
        {
          "name": "",
          "type": "bytes32",
          "internalType": "bytes32"
        },
        {
          "name": "",
          "type": "uint64",
          "internalType": "uint64"
        }
      ],
      "stateMutability": "nonpayable"
    },
    {
      "type": "function",
      "name": "getChurnPeriodSeconds",
      "inputs": [],
      "outputs": [
        {
          "name": "",
          "type": "uint64",
          "internalType": "uint64"
        }
      ],
      "stateMutability": "view"
    },
    {
      "type": "function",
      "name": "getChurnTracker",
      "inputs": [],
      "outputs": [
        {
          "name": "",
          "type": "uint64",
          "internalType": "uint64"
        },
        {
          "name": "",
          "type": "uint8",
          "internalType": "uint8"
        },
        {
          "name": "",
          "type": "tuple",
          "internalType": "struct ValidatorChurnPeriod",
          "components": [
            {
              "name": "startTime",
              "type": "uint256",
              "internalType": "uint256"
            },
            {
              "name": "initialWeight",
              "type": "uint64",
              "internalType": "uint64"
            },
            {
              "name": "totalWeight",
              "type": "uint64",
              "internalType": "uint64"
            },
            {
              "name": "churnAmount",
              "type": "uint64",
              "internalType": "uint64"
            }
          ]
        }
      ],
      "stateMutability": "view"
    },
    {
      "type": "function",
      "name": "getNodeValidationID",
      "inputs": [
        {
          "name": "nodeID",
          "type": "bytes",
          "internalType": "bytes"
        }
      ],
      "outputs": [
        {
          "name": "",
          "type": "bytes32",
          "internalType": "bytes32"
        }
      ],
      "stateMutability": "view"
    },
    {
      "type": "function",
      "name": "getValidator",
      "inputs": [
        {
          "name": "validationID",
          "type": "bytes32",
          "internalType": "bytes32"
        }
      ],
      "outputs": [
        {
          "name": "",
          "type": "tuple",
          "internalType": "struct Validator",
          "components": [
            {
              "name": "status",
              "type": "uint8",
              "internalType": "enum ValidatorStatus"
            },
            {
              "name": "nodeID",
              "type": "bytes",
              "internalType": "bytes"
            },
            {
              "name": "startingWeight",
              "type": "uint64",
              "internalType": "uint64"
            },
            {
              "name": "sentNonce",
              "type": "uint64",
              "internalType": "uint64"
            },
            {
              "name": "receivedNonce",
              "type": "uint64",
              "internalType": "uint64"
            },
            {
              "name": "weight",
              "type": "uint64",
              "internalType": "uint64"
            },
            {
              "name": "startTime",
              "type": "uint64",
              "internalType": "uint64"
            },
            {
              "name": "endTime",
              "type": "uint64",
              "internalType": "uint64"
            }
          ]
        }
      ],
      "stateMutability": "view"
    },
    {
      "type": "function",
      "name": "initialize",
      "inputs": [
        {
          "name": "settings",
          "type": "tuple",
          "internalType": "struct ValidatorManagerSettings",
          "components": [
            {
              "name": "admin",
              "type": "address",
              "internalType": "address"
            },
            {
              "name": "subnetID",
              "type": "bytes32",
              "internalType": "bytes32"
            },
            {
              "name": "churnPeriodSeconds",
              "type": "uint64",
              "internalType": "uint64"
            },
            {
              "name": "maximumChurnPercentage",
              "type": "uint8",
              "internalType": "uint8"
            }
          ]
        }
      ],
      "outputs": [],
      "stateMutability": "nonpayable"
    },
    {
      "type": "function",
      "name": "initializeValidatorSet",
      "inputs": [
        {
          "name": "conversionData",
          "type": "tuple",
          "internalType": "struct ConversionData",
          "components": [
            {
              "name": "subnetID",
              "type": "bytes32",
              "internalType": "bytes32"
            },
            {
              "name": "validatorManagerBlockchainID",
              "type": "bytes32",
              "internalType": "bytes32"
            },
            {
              "name": "validatorManagerAddress",
              "type": "address",
              "internalType": "address"
            },
            {
              "name": "initialValidators",
              "type": "tuple[]",
              "internalType": "struct InitialValidator[]",
              "components": [
                {
                  "name": "nodeID",
                  "type": "bytes",
                  "internalType": "bytes"
                },
                {
                  "name": "blsPublicKey",
                  "type": "bytes",
                  "internalType": "bytes"
                },
                {
                  "name": "weight",
                  "type": "uint64",
                  "internalType": "uint64"
                }
              ]
            }
          ]
        },
        {
          "name": "messageIndex",
          "type": "uint32",
          "internalType": "uint32"
        }
      ],
      "outputs": [],
      "stateMutability": "nonpayable"
    },
    {
      "type": "function",
      "name": "initiateValidatorRegistration",
      "inputs": [
        {
          "name": "nodeID",
          "type": "bytes",
          "internalType": "bytes"
        },
        {
          "name": "blsPublicKey",
          "type": "bytes",
          "internalType": "bytes"
        },
        {
          "name": "remainingBalanceOwner",
          "type": "tuple",
          "internalType": "struct PChainOwner",
          "components": [
            {
              "name": "threshold",
              "type": "uint32",
              "internalType": "uint32"
            },
            {
              "name": "addresses",
              "type": "address[]",
              "internalType": "address[]"
            }
          ]
        },
        {
          "name": "disableOwner",
          "type": "tuple",
          "internalType": "struct PChainOwner",
          "components": [
            {
              "name": "threshold",
              "type": "uint32",
              "internalType": "uint32"
            },
            {
              "name": "addresses",
              "type": "address[]",
              "internalType": "address[]"
            }
          ]
        },
        {
          "name": "weight",
          "type": "uint64",
          "internalType": "uint64"
        }
      ],
      "outputs": [
        {
          "name": "",
          "type": "bytes32",
          "internalType": "bytes32"
        }
      ],
      "stateMutability": "nonpayable"
    },
    {
      "type": "function",
      "name": "initiateValidatorRemoval",
      "inputs": [
        {
          "name": "validationID",
          "type": "bytes32",
          "internalType": "bytes32"
        }
      ],
      "outputs": [],
      "stateMutability": "nonpayable"
    },
    {
      "type": "function",
      "name": "initiateValidatorWeightUpdate",
      "inputs": [
        {
          "name": "validationID",
          "type": "bytes32",
          "internalType": "bytes32"
        },
        {
          "name": "newWeight",
          "type": "uint64",
          "internalType": "uint64"
        }
      ],
      "outputs": [
        {
          "name": "",
          "type": "uint64",
          "internalType": "uint64"
        },
        {
          "name": "",
          "type": "bytes32",
          "internalType": "bytes32"
        }
      ],
      "stateMutability": "nonpayable"
    },
    {
      "type": "function",
      "name": "isValidatorSetInitialized",
      "inputs": [],
      "outputs": [
        {
          "name": "",
          "type": "bool",
          "internalType": "bool"
        }
      ],
      "stateMutability": "view"
    },
    {
      "type": "function",
      "name": "l1TotalWeight",
      "inputs": [],
      "outputs": [
        {
          "name": "",
          "type": "uint64",
          "internalType": "uint64"
        }
      ],
      "stateMutability": "view"
    },
    {
      "type": "function",
      "name": "migrateFromV1",
      "inputs": [
        {
          "name": "validationID",
          "type": "bytes32",
          "internalType": "bytes32"
        },
        {
          "name": "receivedNonce",
          "type": "uint32",
          "internalType": "uint32"
        }
      ],
      "outputs": [],
      "stateMutability": "nonpayable"
    },
    {
      "type": "function",
      "name": "owner",
      "inputs": [],
      "outputs": [
        {
          "name": "",
          "type": "address",
          "internalType": "address"
        }
      ],
      "stateMutability": "view"
    },
    {
      "type": "function",
      "name": "registeredValidators",
      "inputs": [
        {
          "name": "nodeID",
          "type": "bytes",
          "internalType": "bytes"
        }
      ],
      "outputs": [
        {
          "name": "",
          "type": "bytes32",
          "internalType": "bytes32"
        }
      ],
      "stateMutability": "view"
    },
    {
      "type": "function",
      "name": "renounceOwnership",
      "inputs": [],
      "outputs": [],
      "stateMutability": "nonpayable"
    },
    {
      "type": "function",
      "name": "resendRegisterValidatorMessage",
      "inputs": [
        {
          "name": "validationID",
          "type": "bytes32",
          "internalType": "bytes32"
        }
      ],
      "outputs": [],
      "stateMutability": "nonpayable"
    },
    {
      "type": "function",
      "name": "resendValidatorRemovalMessage",
      "inputs": [
        {
          "name": "validationID",
          "type": "bytes32",
          "internalType": "bytes32"
        }
      ],
      "outputs": [],
      "stateMutability": "nonpayable"
    },
    {
      "type": "function",
      "name": "subnetID",
      "inputs": [],
      "outputs": [
        {
          "name": "",
          "type": "bytes32",
          "internalType": "bytes32"
        }
      ],
      "stateMutability": "view"
    },
    {
      "type": "function",
      "name": "transferOwnership",
      "inputs": [
        {
          "name": "newOwner",
          "type": "address",
          "internalType": "address"
        }
      ],
      "outputs": [],
      "stateMutability": "nonpayable"
    },
    {
      "type": "event",
      "name": "CompletedValidatorRegistration",
      "inputs": [
        {
          "name": "validationID",
          "type": "bytes32",
          "indexed": true,
          "internalType": "bytes32"
        },
        {
          "name": "weight",
          "type": "uint64",
          "indexed": false,
          "internalType": "uint64"
        }
      ],
      "anonymous": false
    },
    {
      "type": "event",
      "name": "CompletedValidatorRemoval",
      "inputs": [
        {
          "name": "validationID",
          "type": "bytes32",
          "indexed": true,
          "internalType": "bytes32"
        }
      ],
      "anonymous": false
    },
    {
      "type": "event",
      "name": "CompletedValidatorWeightUpdate",
      "inputs": [
        {
          "name": "validationID",
          "type": "bytes32",
          "indexed": true,
          "internalType": "bytes32"
        },
        {
          "name": "nonce",
          "type": "uint64",
          "indexed": false,
          "internalType": "uint64"
        },
        {
          "name": "weight",
          "type": "uint64",
          "indexed": false,
          "internalType": "uint64"
        }
      ],
      "anonymous": false
    },
    {
      "type": "event",
      "name": "Initialized",
      "inputs": [
        {
          "name": "version",
          "type": "uint64",
          "indexed": false,
          "internalType": "uint64"
        }
      ],
      "anonymous": false
    },
    {
      "type": "event",
      "name": "InitiatedValidatorRegistration",
      "inputs": [
        {
          "name": "validationID",
          "type": "bytes32",
          "indexed": true,
          "internalType": "bytes32"
        },
        {
          "name": "nodeID",
          "type": "bytes20",
          "indexed": true,
          "internalType": "bytes20"
        },
        {
          "name": "registrationMessageID",
          "type": "bytes32",
          "indexed": false,
          "internalType": "bytes32"
        },
        {
          "name": "registrationExpiry",
          "type": "uint64",
          "indexed": false,
          "internalType": "uint64"
        },
        {
          "name": "weight",
          "type": "uint64",
          "indexed": false,
          "internalType": "uint64"
        }
      ],
      "anonymous": false
    },
    {
      "type": "event",
      "name": "InitiatedValidatorRemoval",
      "inputs": [
        {
          "name": "validationID",
          "type": "bytes32",
          "indexed": true,
          "internalType": "bytes32"
        },
        {
          "name": "validatorWeightMessageID",
          "type": "bytes32",
          "indexed": false,
          "internalType": "bytes32"
        },
        {
          "name": "weight",
          "type": "uint64",
          "indexed": false,
          "internalType": "uint64"
        },
        {
          "name": "endTime",
          "type": "uint64",
          "indexed": false,
          "internalType": "uint64"
        }
      ],
      "anonymous": false
    },
    {
      "type": "event",
      "name": "InitiatedValidatorWeightUpdate",
      "inputs": [
        {
          "name": "validationID",
          "type": "bytes32",
          "indexed": true,
          "internalType": "bytes32"
        },
        {
          "name": "nonce",
          "type": "uint64",
          "indexed": false,
          "internalType": "uint64"
        },
        {
          "name": "weightUpdateMessageID",
          "type": "bytes32",
          "indexed": false,
          "internalType": "bytes32"
        },
        {
          "name": "weight",
          "type": "uint64",
          "indexed": false,
          "internalType": "uint64"
        }
      ],
      "anonymous": false
    },
    {
      "type": "event",
      "name": "OwnershipTransferred",
      "inputs": [
        {
          "name": "previousOwner",
          "type": "address",
          "indexed": true,
          "internalType": "address"
        },
        {
          "name": "newOwner",
          "type": "address",
          "indexed": true,
          "internalType": "address"
        }
      ],
      "anonymous": false
    },
    {
      "type": "event",
      "name": "RegisteredInitialValidator",
      "inputs": [
        {
          "name": "validationID",
          "type": "bytes32",
          "indexed": true,
          "internalType": "bytes32"
        },
        {
          "name": "nodeID",
          "type": "bytes20",
          "indexed": true,
          "internalType": "bytes20"
        },
        {
          "name": "weight",
          "type": "uint64",
          "indexed": false,
          "internalType": "uint64"
        }
      ],
      "anonymous": false
    },
    {
      "type": "error",
      "name": "InvalidBLSKeyLength",
      "inputs": [
        {
          "name": "length",
          "type": "uint256",
          "internalType": "uint256"
        }
      ]
    },
    {
      "type": "error",
      "name": "InvalidChurnPeriodLength",
      "inputs": [
        {
          "name": "churnPeriodLength",
          "type": "uint64",
          "internalType": "uint64"
        }
      ]
    },
    {
      "type": "error",
      "name": "InvalidConversionID",
      "inputs": [
        {
          "name": "encodedConversionID",
          "type": "bytes32",
          "internalType": "bytes32"
        },
        {
          "name": "expectedConversionID",
          "type": "bytes32",
          "internalType": "bytes32"
        }
      ]
    },
    {
      "type": "error",
      "name": "InvalidInitialization",
      "inputs": []
    },
    {
      "type": "error",
      "name": "InvalidInitializationStatus",
      "inputs": []
    },
    {
      "type": "error",
      "name": "InvalidMaximumChurnPercentage",
      "inputs": [
        {
          "name": "maximumChurnPercentage",
          "type": "uint8",
          "internalType": "uint8"
        }
      ]
    },
    {
      "type": "error",
      "name": "InvalidNodeID",
      "inputs": [
        {
          "name": "nodeID",
          "type": "bytes",
          "internalType": "bytes"
        }
      ]
    },
    {
      "type": "error",
      "name": "InvalidNonce",
      "inputs": [
        {
          "name": "nonce",
          "type": "uint64",
          "internalType": "uint64"
        }
      ]
    },
    {
      "type": "error",
      "name": "InvalidPChainOwnerAddresses",
      "inputs": []
    },
    {
      "type": "error",
      "name": "InvalidPChainOwnerThreshold",
      "inputs": [
        {
          "name": "threshold",
          "type": "uint256",
          "internalType": "uint256"
        },
        {
          "name": "addressesLength",
          "type": "uint256",
          "internalType": "uint256"
        }
      ]
    },
    {
      "type": "error",
      "name": "InvalidTotalWeight",
      "inputs": [
        {
          "name": "weight",
          "type": "uint64",
          "internalType": "uint64"
        }
      ]
    },
    {
      "type": "error",
      "name": "InvalidValidationID",
      "inputs": [
        {
          "name": "validationID",
          "type": "bytes32",
          "internalType": "bytes32"
        }
      ]
    },
    {
      "type": "error",
      "name": "InvalidValidatorManagerAddress",
      "inputs": [
        {
          "name": "validatorManagerAddress",
          "type": "address",
          "internalType": "address"
        }
      ]
    },
    {
      "type": "error",
      "name": "InvalidValidatorManagerBlockchainID",
      "inputs": [
        {
          "name": "blockchainID",
          "type": "bytes32",
          "internalType": "bytes32"
        }
      ]
    },
    {
      "type": "error",
      "name": "InvalidValidatorStatus",
      "inputs": [
        {
          "name": "status",
          "type": "uint8",
          "internalType": "enum ValidatorStatus"
        }
      ]
    },
    {
      "type": "error",
      "name": "InvalidWarpMessage",
      "inputs": []
    },
    {
      "type": "error",
      "name": "InvalidWarpOriginSenderAddress",
      "inputs": [
        {
          "name": "senderAddress",
          "type": "address",
          "internalType": "address"
        }
      ]
    },
    {
      "type": "error",
      "name": "InvalidWarpSourceChainID",
      "inputs": [
        {
          "name": "sourceChainID",
          "type": "bytes32",
          "internalType": "bytes32"
        }
      ]
    },
    {
      "type": "error",
      "name": "MaxChurnRateExceeded",
      "inputs": [
        {
          "name": "churnAmount",
          "type": "uint64",
          "internalType": "uint64"
        }
      ]
    },
    {
      "type": "error",
      "name": "NodeAlreadyRegistered",
      "inputs": [
        {
          "name": "nodeID",
          "type": "bytes",
          "internalType": "bytes"
        }
      ]
    },
    {
      "type": "error",
      "name": "NotInitializing",
      "inputs": []
    },
    {
      "type": "error",
      "name": "OwnableInvalidOwner",
      "inputs": [
        {
          "name": "owner",
          "type": "address",
          "internalType": "address"
        }
      ]
    },
    {
      "type": "error",
      "name": "OwnableUnauthorizedAccount",
      "inputs": [
        {
          "name": "account",
          "type": "address",
          "internalType": "address"
        }
      ]
    },
    {
      "type": "error",
      "name": "UnexpectedRegistrationStatus",
      "inputs": [
        {
          "name": "validRegistration",
          "type": "bool",
          "internalType": "bool"
        }
      ]
    },
    {
      "type": "error",
      "name": "ZeroAddress",
      "inputs": []
    }
  ],
  "bytecode": {
    "object": "0x608060405234801561000f575f80fd5b50604051613db0380380613db083398101604081905261002e91610107565b60018160018111156100425761004261012c565b0361004f5761004f610055565b50610140565b7ff0c57e16840df040f15088dc2f81fe391c3923bec73e23a9662efc9c229c6a00805468010000000000000000900460ff16156100a55760405163f92ee8a960e01b815260040160405180910390fd5b80546001600160401b03908116146101045780546001600160401b0319166001600160401b0390811782556040519081527fc7f505b2f371ae2175ee4913f4499e1f2633a7b5936321eed1cdaeb6115181d29060200160405180910390a15b50565b5f60208284031215610117575f80fd5b815160028110610125575f80fd5b9392505050565b634e487b7160e01b5f52602160045260245ffd5b613c638061014d5f395ff3fe608060405234801561000f575f80fd5b50600436106101d1575f3560e01c80639cb7624e116100fe578063bee0a03f1161009e578063d5f20ff61161006e578063d5f20ff61461047b578063efc008fb146103c3578063f2fde38b1461049b578063fd7ac5e714610468575f80fd5b8063bee0a03f1461041d578063c974d1b614610430578063ce161f1414610438578063d47a948b14610468575f80fd5b8063b6e6a2ca116100d9578063b6e6a2ca146103cd578063b771b3bc146103e0578063bb0b1938146103ee578063bc5fbfec146103f6575f80fd5b80639cb7624e1461039d578063a3a65e48146103b0578063b6c2fd41146103c3575f80fd5b80636610966911610174578063736c87be11610144578063736c87be146103195780638280a25a1461032c5780638da5cb5b146103465780639681d9401461038a575f80fd5b806366109669146102c557806366edba73146102f7578063715018a61461030a578063732214f814610312575f80fd5b80634d693536116101af5780634d693536146102225780635bd93e881461027a5780635dc1f5351461029257806363e2ca97146102a8575f80fd5b806309c1df66146101d557806320d91b7a146101fa57806330ffe4d71461020f575b5f80fd5b6101dd6104ae565b6040516001600160401b0390911681526020015b60405180910390f35b61020d610208366004612e40565b6104c9565b005b61020d61021d366004612e8a565b610a87565b61022a610d32565b604080516001600160401b03948516815260ff90931660208085019190915282518483015282015184166060808501919091529082015184166080840152015190911660a082015260c0016101f1565b610282610dbd565b60405190151581526020016101f1565b61029a610dd4565b6040519081526020016101f1565b6102b0601481565b60405163ffffffff90911681526020016101f1565b6102d86102d3366004612ebf565b610de3565b604080516001600160401b0390931683526020830191909152016101f1565b61020d610305366004612eed565b610e68565b61020d6110f2565b61029a5f81565b61020d610327366004612f04565b611105565b610334603081565b60405160ff90911681526020016101f1565b7f9016d09d72d40fdae2fd8ceac6b6234c7706214fd39c1cd1e609a0528c199300546001600160a01b03165b6040516001600160a01b0390911681526020016101f1565b61029a610398366004612f25565b611211565b61029a6103ab366004613121565b61160c565b61029a6103be366004612f25565b61162c565b6101dd6201518081565b61020d6103db366004612eed565b611822565b6103726005600160991b0181565b6101dd611836565b61029a7fe92546d698950ddd38910d2e15ed1d923cd0a7b3dde9e2a6a3f380565559cb0081565b61020d61042b366004612eed565b611858565b610334601481565b61044b610446366004612f25565b611978565b604080519283526001600160401b039091166020830152016101f1565b61029a6104763660046131da565b611b03565b61048e610489366004612eed565b611b3c565b6040516101f191906132c6565b61020d6104a936600461337c565b611cc1565b5f6104b7611cfb565b600101546001600160401b0316919050565b5f6104d2611cfb565b600781015490915060ff16156104fb57604051637fab81e560e01b815260040160405180910390fd5b6005600160991b016001600160a01b0316634213cf786040518163ffffffff1660e01b8152600401602060405180830381865afa15801561053e573d5f803e3d5ffd5b505050506040513d601f19601f820116820180604052508101906105629190613397565b836020013514610590576040516372b0a7e760e11b8152602084013560048201526024015b60405180910390fd5b306105a1606085016040860161337c565b6001600160a01b0316146105e4576105bf606084016040850161337c565b604051632f88120d60e21b81526001600160a01b039091166004820152602401610587565b5f73__$fd0c147b4031eef6079b0498cbafa865f0$__634d84788461060885611d1f565b604001516040518263ffffffff1660e01b815260040161062891906133ae565b602060405180830381865af4158015610643573d5f803e3d5ffd5b505050506040513d601f19601f820116820180604052508101906106679190613397565b90505f73__$fd0c147b4031eef6079b0498cbafa865f0$__6387418b8e866040518263ffffffff1660e01b81526004016106a191906134eb565b5f60405180830381865af41580156106bb573d5f803e3d5ffd5b505050506040513d5f823e601f3d908101601f191682016040526106e291908101906135c9565b90505f6002826040516106f591906135fa565b602060405180830381855afa158015610710573d5f803e3d5ffd5b5050506040513d601f19601f820116820180604052508101906107339190613397565b905082811461075f5760405163baaea89d60e01b81526004810182905260248101849052604401610587565b5f61076d6060880188613615565b905090505f805b828163ffffffff1610156109f3575f61079060608b018b613615565b8363ffffffff168181106107a6576107a661365a565b90506020028101906107b8919061366e565b6107c190613682565b80516040519192505f9160068b01916107d9916135fa565b9081526020016040518091039020541461080957805160405163a41f772f60e01b815261058791906004016133ae565b80515160141461082f578051604051633e08a12560e11b815261058791906004016133ae565b5f60028b5f01358460405160200161085e92919091825260e01b6001600160e01b031916602082015260240190565b60408051601f1981840301815290829052610878916135fa565b602060405180830381855afa158015610893573d5f803e3d5ffd5b5050506040513d601f19601f820116820180604052508101906108b69190613397565b90508089600601835f01516040516108ce91906135fa565b90815260408051918290036020908101909220929092555f83815260088c0190915220805460ff19166002178155825160019091019061090e908261377a565b50604082810180515f84815260088d016020529290922060028101805492516001600160401b0394851667ffffffffffffffff60801b90941693909317600160c01b858516021790556003018054429093166001600160801b03199093169290921790915561097d9085613849565b8251602001519094506bffffffffffffffffffffffff1916817f9d9c026e2cadfec89cccc2cd72705360eca1beba24774f3363f4bb33faabc7d784604001516040516109d891906001600160401b0391909116815260200190565b60405180910390a35050806109ec90613869565b9050610774565b506003860180546fffffffffffffffff00000000000000001916600160401b6001600160401b0384168102919091179091556001870154606491610a3b910460ff168361388b565b6001600160401b03161015610a6e57604051633e1a785160e01b81526001600160401b0382166004820152602401610587565b5050506007909201805460ff1916600117905550505050565b5f610a90611cfb565b5f8481526005820160205260408120919250815460ff166005811115610ab857610ab8613245565b03610ad95760405163089938b360e11b815260048101859052602401610587565b6002810154600160401b90046001600160401b031663ffffffff84161115610b1c57604051632e19bc2d60e11b815263ffffffff84166004820152602401610587565b6040805161010081019091528154819060ff166005811115610b4057610b40613245565b8152602001826001018054610b54906136fd565b80601f0160208091040260200160405190810160405280929190818152602001828054610b80906136fd565b8015610bcb5780601f10610ba257610100808354040283529160200191610bcb565b820191905f5260205f20905b815481529060010190602001808311610bae57829003601f168201915b505050918352505060028301546001600160401b03808216602080850191909152600160401b8304821660408086019190915263ffffffff89166060860152600160801b840483166080860152600160c01b909304821660a0850152600386015490911660c0909301929092525f87815260088601909252902081518154829060ff19166001836005811115610c6357610c63613245565b021790555060208201516001820190610c7c908261377a565b506040828101516002830180546060860151608087015160a08801516001600160401b039586166001600160801b031994851617600160401b9387168402176001600160801b0316600160801b928716929092026001600160c01b031691909117600160c01b918616919091021790925560c08601516003909501805460e09097015195841696909116959095179390911602919091179091555f94855260059290920160205250909120805460ff1916905550565b604080516080810182525f808252602082018190529181018290526060810182905281905f610d5f611cfb565b600181015460408051608081018252600284015481526003909301546001600160401b038082166020860152600160401b808304821693860193909352600160801b90910481166060850152821697910460ff169550909350915050565b5f80610dc7611cfb565b6007015460ff1692915050565b5f610ddd611cfb565b54919050565b5f80610ded611e35565b5f610df6611cfb565b905060025f86815260088301602052604090205460ff166005811115610e1e57610e1e613245565b14610e51575f8581526008820160205260409081902054905163170cc93360e21b81526105879160ff16906004016138b6565b610e5b8585611e90565b92509250505b9250929050565b5f610e71611cfb565b5f8381526008820160205260408082208151610100810190925280549394509192909190829060ff166005811115610eab57610eab613245565b6005811115610ebc57610ebc613245565b8152602001600182018054610ed0906136fd565b80601f0160208091040260200160405190810160405280929190818152602001828054610efc906136fd565b8015610f475780601f10610f1e57610100808354040283529160200191610f47565b820191905f5260205f20905b815481529060010190602001808311610f2a57829003601f168201915b505050918352505060028201546001600160401b038082166020840152600160401b80830482166040850152600160801b830482166060850152600160c01b9092048116608084015260039384015480821660a0850152919091041660c09091015290915081516005811115610fbf57610fbf613245565b14610ff2575f8381526008830160205260409081902054905163170cc93360e21b81526105879160ff16906004016138b6565b606081015160405163854a893f60e01b8152600481018590526001600160401b0390911660248201525f60448201526005600160991b019063ee5b48eb9073__$fd0c147b4031eef6079b0498cbafa865f0$__9063854a893f906064015f60405180830381865af4158015611069573d5f803e3d5ffd5b505050506040513d5f823e601f3d908101601f1916820160405261109091908101906135c9565b6040518263ffffffff1660e01b81526004016110ac91906133ae565b6020604051808303815f875af11580156110c8573d5f803e3d5ffd5b505050506040513d601f19601f820116820180604052508101906110ec9190613397565b50505050565b6110fa611e35565b6111035f612058565b565b7ff0c57e16840df040f15088dc2f81fe391c3923bec73e23a9662efc9c229c6a008054600160401b810460ff1615906001600160401b03165f811580156111495750825b90505f826001600160401b031660011480156111645750303b155b905081158015611172575080155b156111905760405163f92ee8a960e01b815260040160405180910390fd5b845467ffffffffffffffff1916600117855583156111ba57845460ff60401b1916600160401b1785555b6111c3866120c8565b831561120957845460ff60401b19168555604051600181527fc7f505b2f371ae2175ee4913f4499e1f2633a7b5936321eed1cdaeb6115181d29060200160405180910390a15b505050505050565b5f61121a611e35565b5f611223611cfb565b90505f8073__$fd0c147b4031eef6079b0498cbafa865f0$__63021de88f61124a87611d1f565b604001516040518263ffffffff1660e01b815260040161126a91906133ae565b6040805180830381865af4158015611284573d5f803e3d5ffd5b505050506040513d601f19601f820116820180604052508101906112a891906138d3565b9150915080156112cf57604051632d07135360e01b81528115156004820152602401610587565b5f828152600884016020526040808220815161010081019092528054829060ff16600581111561130157611301613245565b600581111561131257611312613245565b8152602001600182018054611326906136fd565b80601f0160208091040260200160405190810160405280929190818152602001828054611352906136fd565b801561139d5780601f106113745761010080835404028352916020019161139d565b820191905f5260205f20905b81548152906001019060200180831161138057829003601f168201915b505050918352505060028201546001600160401b038082166020840152600160401b80830482166040850152600160801b830482166060850152600160c01b9092048116608084015260039384015480821660a0850152919091041660c0909101529091508151600581111561141557611415613245565b14158015611436575060018151600581111561143357611433613245565b14155b1561145757805160405163170cc93360e21b815261058791906004016138b6565b60038151600581111561146c5761146c613245565b0361147a57600481526114cb565b60a08101516003850180546008906114a3908490600160401b90046001600160401b03166138f4565b82546001600160401b039182166101009390930a928302919092021990911617905550600581525b8360060181602001516040516114e191906135fa565b90815260408051602092819003830190205f908190558581526008870190925290208151815483929190829060ff1916600183600581111561152557611525613245565b02179055506020820151600182019061153e908261377a565b506040828101516002830180546060860151608087015160a08801516001600160401b039586166001600160801b031994851617600160401b9387168402176001600160801b0316600160801b928716929092026001600160c01b031691909117600160c01b918616919091021790925560c08601516003909501805460e09097015195841696909116959095179390911602919091179091555183907fafaccef7080649a725bc30a35359a257a4a27225be352875c80bdf6b5f04080c905f90a25090925050505b919050565b5f611615611e35565b61162286868686866120ee565b9695505050505050565b5f611635611e35565b5f61163e611cfb565b90505f8073__$fd0c147b4031eef6079b0498cbafa865f0$__63021de88f61166587611d1f565b604001516040518263ffffffff1660e01b815260040161168591906133ae565b6040805180830381865af415801561169f573d5f803e3d5ffd5b505050506040513d601f19601f820116820180604052508101906116c391906138d3565b91509150806116e957604051632d07135360e01b81528115156004820152602401610587565b5f82815260048401602052604090208054611703906136fd565b90505f036117275760405163089938b360e11b815260048101839052602401610587565b60015f83815260088501602052604090205460ff16600581111561174d5761174d613245565b14611780575f8281526008840160205260409081902054905163170cc93360e21b81526105879160ff16906004016138b6565b5f828152600484016020526040812061179891612dcd565b5f828152600884016020908152604091829020805460ff1916600290811782556003820180546001600160401b0342811667ffffffffffffffff19909216919091179091559101549251600160c01b90930416825283917f967ae87813a3b5f201dd9bcba778d457176eafe6f41facee1c718091d3952d06910160405180910390a2509392505050565b61182a611e35565b611833816124eb565b50565b5f61183f611cfb565b60030154600160401b90046001600160401b0316919050565b5f611861611cfb565b5f838152600482016020526040902080549192509061187f906136fd565b90505f036118a35760405163089938b360e11b815260048101839052602401610587565b60015f83815260088301602052604090205460ff1660058111156118c9576118c9613245565b146118fc575f8281526008820160205260409081902054905163170cc93360e21b81526105879160ff16906004016138b6565b5f8281526004808301602052604091829020915163ee5b48eb60e01b81526005600160991b019263ee5b48eb926119339201613914565b6020604051808303815f875af115801561194f573d5f803e3d5ffd5b505050506040513d601f19601f820116820180604052508101906119739190613397565b505050565b5f80611982611e35565b5f61198c84611d1f565b90505f805f73__$fd0c147b4031eef6079b0498cbafa865f0$__6350782b0f85604001516040518263ffffffff1660e01b81526004016119cc91906133ae565b606060405180830381865af41580156119e7573d5f803e3d5ffd5b505050506040513d601f19601f82011682018060405250810190611a0b919061399e565b9250925092505f611a1a611cfb565b5f8581526008820160205260409020600201549091506001600160401b03808516600160401b909204161015611a6e57604051632e19bc2d60e11b81526001600160401b0384166004820152602401610587565b5f8481526008820160205260409081902060020180546001600160401b038616600160801b0267ffffffffffffffff60801b199091161790555184907fc917996591802ecedcfced71321d4bb5320f7dfbacf5477dffe1dbf8b8839ff990611aee90869086906001600160401b0392831681529116602082015260400190565b60405180910390a25091945092505050915091565b5f80611b0d611cfb565b9050806006018484604051611b239291906139de565b9081526020016040518091039020549150505b92915050565b60408051610100810182525f8082526060602083018190529282018190529181018290526080810182905260a0810182905260c0810182905260e0810182905290611b85611cfb565b5f848152600882016020526040908190208151610100810190925280549293509091829060ff166005811115611bbd57611bbd613245565b6005811115611bce57611bce613245565b8152602001600182018054611be2906136fd565b80601f0160208091040260200160405190810160405280929190818152602001828054611c0e906136fd565b8015611c595780601f10611c3057610100808354040283529160200191611c59565b820191905f5260205f20905b815481529060010190602001808311611c3c57829003601f168201915b505050918352505060028201546001600160401b038082166020840152600160401b80830482166040850152600160801b830482166060850152600160c01b9092048116608084015260039093015480841660a08401520490911660c0909101529392505050565b611cc9611e35565b6001600160a01b038116611cf257604051631e4fbdf760e01b81525f6004820152602401610587565b61183381612058565b7fe92546d698950ddd38910d2e15ed1d923cd0a7b3dde9e2a6a3f380565559cb0090565b60408051606080820183525f8083526020830152918101919091526040516306f8253560e41b815263ffffffff831660048201525f9081906005600160991b0190636f825350906024015f60405180830381865afa158015611d83573d5f803e3d5ffd5b505050506040513d5f823e601f3d908101601f19168201604052611daa91908101906139ed565b9150915080611dcc57604051636b2f19e960e01b815260040160405180910390fd5b815115611df2578151604051636ba589a560e01b81526004810191909152602401610587565b60208201516001600160a01b031615611e2e576020820151604051624de75d60e31b81526001600160a01b039091166004820152602401610587565b5092915050565b33611e677f9016d09d72d40fdae2fd8ceac6b6234c7706214fd39c1cd1e609a0528c199300546001600160a01b031690565b6001600160a01b0316146111035760405163118cdaa760e01b8152336004820152602401610587565b5f805f611e9b611cfb565b5f868152600882016020526040902060020154909150600160c01b90046001600160401b0316611ecb85826127d5565b5f611ed587612a42565b5f88815260088501602052604080822060020180546001600160c01b0316600160c01b6001600160401b038c811691820292909217909255915163854a893f60e01b8152600481018c905291841660248301526044820152919250906005600160991b019063ee5b48eb9073__$fd0c147b4031eef6079b0498cbafa865f0$__9063854a893f906064015f60405180830381865af4158015611f79573d5f803e3d5ffd5b505050506040513d5f823e601f3d908101601f19168201604052611fa091908101906135c9565b6040518263ffffffff1660e01b8152600401611fbc91906133ae565b6020604051808303815f875af1158015611fd8573d5f803e3d5ffd5b505050506040513d601f19601f82011682018060405250810190611ffc9190613397565b604080516001600160401b038581168252602082018490528a1681830152905191925089917f6e350dd49b060d87f297206fd309234ed43156d890ced0f139ecf704310481d39181900360600190a29097909650945050505050565b7f9016d09d72d40fdae2fd8ceac6b6234c7706214fd39c1cd1e609a0528c19930080546001600160a01b031981166001600160a01b03848116918217845560405192169182907f8be0079c531659141344cd1fd0a4f28419497f9722a3daafe3b4186f6b6457e0905f90a3505050565b6120d0612aaa565b6120e56120e0602083018361337c565b612af3565b61183381612b04565b5f6120f7611cfb565b6007015460ff1661211b57604051637fab81e560e01b815260040160405180910390fd5b5f612124611cfb565b60038101549091506001600160401b039061214a90600160401b90048216858316613a7a565b111561217457604051633e1a785160e01b81526001600160401b0384166004820152602401610587565b61217d85612c43565b61218684612c43565b85516030146121ad5785516040516326475b2f60e11b815260040161058791815260200190565b86516014146121d15786604051633e08a12560e11b815260040161058791906133ae565b5f801b81600601886040516121e691906135fa565b90815260200160405180910390205414612215578660405163a41f772f60e01b815260040161058791906133ae565b61221f835f6127d5565b5f61222d6201518042613849565b90505f8073__$fd0c147b4031eef6079b0498cbafa865f0$__63eb97ce516040518060e00160405280875f015481526020018d81526020018c8152602001866001600160401b031681526020018b81526020018a8152602001896001600160401b03168152506040518263ffffffff1660e01b81526004016122af9190613af3565b5f60405180830381865af41580156122c9573d5f803e3d5ffd5b505050506040513d5f823e601f3d908101601f191682016040526122f09190810190613baa565b90925090505f8083815260088601602052604090205460ff16600581111561231a5761231a613245565b1461234d575f8281526008850160205260409081902054905163170cc93360e21b81526105879160ff16906004016138b6565b5f8281526004850160205260409020612366828261377a565b5081846006018b60405161237a91906135fa565b9081526040519081900360200181209190915563ee5b48eb60e01b81525f906005600160991b019063ee5b48eb906123b69085906004016133ae565b6020604051808303815f875af11580156123d2573d5f803e3d5ffd5b505050506040513d601f19601f820116820180604052508101906123f69190613397565b5f8481526008870160205260409020805460ff191660019081178255919250016124208c8261377a565b505f8381526008860160205260409020600281018054600160c01b6001600160401b038b1690810267ffffffffffffffff60801b9092161717905560030180546001600160801b03191690556124778b6020015190565b6bffffffffffffffffffffffff1916837f5881be437bdcb008bfa5f20e32d3e335ccf8ab90ef2818852a251625260af35d83878b6040516124d4939291909283526001600160401b03918216602084015216604082015260600190565b60405180910390a350909998505050505050505050565b5f6124f4611cfb565b5f8381526008820160205260408082208151610100810190925280549394509192909190829060ff16600581111561252e5761252e613245565b600581111561253f5761253f613245565b8152602001600182018054612553906136fd565b80601f016020809104026020016040519081016040528092919081815260200182805461257f906136fd565b80156125ca5780601f106125a1576101008083540402835291602001916125ca565b820191905f5260205f20905b8154815290600101906020018083116125ad57829003601f168201915b50505091835250506002828101546001600160401b038082166020850152600160401b80830482166040860152600160801b830482166060860152600160c01b9092048116608085015260039094015480851660a08501520490921660c0909101529091508151600581111561264257612642613245565b14612675575f8381526008830160205260409081902054905163170cc93360e21b81526105879160ff16906004016138b6565b60038152426001600160401b031660e08201525f83815260088301602052604090208151815483929190829060ff191660018360058111156126b9576126b9613245565b0217905550602082015160018201906126d2908261377a565b5060408201516002820180546060850151608086015160a08701516001600160401b039586166001600160801b031994851617600160401b9387168402176001600160801b0316600160801b928716929092026001600160c01b031691909117600160c01b918616919091021790925560c08501516003909401805460e090960151948416959091169490941792909116021790555f6127728482611e90565b915050837fbae388a94e7f18411fe57098f12f418b8e1a8273e0532a90188a3a059b897273828460a00151426040516127c7939291909283526001600160401b03918216602084015216604082015260600190565b60405180910390a250505050565b5f6127de611cfb565b90505f826001600160401b0316846001600160401b0316111561280c5761280583856138f4565b9050612819565b61281684846138f4565b90505b60408051608081018252600284015480825260038501546001600160401b038082166020850152600160401b8204811694840194909452600160801b9004909216606082015242911580612886575060018401548151612882916001600160401b031690613a7a565b8210155b156128ae576001600160401b03808416606083015282825260408201511660208201526128cd565b82816060018181516128c09190613849565b6001600160401b03169052505b60608101516128dd90606461388b565b602082015160018601546001600160401b0392909216916129089190600160401b900460ff1661388b565b6001600160401b0316101561294157606081015160405163dfae880160e01b81526001600160401b039091166004820152602401610587565b85816040018181516129539190613849565b6001600160401b03169052506040810180518691906129739083906138f4565b6001600160401b0316905250600184015460408201516064916129a191600160401b90910460ff169061388b565b6001600160401b031610156129da576040808201519051633e1a785160e01b81526001600160401b039091166004820152602401610587565b8051600285015560208101516003909401805460408301516060909301516001600160401b03908116600160801b0267ffffffffffffffff60801b19948216600160401b026001600160801b0319909316919097161717919091169390931790925550505050565b5f80612a4c611cfb565b5f84815260088281016020526040909120600201805492935091612a7f90600160401b90046001600160401b0316613bed565b91906101000a8154816001600160401b0302191690836001600160401b031602179055915050919050565b7ff0c57e16840df040f15088dc2f81fe391c3923bec73e23a9662efc9c229c6a0054600160401b900460ff1661110357604051631afcd79f60e31b815260040160405180910390fd5b612afb612aaa565b61183381612dc5565b612b0c612aaa565b5f612b15611cfb565b6020830135815590506014612b306080840160608501613c08565b60ff161180612b4f5750612b4a6080830160608401613c08565b60ff16155b15612b8357612b646080830160608401613c08565b604051634a59bbff60e11b815260ff9091166004820152602401610587565b62015180612b976060840160408501613c28565b6001600160401b03161115612bdb57612bb66060830160408401613c28565b6040516301f2f3ff60e51b81526001600160401b039091166004820152602401610587565b612beb6080830160608401613c08565b60018201805460ff92909216600160401b0260ff60401b19909216919091179055612c1c6060830160408401613c28565b600191909101805467ffffffffffffffff19166001600160401b0390921691909117905550565b805163ffffffff16158015612c5c575060208101515115155b15612c9057805160208201515160405163c08a0f1d60e01b815263ffffffff90921660048301526024820152604401610587565b602081015151815163ffffffff161115612cd357805160208201515160405163c08a0f1d60e01b815263ffffffff90921660048301526024820152604401610587565b5f816020015151118015612d1557505f6001600160a01b031681602001515f81518110612d0257612d0261365a565b60200260200101516001600160a01b0316145b15612d335760405163d92e233d60e01b815260040160405180910390fd5b60015b816020015151811015612dc1576020820151612d53600183613c43565b81518110612d6357612d6361365a565b60200260200101516001600160a01b031682602001518281518110612d8a57612d8a61365a565b60200260200101516001600160a01b031611612db957604051637882c48760e01b815260040160405180910390fd5b600101612d36565b5050565b611cc9612aaa565b508054612dd9906136fd565b5f825580601f10612de8575050565b601f0160209004905f5260205f209081019061183391905b80821115612e13575f8155600101612e00565b5090565b5f60808284031215612e27575f80fd5b50919050565b803563ffffffff81168114611607575f80fd5b5f8060408385031215612e51575f80fd5b82356001600160401b03811115612e66575f80fd5b612e7285828601612e17565b925050612e8160208401612e2d565b90509250929050565b5f8060408385031215612e9b575f80fd5b82359150612e8160208401612e2d565b6001600160401b0381168114611833575f80fd5b5f8060408385031215612ed0575f80fd5b823591506020830135612ee281612eab565b809150509250929050565b5f60208284031215612efd575f80fd5b5035919050565b5f60808284031215612f14575f80fd5b612f1e8383612e17565b9392505050565b5f60208284031215612f35575f80fd5b612f1e82612e2d565b634e487b7160e01b5f52604160045260245ffd5b604080519081016001600160401b0381118282101715612f7457612f74612f3e565b60405290565b604051606081016001600160401b0381118282101715612f7457612f74612f3e565b604051601f8201601f191681016001600160401b0381118282101715612fc457612fc4612f3e565b604052919050565b5f6001600160401b03821115612fe457612fe4612f3e565b50601f01601f191660200190565b5f82601f830112613001575f80fd5b813561301461300f82612fcc565b612f9c565b818152846020838601011115613028575f80fd5b816020850160208301375f918101602001919091529392505050565b6001600160a01b0381168114611833575f80fd5b5f60408284031215613068575f80fd5b613070612f52565b905061307b82612e2d565b81526020808301356001600160401b0380821115613097575f80fd5b818501915085601f8301126130aa575f80fd5b8135818111156130bc576130bc612f3e565b8060051b91506130cd848301612f9c565b81815291830184019184810190888411156130e6575f80fd5b938501935b83851015613110578435925061310083613044565b82825293850193908501906130eb565b808688015250505050505092915050565b5f805f805f60a08688031215613135575f80fd5b85356001600160401b038082111561314b575f80fd5b61315789838a01612ff2565b9650602088013591508082111561316c575f80fd5b61317889838a01612ff2565b9550604088013591508082111561318d575f80fd5b61319989838a01613058565b945060608801359150808211156131ae575f80fd5b506131bb88828901613058565b92505060808601356131cc81612eab565b809150509295509295909350565b5f80602083850312156131eb575f80fd5b82356001600160401b0380821115613201575f80fd5b818501915085601f830112613214575f80fd5b813581811115613222575f80fd5b866020828501011115613233575f80fd5b60209290920196919550909350505050565b634e487b7160e01b5f52602160045260245ffd5b6006811061327557634e487b7160e01b5f52602160045260245ffd5b9052565b5f5b8381101561329357818101518382015260200161327b565b50505f910152565b5f81518084526132b2816020860160208601613279565b601f01601f19169290920160200192915050565b602081526132d8602082018351613259565b5f60208301516101008060408501526132f561012085018361329b565b915060408501516001600160401b0380821660608701528060608801511660808701525050608085015161333460a08601826001600160401b03169052565b5060a08501516001600160401b03811660c08601525060c08501516001600160401b03811660e08601525060e08501516001600160401b038116858301525090949350505050565b5f6020828403121561338c575f80fd5b8135612f1e81613044565b5f602082840312156133a7575f80fd5b5051919050565b602081525f612f1e602083018461329b565b5f808335601e198436030181126133d5575f80fd5b83016020810192503590506001600160401b038111156133f3575f80fd5b803603821315610e61575f80fd5b81835281816020850137505f828201602090810191909152601f909101601f19169091010190565b5f8383855260208086019550808560051b830101845f5b878110156134de57848303601f19018952813536889003605e19018112613465575f80fd5b8701606061347382806133c0565b8287526134838388018284613401565b92505050613493868301836133c0565b868303888801526134a5838284613401565b9250505060408083013592506134ba83612eab565b6001600160401b039290921694909101939093529783019790830190600101613440565b5090979650505050505050565b6020815281356020820152602082013560408201525f604083013561350f81613044565b6001600160a01b031660608381019190915283013536849003601e19018112613536575f80fd5b83016020810190356001600160401b03811115613551575f80fd5b8060051b3603821315613562575f80fd5b60808085015261357660a085018284613429565b95945050505050565b5f82601f83011261358e575f80fd5b815161359c61300f82612fcc565b8181528460208386010111156135b0575f80fd5b6135c1826020830160208701613279565b949350505050565b5f602082840312156135d9575f80fd5b81516001600160401b038111156135ee575f80fd5b6135c18482850161357f565b5f825161360b818460208701613279565b9190910192915050565b5f808335601e1984360301811261362a575f80fd5b8301803591506001600160401b03821115613643575f80fd5b6020019150600581901b3603821315610e61575f80fd5b634e487b7160e01b5f52603260045260245ffd5b5f8235605e1983360301811261360b575f80fd5b5f60608236031215613692575f80fd5b61369a612f7a565b82356001600160401b03808211156136b0575f80fd5b6136bc36838701612ff2565b835260208501359150808211156136d1575f80fd5b506136de36828601612ff2565b60208301525060408301356136f281612eab565b604082015292915050565b600181811c9082168061371157607f821691505b602082108103612e2757634e487b7160e01b5f52602260045260245ffd5b601f82111561197357805f5260205f20601f840160051c810160208510156137545750805b601f840160051c820191505b81811015613773575f8155600101613760565b5050505050565b81516001600160401b0381111561379357613793612f3e565b6137a7816137a184546136fd565b8461372f565b602080601f8311600181146137da575f84156137c35750858301515b5f19600386901b1c1916600185901b178555611209565b5f85815260208120601f198616915b82811015613808578886015182559484019460019091019084016137e9565b508582101561382557878501515f19600388901b60f8161c191681555b5050505050600190811b01905550565b634e487b7160e01b5f52601160045260245ffd5b6001600160401b03818116838216019080821115611e2e57611e2e613835565b5f63ffffffff80831681810361388157613881613835565b6001019392505050565b6001600160401b038181168382160280821691908281146138ae576138ae613835565b505092915050565b60208101611b368284613259565b80518015158114611607575f80fd5b5f80604083850312156138e4575f80fd5b82519150612e81602084016138c4565b6001600160401b03828116828216039080821115611e2e57611e2e613835565b5f60208083525f8454613926816136fd565b806020870152604060018084165f8114613947576001811461396357613990565b60ff19851660408a0152604084151560051b8a01019550613990565b895f5260205f205f5b858110156139875781548b820186015290830190880161396c565b8a016040019650505b509398975050505050505050565b5f805f606084860312156139b0575f80fd5b8351925060208401516139c281612eab565b60408501519092506139d381612eab565b809150509250925092565b818382375f9101908152919050565b5f80604083850312156139fe575f80fd5b82516001600160401b0380821115613a14575f80fd5b9084019060608287031215613a27575f80fd5b613a2f612f7a565b825181526020830151613a4181613044565b6020820152604083015182811115613a57575f80fd5b613a638882860161357f565b6040830152509350612e81915050602084016138c4565b80820180821115611b3657611b36613835565b5f6040830163ffffffff8351168452602080840151604060208701528281518085526060880191506020830194505f92505b80831015613ae85784516001600160a01b03168252938301936001929092019190830190613abf565b509695505050505050565b60208152815160208201525f602083015160e06040840152613b1961010084018261329b565b90506040840151601f1980858403016060860152613b37838361329b565b92506001600160401b03606087015116608086015260808601519150808584030160a0860152613b678383613a8d565b925060a08601519150808584030160c086015250613b858282613a8d565b91505060c0840151613ba260e08501826001600160401b03169052565b509392505050565b5f8060408385031215613bbb575f80fd5b8251915060208301516001600160401b03811115613bd7575f80fd5b613be38582860161357f565b9150509250929050565b5f6001600160401b0380831681810361388157613881613835565b5f60208284031215613c18575f80fd5b813560ff81168114612f1e575f80fd5b5f60208284031215613c38575f80fd5b8135612f1e81612eab565b81810381811115611b3657611b3661383556fea164736f6c6343000819000a",
    "linkReferences": {
      "contracts/validator-manager/ValidatorMessages.sol": {
        "ValidatorMessages": [
          {
            "start": 1844,
            "length": 20
          },
          {
            "start": 1977,
            "length": 20
          },
          {
            "start": 4479,
            "length": 20
          },
          {
            "start": 4982,
            "length": 20
          },
          {
            "start": 6033,
            "length": 20
          },
          {
            "start": 6880,
            "length": 20
          },
          {
            "start": 8335,
            "length": 20
          },
          {
            "start": 9088,
            "length": 20
          }
        ]
      }
    }
  },
  "methodIdentifiers": {
    "BLS_PUBLIC_KEY_LENGTH()": "8280a25a",
    "MAXIMUM_CHURN_PERCENTAGE_LIMIT()": "c974d1b6",
    "MAXIMUM_CHURN_PERIOD_LENGTH()": "b6c2fd41",
    "NODE_ID_LENGTH()": "63e2ca97",
    "P_CHAIN_BLOCKCHAIN_ID()": "732214f8",
    "REGISTRATION_EXPIRY_LENGTH()": "efc008fb",
    "VALIDATOR_MANAGER_STORAGE_LOCATION()": "bc5fbfec",
    "WARP_MESSENGER()": "b771b3bc",
    "completeValidatorRegistration(uint32)": "a3a65e48",
    "completeValidatorRemoval(uint32)": "9681d940",
    "completeValidatorWeightUpdate(uint32)": "ce161f14",
    "getChurnPeriodSeconds()": "09c1df66",
    "getChurnTracker()": "4d693536",
    "getNodeValidationID(bytes)": "d47a948b",
    "getValidator(bytes32)": "d5f20ff6",
    "initialize((address,bytes32,uint64,uint8))": "736c87be",
    "initializeValidatorSet((bytes32,bytes32,address,(bytes,bytes,uint64)[]),uint32)": "20d91b7a",
    "initiateValidatorRegistration(bytes,bytes,(uint32,address[]),(uint32,address[]),uint64)": "9cb7624e",
    "initiateValidatorRemoval(bytes32)": "b6e6a2ca",
    "initiateValidatorWeightUpdate(bytes32,uint64)": "66109669",
    "isValidatorSetInitialized()": "5bd93e88",
    "l1TotalWeight()": "bb0b1938",
    "migrateFromV1(bytes32,uint32)": "30ffe4d7",
    "owner()": "8da5cb5b",
    "registeredValidators(bytes)": "fd7ac5e7",
    "renounceOwnership()": "715018a6",
    "resendRegisterValidatorMessage(bytes32)": "bee0a03f",
    "resendValidatorRemovalMessage(bytes32)": "66edba73",
    "subnetID()": "5dc1f535",
    "transferOwnership(address)": "f2fde38b"
  },
  "id": 96
}